{
  "_format": "hh-sol-artifact-1",
  "contractName": "AaveProtocolDataProvider",
  "sourceName": "contracts/misc/AaveProtocolDataProvider.sol",
  "abi": [
    {
      "inputs": [
        {
          "internalType": "contract ILendingPoolAddressesProvider",
          "name": "addressesProvider",
          "type": "address"
        }
      ],
      "stateMutability": "nonpayable",
      "type": "constructor"
    },
    {
      "inputs": [],
      "name": "ADDRESSES_PROVIDER",
      "outputs": [
        {
          "internalType": "contract ILendingPoolAddressesProvider",
          "name": "",
          "type": "address"
        }
      ],
      "stateMutability": "view",
      "type": "function"
    },
    {
      "inputs": [],
      "name": "getAllATokens",
      "outputs": [
        {
          "components": [
            {
              "internalType": "string",
              "name": "symbol",
              "type": "string"
            },
            {
              "internalType": "address",
              "name": "tokenAddress",
              "type": "address"
            }
          ],
          "internalType": "struct AaveProtocolDataProvider.TokenData[]",
          "name": "",
          "type": "tuple[]"
        }
      ],
      "stateMutability": "view",
      "type": "function"
    },
    {
      "inputs": [],
      "name": "getAllReservesTokens",
      "outputs": [
        {
          "components": [
            {
              "internalType": "string",
              "name": "symbol",
              "type": "string"
            },
            {
              "internalType": "address",
              "name": "tokenAddress",
              "type": "address"
            }
          ],
          "internalType": "struct AaveProtocolDataProvider.TokenData[]",
          "name": "",
          "type": "tuple[]"
        }
      ],
      "stateMutability": "view",
      "type": "function"
    },
    {
      "inputs": [
        {
          "internalType": "address",
          "name": "asset",
          "type": "address"
        }
      ],
      "name": "getPaused",
      "outputs": [
        {
          "internalType": "bool",
          "name": "isPaused",
          "type": "bool"
        }
      ],
      "stateMutability": "view",
      "type": "function"
    },
    {
      "inputs": [
        {
          "internalType": "address",
          "name": "asset",
          "type": "address"
        }
      ],
      "name": "getReserveCaps",
      "outputs": [
        {
          "internalType": "uint256",
          "name": "borrowCap",
          "type": "uint256"
        },
        {
          "internalType": "uint256",
          "name": "supplyCap",
          "type": "uint256"
        }
      ],
      "stateMutability": "view",
      "type": "function"
    },
    {
      "inputs": [
        {
          "internalType": "address",
          "name": "asset",
          "type": "address"
        }
      ],
      "name": "getReserveConfigurationData",
      "outputs": [
        {
          "internalType": "uint256",
          "name": "decimals",
          "type": "uint256"
        },
        {
          "internalType": "uint256",
          "name": "ltv",
          "type": "uint256"
        },
        {
          "internalType": "uint256",
          "name": "liquidationThreshold",
          "type": "uint256"
        },
        {
          "internalType": "uint256",
          "name": "liquidationBonus",
          "type": "uint256"
        },
        {
          "internalType": "uint256",
          "name": "reserveFactor",
          "type": "uint256"
        },
        {
          "internalType": "bool",
          "name": "usageAsCollateralEnabled",
          "type": "bool"
        },
        {
          "internalType": "bool",
          "name": "borrowingEnabled",
          "type": "bool"
        },
        {
          "internalType": "bool",
          "name": "stableBorrowRateEnabled",
          "type": "bool"
        },
        {
          "internalType": "bool",
          "name": "isActive",
          "type": "bool"
        },
        {
          "internalType": "bool",
          "name": "isFrozen",
          "type": "bool"
        }
      ],
      "stateMutability": "view",
      "type": "function"
    },
    {
      "inputs": [
        {
          "internalType": "address",
          "name": "asset",
          "type": "address"
        }
      ],
      "name": "getReserveData",
      "outputs": [
        {
          "internalType": "uint256",
          "name": "availableLiquidity",
          "type": "uint256"
        },
        {
          "internalType": "uint256",
          "name": "totalStableDebt",
          "type": "uint256"
        },
        {
          "internalType": "uint256",
          "name": "totalVariableDebt",
          "type": "uint256"
        },
        {
          "internalType": "uint256",
          "name": "liquidityRate",
          "type": "uint256"
        },
        {
          "internalType": "uint256",
          "name": "variableBorrowRate",
          "type": "uint256"
        },
        {
          "internalType": "uint256",
          "name": "stableBorrowRate",
          "type": "uint256"
        },
        {
          "internalType": "uint256",
          "name": "averageStableBorrowRate",
          "type": "uint256"
        },
        {
          "internalType": "uint256",
          "name": "liquidityIndex",
          "type": "uint256"
        },
        {
          "internalType": "uint256",
          "name": "variableBorrowIndex",
          "type": "uint256"
        },
        {
          "internalType": "uint40",
          "name": "lastUpdateTimestamp",
          "type": "uint40"
        }
      ],
      "stateMutability": "view",
      "type": "function"
    },
    {
      "inputs": [
        {
          "internalType": "address",
          "name": "asset",
          "type": "address"
        }
      ],
      "name": "getReserveTokensAddresses",
      "outputs": [
        {
          "internalType": "address",
          "name": "aTokenAddress",
          "type": "address"
        },
        {
          "internalType": "address",
          "name": "stableDebtTokenAddress",
          "type": "address"
        },
        {
          "internalType": "address",
          "name": "variableDebtTokenAddress",
          "type": "address"
        }
      ],
      "stateMutability": "view",
      "type": "function"
    },
    {
      "inputs": [
        {
          "internalType": "address",
          "name": "asset",
          "type": "address"
        },
        {
          "internalType": "address",
          "name": "user",
          "type": "address"
        }
      ],
      "name": "getUserReserveData",
      "outputs": [
        {
          "internalType": "uint256",
          "name": "currentATokenBalance",
          "type": "uint256"
        },
        {
          "internalType": "uint256",
          "name": "currentStableDebt",
          "type": "uint256"
        },
        {
          "internalType": "uint256",
          "name": "currentVariableDebt",
          "type": "uint256"
        },
        {
          "internalType": "uint256",
          "name": "principalStableDebt",
          "type": "uint256"
        },
        {
          "internalType": "uint256",
          "name": "scaledVariableDebt",
          "type": "uint256"
        },
        {
          "internalType": "uint256",
          "name": "stableBorrowRate",
          "type": "uint256"
        },
        {
          "internalType": "uint256",
          "name": "liquidityRate",
          "type": "uint256"
        },
        {
          "internalType": "uint40",
          "name": "stableRateLastUpdated",
          "type": "uint40"
        },
        {
          "internalType": "bool",
          "name": "usageAsCollateralEnabled",
          "type": "bool"
        }
      ],
      "stateMutability": "view",
      "type": "function"
    }
  ],
  "bytecode": "0x60a060405234801561001057600080fd5b50604051611ed9380380611ed983398101604081905261002f91610044565b60601b6001600160601b031916608052610072565b600060208284031215610055578081fd5b81516001600160a01b038116811461006b578182fd5b9392505050565b60805160601c611e1d6100bc600039806101b252806101ec528061030352806107fe5280610b825280610cd55280610df4528061116a528061129252806113c25250611e1d6000f3fe608060405234801561001057600080fd5b50600436106100935760003560e01c806346fbe5581161006657806346fbe55814610130578063b316ff8914610151578063b55d990414610166578063d2493b6c14610186578063f561ae41146101a857610093565b80630542975c1461009857806328dd2d01146100b657806335ea6a75146100de5780633e15014114610107575b600080fd5b6100a06101b0565b6040516100ad9190611bb6565b60405180910390f35b6100c96100c43660046118bb565b6101d4565b6040516100ad99989796959493929190611d30565b6100f16100ec36600461187c565b6107e5565b6040516100ad9a99989796959493929190611ce4565b61011a61011536600461187c565b610b69565b6040516100ad9a99989796959493929190611c95565b61014361013e36600461187c565b610ccd565b6040516100ad929190611c87565b610159610dee565b6040516100ad9190611bed565b61017961017436600461187c565b611163565b6040516100ad9190611c69565b61019961019436600461187c565b611283565b6040516100ad93929190611bca565b6101596113bc565b7f000000000000000000000000000000000000000000000000000000000000000081565b60008060008060008060008060006101ea611771565b7f00000000000000000000000000000000000000000000000000000000000000006001600160a01b0316630261bf8b6040518163ffffffff1660e01b815260040160206040518083038186803b15801561024357600080fd5b505afa158015610257573d6000803e3d6000fd5b505050506040513d601f19601f8201168201806040525081019061027b919061189f565b6001600160a01b03166335ea6a758d6040518263ffffffff1660e01b81526004016102a69190611bb6565b6101a06040518083038186803b1580156102bf57600080fd5b505afa1580156102d3573d6000803e3d6000fd5b505050506040513d601f19601f820116820180604052508101906102f79190611a45565b90506103016117e4565b7f00000000000000000000000000000000000000000000000000000000000000006001600160a01b0316630261bf8b6040518163ffffffff1660e01b815260040160206040518083038186803b15801561035a57600080fd5b505afa15801561036e573d6000803e3d6000fd5b505050506040513d601f19601f82011682018060405250810190610392919061189f565b6001600160a01b0316634417a5838d6040518263ffffffff1660e01b81526004016103bd9190611bb6565b60206040518083038186803b1580156103d557600080fd5b505afa1580156103e9573d6000803e3d6000fd5b505050506040513d601f19601f8201168201806040525081019061040d9190611a2a565b60e08301516040516370a0823160e01b81529192506001600160a01b0316906370a0823190610440908f90600401611bb6565b60206040518083038186803b15801561045857600080fd5b505afa15801561046c573d6000803e3d6000fd5b505050506040513d601f19601f820116820180604052508101906104909190611b4d565b6101208301516040516370a0823160e01b8152919c506001600160a01b0316906370a08231906104c4908f90600401611bb6565b60206040518083038186803b1580156104dc57600080fd5b505afa1580156104f0573d6000803e3d6000fd5b505050506040513d601f19601f820116820180604052508101906105149190611b4d565b6101008301516040516370a0823160e01b8152919a506001600160a01b0316906370a0823190610548908f90600401611bb6565b60206040518083038186803b15801561056057600080fd5b505afa158015610574573d6000803e3d6000fd5b505050506040513d601f19601f820116820180604052508101906105989190611b4d565b61010083015160405163631a6fd560e11b8152919b506001600160a01b03169063c634dfaa906105cc908f90600401611bb6565b60206040518083038186803b1580156105e457600080fd5b505afa1580156105f8573d6000803e3d6000fd5b505050506040513d601f19601f8201168201806040525081019061061c9190611b4d565b610120830151604051630ed1279f60e11b81529199506001600160a01b031690631da24f3e90610650908f90600401611bb6565b60206040518083038186803b15801561066857600080fd5b505afa15801561067c573d6000803e3d6000fd5b505050506040513d601f19601f820116820180604052508101906106a09190611b4d565b965081606001516001600160801b031694508161010001516001600160a01b031663e78c9b3b8d6040518263ffffffff1660e01b81526004016106e39190611bb6565b60206040518083038186803b1580156106fb57600080fd5b505afa15801561070f573d6000803e3d6000fd5b505050506040513d601f19601f820116820180604052508101906107339190611b4d565b610100830151604051631e739ae360e21b81529197506001600160a01b0316906379ce6b8c90610767908f90600401611bb6565b60206040518083038186803b15801561077f57600080fd5b505afa158015610793573d6000803e3d6000fd5b505050506040513d601f19601f820116820180604052508101906107b79190611b65565b93506107d482610160015160ff168261168390919063ffffffff16565b925050509295985092959850929598565b6000806000806000806000806000806107fc611771565b7f00000000000000000000000000000000000000000000000000000000000000006001600160a01b0316630261bf8b6040518163ffffffff1660e01b815260040160206040518083038186803b15801561085557600080fd5b505afa158015610869573d6000803e3d6000fd5b505050506040513d601f19601f8201168201806040525081019061088d919061189f565b6001600160a01b03166335ea6a758d6040518263ffffffff1660e01b81526004016108b89190611bb6565b6101a06040518083038186803b1580156108d157600080fd5b505afa1580156108e5573d6000803e3d6000fd5b505050506040513d601f19601f820116820180604052508101906109099190611a45565b60e08101516040516370a0823160e01b81529192506001600160a01b038e16916370a082319161093b91600401611bb6565b60206040518083038186803b15801561095357600080fd5b505afa158015610967573d6000803e3d6000fd5b505050506040513d601f19601f8201168201806040525081019061098b9190611b4d565b8161010001516001600160a01b03166318160ddd6040518163ffffffff1660e01b815260040160206040518083038186803b1580156109c957600080fd5b505afa1580156109dd573d6000803e3d6000fd5b505050506040513d601f19601f82011682018060405250810190610a019190611b4d565b8261012001516001600160a01b03166318160ddd6040518163ffffffff1660e01b815260040160206040518083038186803b158015610a3f57600080fd5b505afa158015610a53573d6000803e3d6000fd5b505050506040513d601f19601f82011682018060405250810190610a779190611b4d565b836060015184608001518560a001518661010001516001600160a01b03166390f6fcf26040518163ffffffff1660e01b815260040160206040518083038186803b158015610ac457600080fd5b505afa158015610ad8573d6000803e3d6000fd5b505050506040513d601f19601f82011682018060405250810190610afc9190611b4d565b876020015188604001518960c00151866001600160801b03169650856001600160801b03169550846001600160801b03169450826001600160801b03169250816001600160801b031691509a509a509a509a509a509a509a509a509a509a50509193959799509193959799565b600080600080600080600080600080610b806117e4565b7f00000000000000000000000000000000000000000000000000000000000000006001600160a01b0316630261bf8b6040518163ffffffff1660e01b815260040160206040518083038186803b158015610bd957600080fd5b505afa158015610bed573d6000803e3d6000fd5b505050506040513d601f19601f82011682018060405250810190610c11919061189f565b6001600160a01b031663c44b11f78d6040518263ffffffff1660e01b8152600401610c3c9190611bb6565b60206040518083038186803b158015610c5457600080fd5b505afa158015610c68573d6000803e3d6000fd5b505050506040513d601f19601f82011682018060405250810190610c8c9190611a2a565b9050610c97816116e5565b909e50929c50909a5098509650610cad81611710565b509d9f9c9e509a9c999b989a8d15159a9099909850919650945092505050565b600080610de47f00000000000000000000000000000000000000000000000000000000000000006001600160a01b0316630261bf8b6040518163ffffffff1660e01b815260040160206040518083038186803b158015610d2c57600080fd5b505afa158015610d40573d6000803e3d6000fd5b505050506040513d601f19601f82011682018060405250810190610d64919061189f565b6001600160a01b031663c44b11f7856040518263ffffffff1660e01b8152600401610d8f9190611bb6565b60206040518083038186803b158015610da757600080fd5b505afa158015610dbb573d6000803e3d6000fd5b505050506040513d601f19601f82011682018060405250810190610ddf9190611a2a565b611758565b9094909350915050565b606060007f00000000000000000000000000000000000000000000000000000000000000006001600160a01b0316630261bf8b6040518163ffffffff1660e01b815260040160206040518083038186803b158015610e4b57600080fd5b505afa158015610e5f573d6000803e3d6000fd5b505050506040513d601f19601f82011682018060405250810190610e83919061189f565b90506060816001600160a01b031663d1946dbc6040518163ffffffff1660e01b815260040160006040518083038186803b158015610ec057600080fd5b505afa158015610ed4573d6000803e3d6000fd5b505050506040513d6000823e601f3d908101601f19168201604052610efc91908101906118f3565b90506060815167ffffffffffffffff81118015610f1857600080fd5b50604051908082528060200260200182016040528015610f5257816020015b610f3f6117f7565b815260200190600190039081610f375790505b50905060005b825181101561115b57739f8f72aa9304c8b593d555f12ef6589cc3a579a26001600160a01b0316838281518110610f8b57fe5b60200260200101516001600160a01b0316141561100a5760405180604001604052806040518060400160405280600381526020016226a5a960e91b8152508152602001848381518110610fda57fe5b60200260200101516001600160a01b0316815250828281518110610ffa57fe5b6020026020010181905250611153565b73eeeeeeeeeeeeeeeeeeeeeeeeeeeeeeeeeeeeeeee6001600160a01b031683828151811061103457fe5b60200260200101516001600160a01b031614156110835760405180604001604052806040518060400160405280600381526020016208aa8960eb1b8152508152602001848381518110610fda57fe5b604051806040016040528084838151811061109a57fe5b60200260200101516001600160a01b03166395d89b416040518163ffffffff1660e01b815260040160006040518083038186803b1580156110da57600080fd5b505afa1580156110ee573d6000803e3d6000fd5b505050506040513d6000823e601f3d908101601f19168201604052611116919081019061199e565b815260200184838151811061112757fe5b60200260200101516001600160a01b031681525082828151811061114757fe5b60200260200101819052505b600101610f58565b509250505090565b60006112797f00000000000000000000000000000000000000000000000000000000000000006001600160a01b0316630261bf8b6040518163ffffffff1660e01b815260040160206040518083038186803b1580156111c157600080fd5b505afa1580156111d5573d6000803e3d6000fd5b505050506040513d601f19601f820116820180604052508101906111f9919061189f565b6001600160a01b031663c44b11f7846040518263ffffffff1660e01b81526004016112249190611bb6565b60206040518083038186803b15801561123c57600080fd5b505afa158015611250573d6000803e3d6000fd5b505050506040513d601f19601f820116820180604052508101906112749190611a2a565b611710565b9695505050505050565b6000806000611290611771565b7f00000000000000000000000000000000000000000000000000000000000000006001600160a01b0316630261bf8b6040518163ffffffff1660e01b815260040160206040518083038186803b1580156112e957600080fd5b505afa1580156112fd573d6000803e3d6000fd5b505050506040513d601f19601f82011682018060405250810190611321919061189f565b6001600160a01b03166335ea6a75866040518263ffffffff1660e01b815260040161134c9190611bb6565b6101a06040518083038186803b15801561136557600080fd5b505afa158015611379573d6000803e3d6000fd5b505050506040513d601f19601f8201168201806040525081019061139d9190611a45565b60e0810151610100820151610120909201519097919650945092505050565b606060007f00000000000000000000000000000000000000000000000000000000000000006001600160a01b0316630261bf8b6040518163ffffffff1660e01b815260040160206040518083038186803b15801561141957600080fd5b505afa15801561142d573d6000803e3d6000fd5b505050506040513d601f19601f82011682018060405250810190611451919061189f565b90506060816001600160a01b031663d1946dbc6040518163ffffffff1660e01b815260040160006040518083038186803b15801561148e57600080fd5b505afa1580156114a2573d6000803e3d6000fd5b505050506040513d6000823e601f3d908101601f191682016040526114ca91908101906118f3565b90506060815167ffffffffffffffff811180156114e657600080fd5b5060405190808252806020026020018201604052801561152057816020015b61150d6117f7565b8152602001906001900390816115055790505b50905060005b825181101561115b57611537611771565b846001600160a01b03166335ea6a7585848151811061155257fe5b60200260200101516040518263ffffffff1660e01b81526004016115769190611bb6565b6101a06040518083038186803b15801561158f57600080fd5b505afa1580156115a3573d6000803e3d6000fd5b505050506040513d601f19601f820116820180604052508101906115c79190611a45565b905060405180604001604052808260e001516001600160a01b03166395d89b416040518163ffffffff1660e01b815260040160006040518083038186803b15801561161157600080fd5b505afa158015611625573d6000803e3d6000fd5b505050506040513d6000823e601f3d908101601f1916820160405261164d919081019061199e565b81526020018260e001516001600160a01b031681525083838151811061166f57fe5b602090810291909101015250600101611526565b60006080821060405180604001604052806002815260200161373760f01b815250906116cb5760405162461bcd60e51b81526004016116c29190611c74565b60405180910390fd5b5050815160016002830281019190911c1615155b92915050565b5161ffff80821692601083901c821692602081901c831692603082901c60ff169260409290921c1690565b51670100000000000000811615159167020000000000000082161515916704000000000000008116151591670800000000000000821615159167100000000000000016151590565b8051640fffffffff605082901c81169160741c16915091565b604051806101a001604052806117856117e4565b815260006020820181905260408201819052606082018190526080820181905260a0820181905260c0820181905260e0820181905261010082018190526101208201819052610140820181905261016082018190526101809091015290565b6040518060200160405280600081525090565b60408051808201909152606081526000602082015290565b80516116df81611dcf565b60006020828403121561182b578081fd5b6118356020611d78565b9151825250919050565b80516001600160801b03811681146116df57600080fd5b805164ffffffffff811681146116df57600080fd5b805160ff811681146116df57600080fd5b60006020828403121561188d578081fd5b813561189881611dcf565b9392505050565b6000602082840312156118b0578081fd5b815161189881611dcf565b600080604083850312156118cd578081fd5b82356118d881611dcf565b915060208301356118e881611dcf565b809150509250929050565b60006020808385031215611905578182fd5b825167ffffffffffffffff8082111561191c578384fd5b818501915085601f83011261192f578384fd5b81518181111561193d578485fd5b838102915061194d848301611d78565b8181528481019084860184860187018a1015611967578788fd5b8795505b838610156119915761197d8a8261180f565b83526001959095019491860191860161196b565b5098975050505050505050565b6000602082840312156119af578081fd5b815167ffffffffffffffff808211156119c6578283fd5b818401915084601f8301126119d9578283fd5b8151818111156119e7578384fd5b6119fa601f8201601f1916602001611d78565b9150808252856020828501011115611a10578384fd5b611a21816020840160208601611d9f565b50949350505050565b600060208284031215611a3b578081fd5b611898838361181a565b60006101a0808385031215611a58578182fd5b611a6181611d78565b9050611a6d848461181a565b8152611a7c846020850161183f565b6020820152611a8e846040850161183f565b6040820152611aa0846060850161183f565b6060820152611ab2846080850161183f565b6080820152611ac48460a0850161183f565b60a0820152611ad68460c08501611856565b60c0820152611ae88460e0850161180f565b60e0820152610100611afc8582860161180f565b90820152610120611b0f8585830161180f565b90820152610140611b228585830161180f565b90820152610160611b358585830161186b565b90820152610180928301519281019290925250919050565b600060208284031215611b5e578081fd5b5051919050565b600060208284031215611b76578081fd5b815164ffffffffff81168114611898578182fd5b60008151808452611ba2816020860160208601611d9f565b601f01601f19169290920160200192915050565b6001600160a01b0391909116815260200190565b6001600160a01b0393841681529183166020830152909116604082015260600190565b60208082528251828201819052600091906040908185019080840286018301878501865b83811015611c5b57888303603f1901855281518051878552611c3588860182611b8a565b918901516001600160a01b03169489019490945294870194925090860190600101611c11565b509098975050505050505050565b901515815260200190565b6000602082526118986020830184611b8a565b918252602082015260400190565b998a5260208a0198909852604089019690965260608801949094526080870192909252151560a0860152151560c0850152151560e0840152151561010083015215156101208201526101400190565b998a5260208a019890985260408901969096526060880194909452608087019290925260a086015260c085015260e084015261010083015264ffffffffff166101208201526101400190565b988952602089019790975260408801959095526060870193909352608086019190915260a085015260c084015264ffffffffff1660e083015215156101008201526101200190565b60405181810167ffffffffffffffff81118282101715611d9757600080fd5b604052919050565b60005b83811015611dba578181015183820152602001611da2565b83811115611dc9576000848401525b50505050565b6001600160a01b0381168114611de457600080fd5b5056fea2646970667358221220141ec7c9391009e1a24b31c9afca703521b38142b1833dcb94363216a4054b7764736f6c634300060c0033",
  "linkReferences": {},
  "deployedLinkReferences": {}
}