{
  "_format": "hh-sol-artifact-1",
  "contractName": "WETHGateway",
  "sourceName": "contracts/misc/WETHGateway.sol",
  "abi": [
    {
      "inputs": [
        {
          "internalType": "address",
          "name": "weth",
          "type": "address"
        }
      ],
      "stateMutability": "nonpayable",
      "type": "constructor"
    },
    {
      "anonymous": false,
      "inputs": [
        {
          "indexed": true,
          "internalType": "address",
          "name": "previousOwner",
          "type": "address"
        },
        {
          "indexed": true,
          "internalType": "address",
          "name": "newOwner",
          "type": "address"
        }
      ],
      "name": "OwnershipTransferred",
      "type": "event"
    },
    {
      "stateMutability": "payable",
      "type": "fallback"
    },
    {
      "inputs": [
        {
          "internalType": "address",
          "name": "lendingPool",
          "type": "address"
        }
      ],
      "name": "authorizeLendingPool",
      "outputs": [],
      "stateMutability": "nonpayable",
      "type": "function"
    },
    {
      "inputs": [
        {
          "internalType": "address",
          "name": "lendingPool",
          "type": "address"
        },
        {
          "internalType": "uint256",
          "name": "amount",
          "type": "uint256"
        },
        {
          "internalType": "uint256",
          "name": "interesRateMode",
          "type": "uint256"
        },
        {
          "internalType": "uint16",
          "name": "referralCode",
          "type": "uint16"
        }
      ],
      "name": "borrowETH",
      "outputs": [],
      "stateMutability": "nonpayable",
      "type": "function"
    },
    {
      "inputs": [
        {
          "internalType": "address",
          "name": "lendingPool",
          "type": "address"
        },
        {
          "internalType": "address",
          "name": "onBehalfOf",
          "type": "address"
        },
        {
          "internalType": "uint16",
          "name": "referralCode",
          "type": "uint16"
        }
      ],
      "name": "depositETH",
      "outputs": [],
      "stateMutability": "payable",
      "type": "function"
    },
    {
      "inputs": [
        {
          "internalType": "address",
          "name": "to",
          "type": "address"
        },
        {
          "internalType": "uint256",
          "name": "amount",
          "type": "uint256"
        }
      ],
      "name": "emergencyEtherTransfer",
      "outputs": [],
      "stateMutability": "nonpayable",
      "type": "function"
    },
    {
      "inputs": [
        {
          "internalType": "address",
          "name": "token",
          "type": "address"
        },
        {
          "internalType": "address",
          "name": "to",
          "type": "address"
        },
        {
          "internalType": "uint256",
          "name": "amount",
          "type": "uint256"
        }
      ],
      "name": "emergencyTokenTransfer",
      "outputs": [],
      "stateMutability": "nonpayable",
      "type": "function"
    },
    {
      "inputs": [],
      "name": "getWETHAddress",
      "outputs": [
        {
          "internalType": "address",
          "name": "",
          "type": "address"
        }
      ],
      "stateMutability": "view",
      "type": "function"
    },
    {
      "inputs": [],
      "name": "owner",
      "outputs": [
        {
          "internalType": "address",
          "name": "",
          "type": "address"
        }
      ],
      "stateMutability": "view",
      "type": "function"
    },
    {
      "inputs": [],
      "name": "renounceOwnership",
      "outputs": [],
      "stateMutability": "nonpayable",
      "type": "function"
    },
    {
      "inputs": [
        {
          "internalType": "address",
          "name": "lendingPool",
          "type": "address"
        },
        {
          "internalType": "uint256",
          "name": "amount",
          "type": "uint256"
        },
        {
          "internalType": "uint256",
          "name": "rateMode",
          "type": "uint256"
        },
        {
          "internalType": "address",
          "name": "onBehalfOf",
          "type": "address"
        }
      ],
      "name": "repayETH",
      "outputs": [],
      "stateMutability": "payable",
      "type": "function"
    },
    {
      "inputs": [
        {
          "internalType": "address",
          "name": "newOwner",
          "type": "address"
        }
      ],
      "name": "transferOwnership",
      "outputs": [],
      "stateMutability": "nonpayable",
      "type": "function"
    },
    {
      "inputs": [
        {
          "internalType": "address",
          "name": "lendingPool",
          "type": "address"
        },
        {
          "internalType": "uint256",
          "name": "amount",
          "type": "uint256"
        },
        {
          "internalType": "address",
          "name": "to",
          "type": "address"
        }
      ],
      "name": "withdrawETH",
      "outputs": [],
      "stateMutability": "nonpayable",
      "type": "function"
    },
    {
      "inputs": [
        {
          "internalType": "address",
          "name": "lendingPool",
          "type": "address"
        },
        {
          "internalType": "uint256",
          "name": "amount",
          "type": "uint256"
        },
        {
          "internalType": "address",
          "name": "to",
          "type": "address"
        },
        {
          "internalType": "uint256",
          "name": "deadline",
          "type": "uint256"
        },
        {
          "internalType": "uint8",
          "name": "permitV",
          "type": "uint8"
        },
        {
          "internalType": "bytes32",
          "name": "permitR",
          "type": "bytes32"
        },
        {
          "internalType": "bytes32",
          "name": "permitS",
          "type": "bytes32"
        }
      ],
      "name": "withdrawETHWithPermit",
      "outputs": [],
      "stateMutability": "nonpayable",
      "type": "function"
    },
    {
      "stateMutability": "payable",
      "type": "receive"
    }
  ],
  "bytecode": "0x60a060405234801561001057600080fd5b50604051611a1f380380611a1f83398101604081905261002f9161009c565b6000610039610098565b600080546001600160a01b0319166001600160a01b0383169081178255604051929350917f8be0079c531659141344cd1fd0a4f28419497f9722a3daafe3b4186f6b6457e0908290a35060601b6001600160601b0319166080526100ca565b3390565b6000602082840312156100ad578081fd5b81516001600160a01b03811681146100c3578182fd5b9392505050565b60805160601c6118ee6101316000398060bb528061028e528061037b528061041152806104b1528061054752806105c7528061063e528061075d528061091152806109a75280610ae65280610b2f5280610d4d5280610de35280610fa552506118ee6000f3fe6080604052600436106100ab5760003560e01c8063a3d5b25511610064578063a3d5b255146101c1578063affa8817146101e1578063d4c40b6c146101f6578063eed88b8d14610216578063f2fde38b14610236578063fd1495291461025657610103565b806302c5fcf81461011b578063474cf53d1461012e57806366514c9714610141578063715018a61461016157806380500d20146101765780638da5cb5b1461019657610103565b3661010357336001600160a01b037f000000000000000000000000000000000000000000000000000000000000000016146101015760405162461bcd60e51b81526004016100f89061178b565b60405180910390fd5b005b60405162461bcd60e51b81526004016100f890611717565b6101016101293660046113d0565b610276565b61010161013c36600461126f565b6104af565b34801561014d57600080fd5b5061010161015c366004611419565b6105a3565b34801561016d57600080fd5b506101016106b7565b34801561018257600080fd5b5061010161019136600461132a565b610736565b3480156101a257600080fd5b506101ab610a20565b6040516101b891906115d6565b60405180910390f35b3480156101cd57600080fd5b506101016101dc3660046112bf565b610a2f565b3480156101ed57600080fd5b506101ab610ae4565b34801561020257600080fd5b50610101610211366004611360565b610b08565b34801561022257600080fd5b506101016102313660046112ff565b610e60565b34801561024257600080fd5b5061010161025136600461124c565b610ea3565b34801561026257600080fd5b5061010161027136600461124c565b610f59565b60008061031f83876001600160a01b03166335ea6a757f00000000000000000000000000000000000000000000000000000000000000006040518263ffffffff1660e01b81526004016102c991906115d6565b6101a06040518083038186803b1580156102e257600080fd5b505afa1580156102f6573d6000803e3d6000fd5b505050506040513d601f19601f8201168201806040525081019061031a919061147d565b611030565b90925090506000600185600281111561033457fe5b600281111561033f57fe5b1461034a578161034c565b825b9050808610156103595750845b803410156103795760405162461bcd60e51b81526004016100f89061181a565b7f00000000000000000000000000000000000000000000000000000000000000006001600160a01b031663d0e30db0826040518263ffffffff1660e01b81526004016000604051808303818588803b1580156103d457600080fd5b505af11580156103e8573d6000803e3d6000fd5b505060405163573ade8160e01b81526001600160a01b038b16935063573ade81925061043f91507f00000000000000000000000000000000000000000000000000000000000000009034908a908a906004016116b8565b602060405180830381600087803b15801561045957600080fd5b505af115801561046d573d6000803e3d6000fd5b505050506040513d601f19601f820116820180604052508101906104919190611585565b50803411156104a6576104a633823403611140565b50505050505050565b7f00000000000000000000000000000000000000000000000000000000000000006001600160a01b031663d0e30db0346040518263ffffffff1660e01b81526004016000604051808303818588803b15801561050a57600080fd5b505af115801561051e573d6000803e3d6000fd5b505060405163e8eda9df60e01b81526001600160a01b038716935063e8eda9df925061057591507f00000000000000000000000000000000000000000000000000000000000000009034908790879060040161168b565b600060405180830381600087803b15801561058f57600080fd5b505af11580156104a6573d6000803e3d6000fd5b60405163a415bcad60e01b81526001600160a01b0385169063a415bcad906105f7907f00000000000000000000000000000000000000000000000000000000000000009087908790879033906004016116e3565b600060405180830381600087803b15801561061157600080fd5b505af1158015610625573d6000803e3d6000fd5b5050604051632e1a7d4d60e01b81526001600160a01b037f0000000000000000000000000000000000000000000000000000000000000000169250632e1a7d4d9150610675908690600401611861565b600060405180830381600087803b15801561068f57600080fd5b505af11580156106a3573d6000803e3d6000fd5b505050506106b13384611140565b50505050565b6106bf6111d2565b6000546001600160a01b039081169116146106ec5760405162461bcd60e51b81526004016100f8906117b8565b600080546040516001600160a01b03909116907f8be0079c531659141344cd1fd0a4f28419497f9722a3daafe3b4186f6b6457e0908390a3600080546001600160a01b0319169055565b6040516335ea6a7560e01b81526000906001600160a01b038516906335ea6a7590610785907f0000000000000000000000000000000000000000000000000000000000000000906004016115d6565b6101a06040518083038186803b15801561079e57600080fd5b505afa1580156107b2573d6000803e3d6000fd5b505050506040513d601f19601f820116820180604052508101906107d6919061147d565b60e0015190506000816001600160a01b03166370a08231336040518263ffffffff1660e01b815260040161080a91906115d6565b60206040518083038186803b15801561082257600080fd5b505afa158015610836573d6000803e3d6000fd5b505050506040513d601f19601f8201168201806040525081019061085a9190611585565b90508360001981141561086a5750805b6040516323b872dd60e01b81526001600160a01b038416906323b872dd9061089a903390309086906004016115ea565b602060405180830381600087803b1580156108b457600080fd5b505af11580156108c8573d6000803e3d6000fd5b505050506040513d601f19601f820116820180604052508101906108ec919061145d565b50604051631a4ca37b60e21b81526001600160a01b038716906369328dec9061093d907f00000000000000000000000000000000000000000000000000000000000000009085903090600401611668565b602060405180830381600087803b15801561095757600080fd5b505af115801561096b573d6000803e3d6000fd5b505050506040513d601f19601f8201168201806040525081019061098f9190611585565b50604051632e1a7d4d60e01b81526001600160a01b037f00000000000000000000000000000000000000000000000000000000000000001690632e1a7d4d906109dc908490600401611861565b600060405180830381600087803b1580156109f657600080fd5b505af1158015610a0a573d6000803e3d6000fd5b50505050610a188482611140565b505050505050565b6000546001600160a01b031690565b610a376111d2565b6000546001600160a01b03908116911614610a645760405162461bcd60e51b81526004016100f8906117b8565b60405163a9059cbb60e01b81526001600160a01b0384169063a9059cbb90610a92908590859060040161164f565b602060405180830381600087803b158015610aac57600080fd5b505af1158015610ac0573d6000803e3d6000fd5b505050506040513d601f19601f820116820180604052508101906106b1919061145d565b7f000000000000000000000000000000000000000000000000000000000000000090565b6040516335ea6a7560e01b81526000906001600160a01b038916906335ea6a7590610b57907f0000000000000000000000000000000000000000000000000000000000000000906004016115d6565b6101a06040518083038186803b158015610b7057600080fd5b505afa158015610b84573d6000803e3d6000fd5b505050506040513d601f19601f82011682018060405250810190610ba8919061147d565b60e0015190506000816001600160a01b03166370a08231336040518263ffffffff1660e01b8152600401610bdc91906115d6565b60206040518083038186803b158015610bf457600080fd5b505afa158015610c08573d6000803e3d6000fd5b505050506040513d601f19601f82011682018060405250810190610c2c9190611585565b905087600019811415610c3c5750805b60405163d505accf60e01b81526001600160a01b0384169063d505accf90610c7490339030908e908d908d908d908d9060040161160e565b600060405180830381600087803b158015610c8e57600080fd5b505af1158015610ca2573d6000803e3d6000fd5b50506040516323b872dd60e01b81526001600160a01b03861692506323b872dd9150610cd6903390309086906004016115ea565b602060405180830381600087803b158015610cf057600080fd5b505af1158015610d04573d6000803e3d6000fd5b505050506040513d601f19601f82011682018060405250810190610d28919061145d565b50604051631a4ca37b60e21b81526001600160a01b038b16906369328dec90610d79907f00000000000000000000000000000000000000000000000000000000000000009085903090600401611668565b602060405180830381600087803b158015610d9357600080fd5b505af1158015610da7573d6000803e3d6000fd5b505050506040513d601f19601f82011682018060405250810190610dcb9190611585565b50604051632e1a7d4d60e01b81526001600160a01b037f00000000000000000000000000000000000000000000000000000000000000001690632e1a7d4d90610e18908490600401611861565b600060405180830381600087803b158015610e3257600080fd5b505af1158015610e46573d6000803e3d6000fd5b50505050610e548882611140565b50505050505050505050565b610e686111d2565b6000546001600160a01b03908116911614610e955760405162461bcd60e51b81526004016100f8906117b8565b610e9f8282611140565b5050565b610eab6111d2565b6000546001600160a01b03908116911614610ed85760405162461bcd60e51b81526004016100f8906117b8565b6001600160a01b038116610efe5760405162461bcd60e51b81526004016100f890611745565b600080546040516001600160a01b03808516939216917f8be0079c531659141344cd1fd0a4f28419497f9722a3daafe3b4186f6b6457e091a3600080546001600160a01b0319166001600160a01b0392909216919091179055565b610f616111d2565b6000546001600160a01b03908116911614610f8e5760405162461bcd60e51b81526004016100f8906117b8565b60405163095ea7b360e01b81526001600160a01b037f0000000000000000000000000000000000000000000000000000000000000000169063095ea7b390610fde9084906000199060040161164f565b602060405180830381600087803b158015610ff857600080fd5b505af115801561100c573d6000803e3d6000fd5b505050506040513d601f19601f82011682018060405250810190610e9f919061145d565b6000808261010001516001600160a01b03166370a08231856040518263ffffffff1660e01b815260040161106491906115d6565b60206040518083038186803b15801561107c57600080fd5b505afa158015611090573d6000803e3d6000fd5b505050506040513d601f19601f820116820180604052508101906110b49190611585565b8361012001516001600160a01b03166370a08231866040518263ffffffff1660e01b81526004016110e591906115d6565b60206040518083038186803b1580156110fd57600080fd5b505afa158015611111573d6000803e3d6000fd5b505050506040513d601f19601f820116820180604052508101906111359190611585565b915091509250929050565b604080516000808252602082019092526001600160a01b03841690839060405161116a919061159d565b60006040518083038185875af1925050503d80600081146111a7576040519150601f19603f3d011682016040523d82523d6000602084013e6111ac565b606091505b50509050806111cd5760405162461bcd60e51b81526004016100f8906117ed565b505050565b3390565b80516111e181611891565b92915050565b6000602082840312156111f8578081fd5b611202602061186a565b9151825250919050565b80516fffffffffffffffffffffffffffffffff811681146111e157600080fd5b805164ffffffffff811681146111e157600080fd5b80516111e1816118a9565b60006020828403121561125d578081fd5b813561126881611891565b9392505050565b600080600060608486031215611283578182fd5b833561128e81611891565b9250602084013561129e81611891565b9150604084013561ffff811681146112b4578182fd5b809150509250925092565b6000806000606084860312156112d3578283fd5b83356112de81611891565b925060208401356112ee81611891565b929592945050506040919091013590565b60008060408385031215611311578182fd5b823561131c81611891565b946020939093013593505050565b60008060006060848603121561133e578283fd5b833561134981611891565b92506020840135915060408401356112b481611891565b600080600080600080600060e0888a03121561137a578283fd5b873561138581611891565b965060208801359550604088013561139c81611891565b94506060880135935060808801356113b3816118a9565b9699959850939692959460a0840135945060c09093013592915050565b600080600080608085870312156113e5578384fd5b84356113f081611891565b93506020850135925060408501359150606085013561140e81611891565b939692955090935050565b6000806000806080858703121561142e578182fd5b843561143981611891565b93506020850135925060408501359150606085013561ffff8116811461140e578182fd5b60006020828403121561146e578081fd5b81518015158114611268578182fd5b60006101a0808385031215611490578182fd5b6114998161186a565b90506114a584846111e7565b81526114b4846020850161120c565b60208201526114c6846040850161120c565b60408201526114d8846060850161120c565b60608201526114ea846080850161120c565b60808201526114fc8460a0850161120c565b60a082015261150e8460c0850161122c565b60c08201526115208460e085016111d6565b60e0820152610100611534858286016111d6565b90820152610120611547858583016111d6565b9082015261014061155a858583016111d6565b9082015261016061156d85858301611241565b90820152610180928301519281019290925250919050565b600060208284031215611596578081fd5b5051919050565b60008251815b818110156115bd57602081860181015185830152016115a3565b818111156115cb5782828501525b509190910192915050565b6001600160a01b0391909116815260200190565b6001600160a01b039384168152919092166020820152604081019190915260600190565b6001600160a01b0397881681529590961660208601526040850193909352606084019190915260ff16608083015260a082015260c081019190915260e00190565b6001600160a01b03929092168252602082015260400190565b6001600160a01b0393841681526020810192909252909116604082015260600190565b6001600160a01b03948516815260208101939093529216604082015261ffff909116606082015260800190565b6001600160a01b03948516815260208101939093526040830191909152909116606082015260800190565b6001600160a01b0395861681526020810194909452604084019290925261ffff166060830152909116608082015260a00190565b60208082526014908201527311985b1b189858dac81b9bdd08185b1b1bddd95960621b604082015260600190565b60208082526026908201527f4f776e61626c653a206e6577206f776e657220697320746865207a65726f206160408201526564647265737360d01b606082015260800190565b602080825260139082015272149958d95a5d99481b9bdd08185b1b1bddd959606a1b604082015260600190565b6020808252818101527f4f776e61626c653a2063616c6c6572206973206e6f7420746865206f776e6572604082015260600190565b60208082526013908201527211551217d514905394d1915497d19052531151606a1b604082015260600190565b60208082526027908201527f6d73672e76616c7565206973206c657373207468616e2072657061796d656e7460408201526608185b5bdd5b9d60ca1b606082015260800190565b90815260200190565b60405181810167ffffffffffffffff8111828210171561188957600080fd5b604052919050565b6001600160a01b03811681146118a657600080fd5b50565b60ff811681146118a657600080fdfea2646970667358221220998b52c7bece1d258fe1b9ef65d84fe5d025a7ff93b4cf7cd2decc6d55656e2764736f6c634300060c0033",
  "linkReferences": {},
  "deployedLinkReferences": {}
}