{
  "_format": "hh-sol-artifact-1",
  "contractName": "LendingPoolConfigurator",
  "sourceName": "contracts/protocol/lendingpool/LendingPoolConfigurator.sol",
  "abi": [
    {
      "anonymous": false,
      "inputs": [
        {
          "indexed": true,
          "internalType": "address",
          "name": "asset",
          "type": "address"
        },
        {
          "indexed": true,
          "internalType": "address",
          "name": "proxy",
          "type": "address"
        },
        {
          "indexed": true,
          "internalType": "address",
          "name": "implementation",
          "type": "address"
        }
      ],
      "name": "ATokenUpgraded",
      "type": "event"
    },
    {
      "anonymous": false,
      "inputs": [
        {
          "indexed": true,
          "internalType": "address",
          "name": "asset",
          "type": "address"
        },
        {
          "indexed": false,
          "internalType": "uint256",
          "name": "borrowCap",
          "type": "uint256"
        }
      ],
      "name": "BorrowCapChanged",
      "type": "event"
    },
    {
      "anonymous": false,
      "inputs": [
        {
          "indexed": true,
          "internalType": "address",
          "name": "asset",
          "type": "address"
        }
      ],
      "name": "BorrowingDisabledOnReserve",
      "type": "event"
    },
    {
      "anonymous": false,
      "inputs": [
        {
          "indexed": true,
          "internalType": "address",
          "name": "asset",
          "type": "address"
        },
        {
          "indexed": false,
          "internalType": "bool",
          "name": "stableRateEnabled",
          "type": "bool"
        }
      ],
      "name": "BorrowingEnabledOnReserve",
      "type": "event"
    },
    {
      "anonymous": false,
      "inputs": [
        {
          "indexed": true,
          "internalType": "address",
          "name": "asset",
          "type": "address"
        },
        {
          "indexed": false,
          "internalType": "uint256",
          "name": "ltv",
          "type": "uint256"
        },
        {
          "indexed": false,
          "internalType": "uint256",
          "name": "liquidationThreshold",
          "type": "uint256"
        },
        {
          "indexed": false,
          "internalType": "uint256",
          "name": "liquidationBonus",
          "type": "uint256"
        }
      ],
      "name": "CollateralConfigurationChanged",
      "type": "event"
    },
    {
      "anonymous": false,
      "inputs": [
        {
          "indexed": true,
          "internalType": "address",
          "name": "flashBorrower",
          "type": "address"
        }
      ],
      "name": "FlashBorrowerAuthorized",
      "type": "event"
    },
    {
      "anonymous": false,
      "inputs": [
        {
          "indexed": true,
          "internalType": "address",
          "name": "flashBorrower",
          "type": "address"
        }
      ],
      "name": "FlashBorrowerUnauthorized",
      "type": "event"
    },
    {
      "anonymous": false,
      "inputs": [
        {
          "indexed": false,
          "internalType": "uint256",
          "name": "flashloanPremiumToProtocol",
          "type": "uint256"
        }
      ],
      "name": "FlashloanPremiumToProcolUpdated",
      "type": "event"
    },
    {
      "anonymous": false,
      "inputs": [
        {
          "indexed": false,
          "internalType": "uint256",
          "name": "flashloanPremiumTotal",
          "type": "uint256"
        }
      ],
      "name": "FlashloanPremiumTotalUpdated",
      "type": "event"
    },
    {
      "anonymous": false,
      "inputs": [
        {
          "indexed": true,
          "internalType": "address",
          "name": "asset",
          "type": "address"
        }
      ],
      "name": "ReserveActivated",
      "type": "event"
    },
    {
      "anonymous": false,
      "inputs": [
        {
          "indexed": true,
          "internalType": "address",
          "name": "asset",
          "type": "address"
        }
      ],
      "name": "ReserveDeactivated",
      "type": "event"
    },
    {
      "anonymous": false,
      "inputs": [
        {
          "indexed": true,
          "internalType": "address",
          "name": "asset",
          "type": "address"
        },
        {
          "indexed": false,
          "internalType": "uint256",
          "name": "decimals",
          "type": "uint256"
        }
      ],
      "name": "ReserveDecimalsChanged",
      "type": "event"
    },
    {
      "anonymous": false,
      "inputs": [
        {
          "indexed": true,
          "internalType": "address",
          "name": "asset",
          "type": "address"
        }
      ],
      "name": "ReserveDropped",
      "type": "event"
    },
    {
      "anonymous": false,
      "inputs": [
        {
          "indexed": true,
          "internalType": "address",
          "name": "asset",
          "type": "address"
        },
        {
          "indexed": false,
          "internalType": "uint256",
          "name": "factor",
          "type": "uint256"
        }
      ],
      "name": "ReserveFactorChanged",
      "type": "event"
    },
    {
      "anonymous": false,
      "inputs": [
        {
          "indexed": true,
          "internalType": "address",
          "name": "asset",
          "type": "address"
        }
      ],
      "name": "ReserveFrozen",
      "type": "event"
    },
    {
      "anonymous": false,
      "inputs": [
        {
          "indexed": true,
          "internalType": "address",
          "name": "asset",
          "type": "address"
        },
        {
          "indexed": true,
          "internalType": "address",
          "name": "aToken",
          "type": "address"
        },
        {
          "indexed": false,
          "internalType": "address",
          "name": "stableDebtToken",
          "type": "address"
        },
        {
          "indexed": false,
          "internalType": "address",
          "name": "variableDebtToken",
          "type": "address"
        },
        {
          "indexed": false,
          "internalType": "address",
          "name": "interestRateStrategyAddress",
          "type": "address"
        }
      ],
      "name": "ReserveInitialized",
      "type": "event"
    },
    {
      "anonymous": false,
      "inputs": [
        {
          "indexed": true,
          "internalType": "address",
          "name": "asset",
          "type": "address"
        },
        {
          "indexed": false,
          "internalType": "address",
          "name": "strategy",
          "type": "address"
        }
      ],
      "name": "ReserveInterestRateStrategyChanged",
      "type": "event"
    },
    {
      "anonymous": false,
      "inputs": [
        {
          "indexed": true,
          "internalType": "address",
          "name": "asset",
          "type": "address"
        }
      ],
      "name": "ReservePaused",
      "type": "event"
    },
    {
      "anonymous": false,
      "inputs": [
        {
          "indexed": true,
          "internalType": "address",
          "name": "asset",
          "type": "address"
        }
      ],
      "name": "ReserveUnfrozen",
      "type": "event"
    },
    {
      "anonymous": false,
      "inputs": [
        {
          "indexed": true,
          "internalType": "address",
          "name": "asset",
          "type": "address"
        }
      ],
      "name": "ReserveUnpaused",
      "type": "event"
    },
    {
      "anonymous": false,
      "inputs": [
        {
          "indexed": true,
          "internalType": "address",
          "name": "admin",
          "type": "address"
        }
      ],
      "name": "RiskAdminRegistered",
      "type": "event"
    },
    {
      "anonymous": false,
      "inputs": [
        {
          "indexed": true,
          "internalType": "address",
          "name": "admin",
          "type": "address"
        }
      ],
      "name": "RiskAdminUnregistered",
      "type": "event"
    },
    {
      "anonymous": false,
      "inputs": [
        {
          "indexed": true,
          "internalType": "address",
          "name": "asset",
          "type": "address"
        },
        {
          "indexed": true,
          "internalType": "address",
          "name": "proxy",
          "type": "address"
        },
        {
          "indexed": true,
          "internalType": "address",
          "name": "implementation",
          "type": "address"
        }
      ],
      "name": "StableDebtTokenUpgraded",
      "type": "event"
    },
    {
      "anonymous": false,
      "inputs": [
        {
          "indexed": true,
          "internalType": "address",
          "name": "asset",
          "type": "address"
        }
      ],
      "name": "StableRateDisabledOnReserve",
      "type": "event"
    },
    {
      "anonymous": false,
      "inputs": [
        {
          "indexed": true,
          "internalType": "address",
          "name": "asset",
          "type": "address"
        }
      ],
      "name": "StableRateEnabledOnReserve",
      "type": "event"
    },
    {
      "anonymous": false,
      "inputs": [
        {
          "indexed": true,
          "internalType": "address",
          "name": "asset",
          "type": "address"
        },
        {
          "indexed": false,
          "internalType": "uint256",
          "name": "supplyCap",
          "type": "uint256"
        }
      ],
      "name": "SupplyCapChanged",
      "type": "event"
    },
    {
      "anonymous": false,
      "inputs": [
        {
          "indexed": true,
          "internalType": "address",
          "name": "asset",
          "type": "address"
        },
        {
          "indexed": true,
          "internalType": "address",
          "name": "proxy",
          "type": "address"
        },
        {
          "indexed": true,
          "internalType": "address",
          "name": "implementation",
          "type": "address"
        }
      ],
      "name": "VariableDebtTokenUpgraded",
      "type": "event"
    },
    {
      "inputs": [
        {
          "internalType": "address",
          "name": "asset",
          "type": "address"
        }
      ],
      "name": "activateReserve",
      "outputs": [],
      "stateMutability": "nonpayable",
      "type": "function"
    },
    {
      "inputs": [
        {
          "internalType": "address",
          "name": "flashBorrower",
          "type": "address"
        }
      ],
      "name": "authorizeFlashBorrower",
      "outputs": [],
      "stateMutability": "nonpayable",
      "type": "function"
    },
    {
      "inputs": [
        {
          "components": [
            {
              "internalType": "address",
              "name": "aTokenImpl",
              "type": "address"
            },
            {
              "internalType": "address",
              "name": "stableDebtTokenImpl",
              "type": "address"
            },
            {
              "internalType": "address",
              "name": "variableDebtTokenImpl",
              "type": "address"
            },
            {
              "internalType": "uint8",
              "name": "underlyingAssetDecimals",
              "type": "uint8"
            },
            {
              "internalType": "address",
              "name": "interestRateStrategyAddress",
              "type": "address"
            },
            {
              "internalType": "address",
              "name": "underlyingAsset",
              "type": "address"
            },
            {
              "internalType": "address",
              "name": "treasury",
              "type": "address"
            },
            {
              "internalType": "address",
              "name": "incentivesController",
              "type": "address"
            },
            {
              "internalType": "string",
              "name": "underlyingAssetName",
              "type": "string"
            },
            {
              "internalType": "string",
              "name": "aTokenName",
              "type": "string"
            },
            {
              "internalType": "string",
              "name": "aTokenSymbol",
              "type": "string"
            },
            {
              "internalType": "string",
              "name": "variableDebtTokenName",
              "type": "string"
            },
            {
              "internalType": "string",
              "name": "variableDebtTokenSymbol",
              "type": "string"
            },
            {
              "internalType": "string",
              "name": "stableDebtTokenName",
              "type": "string"
            },
            {
              "internalType": "string",
              "name": "stableDebtTokenSymbol",
              "type": "string"
            },
            {
              "internalType": "bytes",
              "name": "params",
              "type": "bytes"
            }
          ],
          "internalType": "struct ILendingPoolConfigurator.InitReserveInput[]",
          "name": "input",
          "type": "tuple[]"
        }
      ],
      "name": "batchInitReserve",
      "outputs": [],
      "stateMutability": "nonpayable",
      "type": "function"
    },
    {
      "inputs": [
        {
          "internalType": "address",
          "name": "asset",
          "type": "address"
        },
        {
          "internalType": "uint256",
          "name": "ltv",
          "type": "uint256"
        },
        {
          "internalType": "uint256",
          "name": "liquidationThreshold",
          "type": "uint256"
        },
        {
          "internalType": "uint256",
          "name": "liquidationBonus",
          "type": "uint256"
        }
      ],
      "name": "configureReserveAsCollateral",
      "outputs": [],
      "stateMutability": "nonpayable",
      "type": "function"
    },
    {
      "inputs": [
        {
          "internalType": "address",
          "name": "asset",
          "type": "address"
        }
      ],
      "name": "deactivateReserve",
      "outputs": [],
      "stateMutability": "nonpayable",
      "type": "function"
    },
    {
      "inputs": [
        {
          "internalType": "address",
          "name": "asset",
          "type": "address"
        }
      ],
      "name": "disableBorrowingOnReserve",
      "outputs": [],
      "stateMutability": "nonpayable",
      "type": "function"
    },
    {
      "inputs": [
        {
          "internalType": "address",
          "name": "asset",
          "type": "address"
        }
      ],
      "name": "disableReserveStableRate",
      "outputs": [],
      "stateMutability": "nonpayable",
      "type": "function"
    },
    {
      "inputs": [
        {
          "internalType": "address",
          "name": "asset",
          "type": "address"
        }
      ],
      "name": "dropReserve",
      "outputs": [],
      "stateMutability": "nonpayable",
      "type": "function"
    },
    {
      "inputs": [
        {
          "internalType": "address",
          "name": "asset",
          "type": "address"
        },
        {
          "internalType": "uint256",
          "name": "borrowCap",
          "type": "uint256"
        },
        {
          "internalType": "bool",
          "name": "stableBorrowRateEnabled",
          "type": "bool"
        }
      ],
      "name": "enableBorrowingOnReserve",
      "outputs": [],
      "stateMutability": "nonpayable",
      "type": "function"
    },
    {
      "inputs": [
        {
          "internalType": "address",
          "name": "asset",
          "type": "address"
        }
      ],
      "name": "enableReserveStableRate",
      "outputs": [],
      "stateMutability": "nonpayable",
      "type": "function"
    },
    {
      "inputs": [
        {
          "internalType": "address",
          "name": "asset",
          "type": "address"
        }
      ],
      "name": "freezeReserve",
      "outputs": [],
      "stateMutability": "nonpayable",
      "type": "function"
    },
    {
      "inputs": [
        {
          "internalType": "contract ILendingPoolAddressesProvider",
          "name": "provider",
          "type": "address"
        }
      ],
      "name": "initialize",
      "outputs": [],
      "stateMutability": "nonpayable",
      "type": "function"
    },
    {
      "inputs": [
        {
          "internalType": "address",
          "name": "admin",
          "type": "address"
        }
      ],
      "name": "isRiskAdmin",
      "outputs": [
        {
          "internalType": "bool",
          "name": "",
          "type": "bool"
        }
      ],
      "stateMutability": "view",
      "type": "function"
    },
    {
      "inputs": [
        {
          "internalType": "address",
          "name": "admin",
          "type": "address"
        }
      ],
      "name": "registerRiskAdmin",
      "outputs": [],
      "stateMutability": "nonpayable",
      "type": "function"
    },
    {
      "inputs": [
        {
          "internalType": "address",
          "name": "asset",
          "type": "address"
        },
        {
          "internalType": "uint256",
          "name": "borrowCap",
          "type": "uint256"
        }
      ],
      "name": "setBorrowCap",
      "outputs": [],
      "stateMutability": "nonpayable",
      "type": "function"
    },
    {
      "inputs": [
        {
          "internalType": "bool",
          "name": "paused",
          "type": "bool"
        }
      ],
      "name": "setPoolPause",
      "outputs": [],
      "stateMutability": "nonpayable",
      "type": "function"
    },
    {
      "inputs": [
        {
          "internalType": "address",
          "name": "asset",
          "type": "address"
        },
        {
          "internalType": "uint256",
          "name": "reserveFactor",
          "type": "uint256"
        }
      ],
      "name": "setReserveFactor",
      "outputs": [],
      "stateMutability": "nonpayable",
      "type": "function"
    },
    {
      "inputs": [
        {
          "internalType": "address",
          "name": "asset",
          "type": "address"
        },
        {
          "internalType": "address",
          "name": "rateStrategyAddress",
          "type": "address"
        }
      ],
      "name": "setReserveInterestRateStrategyAddress",
      "outputs": [],
      "stateMutability": "nonpayable",
      "type": "function"
    },
    {
      "inputs": [
        {
          "internalType": "address",
          "name": "asset",
          "type": "address"
        },
        {
          "internalType": "bool",
          "name": "paused",
          "type": "bool"
        }
      ],
      "name": "setReservePause",
      "outputs": [],
      "stateMutability": "nonpayable",
      "type": "function"
    },
    {
      "inputs": [
        {
          "internalType": "address",
          "name": "asset",
          "type": "address"
        },
        {
          "internalType": "uint256",
          "name": "supplyCap",
          "type": "uint256"
        }
      ],
      "name": "setSupplyCap",
      "outputs": [],
      "stateMutability": "nonpayable",
      "type": "function"
    },
    {
      "inputs": [
        {
          "internalType": "address",
          "name": "flashBorrower",
          "type": "address"
        }
      ],
      "name": "unauthorizeFlashBorrower",
      "outputs": [],
      "stateMutability": "nonpayable",
      "type": "function"
    },
    {
      "inputs": [
        {
          "internalType": "address",
          "name": "asset",
          "type": "address"
        }
      ],
      "name": "unfreezeReserve",
      "outputs": [],
      "stateMutability": "nonpayable",
      "type": "function"
    },
    {
      "inputs": [
        {
          "internalType": "address",
          "name": "admin",
          "type": "address"
        }
      ],
      "name": "unregisterRiskAdmin",
      "outputs": [],
      "stateMutability": "nonpayable",
      "type": "function"
    },
    {
      "inputs": [
        {
          "components": [
            {
              "internalType": "address",
              "name": "asset",
              "type": "address"
            },
            {
              "internalType": "address",
              "name": "treasury",
              "type": "address"
            },
            {
              "internalType": "address",
              "name": "incentivesController",
              "type": "address"
            },
            {
              "internalType": "string",
              "name": "name",
              "type": "string"
            },
            {
              "internalType": "string",
              "name": "symbol",
              "type": "string"
            },
            {
              "internalType": "address",
              "name": "implementation",
              "type": "address"
            },
            {
              "internalType": "bytes",
              "name": "params",
              "type": "bytes"
            }
          ],
          "internalType": "struct ILendingPoolConfigurator.UpdateATokenInput",
          "name": "input",
          "type": "tuple"
        }
      ],
      "name": "updateAToken",
      "outputs": [],
      "stateMutability": "nonpayable",
      "type": "function"
    },
    {
      "inputs": [
        {
          "internalType": "uint256",
          "name": "flashloanPremiumToProtocol",
          "type": "uint256"
        }
      ],
      "name": "updateFlashloanPremiumToProtocol",
      "outputs": [],
      "stateMutability": "nonpayable",
      "type": "function"
    },
    {
      "inputs": [
        {
          "internalType": "uint256",
          "name": "flashloanPremiumTotal",
          "type": "uint256"
        }
      ],
      "name": "updateFlashloanPremiumTotal",
      "outputs": [],
      "stateMutability": "nonpayable",
      "type": "function"
    },
    {
      "inputs": [
        {
          "components": [
            {
              "internalType": "address",
              "name": "asset",
              "type": "address"
            },
            {
              "internalType": "address",
              "name": "incentivesController",
              "type": "address"
            },
            {
              "internalType": "string",
              "name": "name",
              "type": "string"
            },
            {
              "internalType": "string",
              "name": "symbol",
              "type": "string"
            },
            {
              "internalType": "address",
              "name": "implementation",
              "type": "address"
            },
            {
              "internalType": "bytes",
              "name": "params",
              "type": "bytes"
            }
          ],
          "internalType": "struct ILendingPoolConfigurator.UpdateDebtTokenInput",
          "name": "input",
          "type": "tuple"
        }
      ],
      "name": "updateStableDebtToken",
      "outputs": [],
      "stateMutability": "nonpayable",
      "type": "function"
    },
    {
      "inputs": [
        {
          "components": [
            {
              "internalType": "address",
              "name": "asset",
              "type": "address"
            },
            {
              "internalType": "address",
              "name": "incentivesController",
              "type": "address"
            },
            {
              "internalType": "string",
              "name": "name",
              "type": "string"
            },
            {
              "internalType": "string",
              "name": "symbol",
              "type": "string"
            },
            {
              "internalType": "address",
              "name": "implementation",
              "type": "address"
            },
            {
              "internalType": "bytes",
              "name": "params",
              "type": "bytes"
            }
          ],
          "internalType": "struct ILendingPoolConfigurator.UpdateDebtTokenInput",
          "name": "input",
          "type": "tuple"
        }
      ],
      "name": "updateVariableDebtToken",
      "outputs": [],
      "stateMutability": "nonpayable",
      "type": "function"
    }
  ],
  "bytecode": "0x60806040526000805534801561001457600080fd5b50615b1980620000256000396000f3fe60806040523480156200001157600080fd5b5060043610620001f05760003560e01c80637aca76eb1162000111578063bf34418311620000a5578063cef84c51116200007b578063cef84c511462000437578063d14a0983146200044e578063ef1f93731462000465578063f53a2515146200047c57620001f0565b8063bf34418314620003f2578063c22f72831462000409578063c4d66de8146200042057620001f0565b8063a8dc0f4511620000e7578063a8dc0f451462000396578063ad4e643214620003ad578063b75d6f3414620003c4578063bb01c37c14620003db57620001f0565b80637aca76eb14620003515780637c4e560b14620003685780638267795c146200037f57620001f0565b806350262fca116200018957806363c9b860116200015f57806363c9b86014620002dd578063674b5e4d14620002f45780637626cde314620003235780637641f3d9146200033a57620001f0565b806350262fca146200029857806352c72de714620002af578063571f03e514620002c657620001f0565b80634431918311620001cb57806344319183146200023c57806348d9fba914620002535780634b4e6753146200026a5780634bb748e3146200028157620001f0565b8063165a91c414620001f55780631d2118f9146200020e5780633e72a4541462000225575b600080fd5b6200020c6200020636600462004eb5565b62000493565b005b6200020c6200021f36600462004a92565b62000785565b6200020c6200023636600462004a4d565b62000916565b6200020c6200024d36600462004b32565b62000b28565b6200020c6200026436600462004acf565b62000d73565b6200020c6200027b36600462004b04565b6200104e565b6200020c6200029236600462004a4d565b6200127f565b6200020c620002a936600462004a4d565b620013e6565b6200020c620002c036600462004eb5565b6200154d565b6200020c620002d736600462004b04565b6200182b565b6200020c620002ee36600462004a4d565b62001a4f565b6200030b6200030536600462004a4d565b62001bb3565b6040516200031a919062005063565b60405180910390f35b6200020c6200033436600462004e7a565b62001caf565b6200020c6200034b36600462004cdf565b62002002565b6200020c6200036236600462004a4d565b620021b5565b6200020c6200037936600462004b78565b620023d7565b6200020c6200039036600462004a4d565b62002748565b6200020c620003a736600462004a4d565b62002858565b6200020c620003be36600462004e7a565b62002a7a565b6200020c620003d536600462004a4d565b62002d4e565b6200020c620003ec36600462004e3f565b62002f55565b6200020c6200040336600462004a4d565b6200323d565b6200020c6200041a36600462004a4d565b6200345f565b6200020c6200043136600462004a4d565b62003572565b6200020c6200044836600462004c6b565b620036b2565b6200020c6200045f36600462004b04565b620037cc565b6200020c6200047636600462004a4d565b620039f0565b6200020c6200048d36600462004a4d565b62003c12565b603454604080516315d9b46f60e31b8152905133926001600160a01b03169163aecda378916004808301926020929190829003018186803b158015620004d857600080fd5b505afa158015620004ed573d6000803e3d6000fd5b505050506040513d601f19601f8201168201806040525081019062000513919062004a73565b6001600160a01b03161460405180604001604052806002815260200161333360f01b81525090620005625760405162461bcd60e51b8152600401620005599190620051f9565b60405180910390fd5b506040805180820190915260028152611c9b60f11b60208201526127108210620005a15760405162461bcd60e51b8152600401620005599190620051f9565b50603560009054906101000a90046001600160a01b03166001600160a01b031663074b2e436040518163ffffffff1660e01b815260040160206040518083038186803b158015620005f157600080fd5b505afa15801562000606573d6000803e3d6000fd5b505050506040513d601f19601f820116820180604052508101906200062c919062004ece565b81111560405180604001604052806002815260200161393560f01b815250906200066b5760405162461bcd60e51b8152600401620005599190620051f9565b506035546040805163074b2e4360e01b815290516001600160a01b0390921691631b350b9b91839163074b2e4391600480820192602092909190829003018186803b158015620006ba57600080fd5b505afa158015620006cf573d6000803e3d6000fd5b505050506040513d601f19601f82011682018060405250810190620006f5919062004ece565b836040518363ffffffff1660e01b81526004016200071592919062005265565b600060405180830381600087803b1580156200073057600080fd5b505af115801562000745573d6000803e3d6000fd5b505050507faa87d43221210ae18ad68abcff364c4984057aca021a652a4fd8b1e95a1ac9e4816040516200077a91906200525c565b60405180910390a150565b3360009081526036602052604090205460ff16806200082a5750603454604080516315d9b46f60e31b8152905133926001600160a01b03169163aecda378916004808301926020929190829003018186803b158015620007e457600080fd5b505afa158015620007f9573d6000803e3d6000fd5b505050506040513d601f19601f820116820180604052508101906200081f919062004a73565b6001600160a01b0316145b60405180604001604052806002815260200161383760f01b81525090620008665760405162461bcd60e51b8152600401620005599190620051f9565b50603554604051631d2118f960e01b81526001600160a01b0390911690631d2118f9906200089b908590859060040162004f92565b600060405180830381600087803b158015620008b657600080fd5b505af1158015620008cb573d6000803e3d6000fd5b50505050816001600160a01b03167f5644b64ebb0ce18c4032248ca52f58355469092ff072866c3dcd8640e817d6a5826040516200090a919062004f7e565b60405180910390a25050565b603454604080516315d9b46f60e31b8152905133926001600160a01b03169163aecda378916004808301926020929190829003018186803b1580156200095b57600080fd5b505afa15801562000970573d6000803e3d6000fd5b505050506040513d601f19601f8201168201806040525081019062000996919062004a73565b6001600160a01b03161460405180604001604052806002815260200161333360f01b81525090620009dc5760405162461bcd60e51b8152600401620005599190620051f9565b50620009e88162003e34565b620009f262004947565b60355460405163c44b11f760e01b81526001600160a01b039091169063c44b11f79062000a2490859060040162004f7e565b60206040518083038186803b15801562000a3d57600080fd5b505afa15801562000a52573d6000803e3d6000fd5b505050506040513d601f19601f8201168201806040525081019062000a78919062004cfe565b905062000a8781600062003fa7565b6035548151604051635c69493b60e11b81526001600160a01b039092169163b8d292769162000abc918691906004016200504a565b600060405180830381600087803b15801562000ad757600080fd5b505af115801562000aec573d6000803e3d6000fd5b50506040516001600160a01b03851692507f6f60cf8bd0f218cabe1ea3150bd07b0b758c35c4cfdf7138017a283e65564d5e9150600090a25050565b3360009081526036602052604090205460ff168062000bcd5750603454604080516315d9b46f60e31b8152905133926001600160a01b03169163aecda378916004808301926020929190829003018186803b15801562000b8757600080fd5b505afa15801562000b9c573d6000803e3d6000fd5b505050506040513d601f19601f8201168201806040525081019062000bc2919062004a73565b6001600160a01b0316145b60405180604001604052806002815260200161383760f01b8152509062000c095760405162461bcd60e51b8152600401620005599190620051f9565b5062000c1462004947565b60355460405163c44b11f760e01b81526001600160a01b039091169063c44b11f79062000c4690879060040162004f7e565b60206040518083038186803b15801562000c5f57600080fd5b505afa15801562000c74573d6000803e3d6000fd5b505050506040513d601f19601f8201168201806040525081019062000c9a919062004cfe565b905062000ca981600162003fd7565b62000cb5818462004007565b62000cc1818362004062565b6035548151604051635c69493b60e11b81526001600160a01b039092169163b8d292769162000cf6918891906004016200504a565b600060405180830381600087803b15801562000d1157600080fd5b505af115801562000d26573d6000803e3d6000fd5b50505050836001600160a01b03167fab2f7f9e5ca2772fafa94f355c1842a80ae6b9e41f83083098d81f67d7a0b5088360405162000d65919062005063565b60405180910390a250505050565b60345460408051636ee554f560e11b8152905133926001600160a01b03169163ddcaa9ea916004808301926020929190829003018186803b15801562000db857600080fd5b505afa15801562000dcd573d6000803e3d6000fd5b505050506040513d601f19601f8201168201806040525081019062000df3919062004a73565b6001600160a01b0316148062000e8f5750603454604080516315d9b46f60e31b8152905133926001600160a01b03169163aecda378916004808301926020929190829003018186803b15801562000e4957600080fd5b505afa15801562000e5e573d6000803e3d6000fd5b505050506040513d601f19601f8201168201806040525081019062000e84919062004a73565b6001600160a01b0316145b60405180604001604052806002815260200161383560f01b8152509062000ecb5760405162461bcd60e51b8152600401620005599190620051f9565b5062000ed662004947565b60355460405163c44b11f760e01b81526001600160a01b039091169063c44b11f79062000f0890869060040162004f7e565b60206040518083038186803b15801562000f2157600080fd5b505afa15801562000f36573d6000803e3d6000fd5b505050506040513d601f19601f8201168201806040525081019062000f5c919062004cfe565b905062000f6a818362004092565b6035548151604051635c69493b60e11b81526001600160a01b039092169163b8d292769162000f9f918791906004016200504a565b600060405180830381600087803b15801562000fba57600080fd5b505af115801562000fcf573d6000803e3d6000fd5b50505050811562001014576040516001600160a01b038416907f76fbdd4354dc9418c0c566bb694eb4f77c55b468b137d36da290a1bef6c91ce790600090a262001049565b6040516001600160a01b038416907f1d3a3dc47be46ddf308a9b0bfb38011c4570656694fa65582a1a8bb7b45d5e8490600090a25b505050565b3360009081526036602052604090205460ff1680620010f35750603454604080516315d9b46f60e31b8152905133926001600160a01b03169163aecda378916004808301926020929190829003018186803b158015620010ad57600080fd5b505afa158015620010c2573d6000803e3d6000fd5b505050506040513d601f19601f82011682018060405250810190620010e8919062004a73565b6001600160a01b0316145b60405180604001604052806002815260200161383760f01b815250906200112f5760405162461bcd60e51b8152600401620005599190620051f9565b506200113a62004947565b60355460405163c44b11f760e01b81526001600160a01b039091169063c44b11f7906200116c90869060040162004f7e565b60206040518083038186803b1580156200118557600080fd5b505afa1580156200119a573d6000803e3d6000fd5b505050506040513d601f19601f82011682018060405250810190620011c0919062004cfe565b9050620011ce8183620040c2565b6035548151604051635c69493b60e11b81526001600160a01b039092169163b8d292769162001203918791906004016200504a565b600060405180830381600087803b1580156200121e57600080fd5b505af115801562001233573d6000803e3d6000fd5b50505050826001600160a01b03167f2694ccb0b585b6a54b8d8b4a47aa874b05c257b43d34e98aee50838be00d3405836040516200127291906200525c565b60405180910390a2505050565b603454604080516315d9b46f60e31b8152905133926001600160a01b03169163aecda378916004808301926020929190829003018186803b158015620012c457600080fd5b505afa158015620012d9573d6000803e3d6000fd5b505050506040513d601f19601f82011682018060405250810190620012ff919062004a73565b6001600160a01b03161460405180604001604052806002815260200161333360f01b81525090620013455760405162461bcd60e51b8152600401620005599190620051f9565b506035546040516382d84af560e01b81526001600160a01b03909116906382d84af5906200137b90849060019060040162005001565b600060405180830381600087803b1580156200139657600080fd5b505af1158015620013ab573d6000803e3d6000fd5b50506040516001600160a01b03841692507f18775a1410fc37cf5a2bbe92d3599b17f4cf45ceff703b9611cef0fd9cb97bc49150600090a250565b603454604080516315d9b46f60e31b8152905133926001600160a01b03169163aecda378916004808301926020929190829003018186803b1580156200142b57600080fd5b505afa15801562001440573d6000803e3d6000fd5b505050506040513d601f19601f8201168201806040525081019062001466919062004a73565b6001600160a01b03161460405180604001604052806002815260200161333360f01b81525090620014ac5760405162461bcd60e51b8152600401620005599190620051f9565b506035546040516382d84af560e01b81526001600160a01b03909116906382d84af590620014e290849060009060040162005001565b600060405180830381600087803b158015620014fd57600080fd5b505af115801562001512573d6000803e3d6000fd5b50506040516001600160a01b03841692507f8913d74cba3db963265a822597d4f0938e020df150115a4e5295c2ca78cc26769150600090a250565b603454604080516315d9b46f60e31b8152905133926001600160a01b03169163aecda378916004808301926020929190829003018186803b1580156200159257600080fd5b505afa158015620015a7573d6000803e3d6000fd5b505050506040513d601f19601f82011682018060405250810190620015cd919062004a73565b6001600160a01b03161460405180604001604052806002815260200161333360f01b81525090620016135760405162461bcd60e51b8152600401620005599190620051f9565b506040805180820190915260028152611c9b60f11b60208201526127108210620016525760405162461bcd60e51b8152600401620005599190620051f9565b50603560009054906101000a90046001600160a01b03166001600160a01b0316636a99c0366040518163ffffffff1660e01b815260040160206040518083038186803b158015620016a257600080fd5b505afa158015620016b7573d6000803e3d6000fd5b505050506040513d601f19601f82011682018060405250810190620016dd919062004ece565b81101560405180604001604052806002815260200161393560f01b815250906200171c5760405162461bcd60e51b8152600401620005599190620051f9565b506035546040805163354ce01b60e11b815290516001600160a01b0390921691631b350b9b9184918491636a99c036916004808301926020929190829003018186803b1580156200176c57600080fd5b505afa15801562001781573d6000803e3d6000fd5b505050506040513d601f19601f82011682018060405250810190620017a7919062004ece565b6040518363ffffffff1660e01b8152600401620017c692919062005265565b600060405180830381600087803b158015620017e157600080fd5b505af1158015620017f6573d6000803e3d6000fd5b505050507f0b9bdf39dfe243f1d69768be72013abe6e1e0227fa0b8529826e7824c76a8d17816040516200077a91906200525c565b3360009081526036602052604090205460ff1680620018d05750603454604080516315d9b46f60e31b8152905133926001600160a01b03169163aecda378916004808301926020929190829003018186803b1580156200188a57600080fd5b505afa1580156200189f573d6000803e3d6000fd5b505050506040513d601f19601f82011682018060405250810190620018c5919062004a73565b6001600160a01b0316145b60405180604001604052806002815260200161383760f01b815250906200190c5760405162461bcd60e51b8152600401620005599190620051f9565b506200191762004947565b60355460405163c44b11f760e01b81526001600160a01b039091169063c44b11f7906200194990869060040162004f7e565b60206040518083038186803b1580156200196257600080fd5b505afa15801562001977573d6000803e3d6000fd5b505050506040513d601f19601f820116820180604052508101906200199d919062004cfe565b9050620019ab81836200411c565b6035548151604051635c69493b60e11b81526001600160a01b039092169163b8d2927691620019e0918791906004016200504a565b600060405180830381600087803b158015620019fb57600080fd5b505af115801562001a10573d6000803e3d6000fd5b50505050826001600160a01b03167f7667cde738f3b2f178f6dd27f65ae2d93110aaa12b04b3b341dccb7a0cc1f160836040516200127291906200525c565b603454604080516315d9b46f60e31b8152905133926001600160a01b03169163aecda378916004808301926020929190829003018186803b15801562001a9457600080fd5b505afa15801562001aa9573d6000803e3d6000fd5b505050506040513d601f19601f8201168201806040525081019062001acf919062004a73565b6001600160a01b03161460405180604001604052806002815260200161333360f01b8152509062001b155760405162461bcd60e51b8152600401620005599190620051f9565b5060355460405163031e4dc360e51b81526001600160a01b03909116906363c9b8609062001b4890849060040162004f7e565b600060405180830381600087803b15801562001b6357600080fd5b505af115801562001b78573d6000803e3d6000fd5b50506040516001600160a01b03841692507feeec4c06f7adad215cbdb4d2960896c83c26aedce02dde76d36fa28588d62da49150600090a250565b6000336001600160a01b0316603460009054906101000a90046001600160a01b03166001600160a01b031663aecda3786040518163ffffffff1660e01b815260040160206040518083038186803b15801562001c0e57600080fd5b505afa15801562001c23573d6000803e3d6000fd5b505050506040513d601f19601f8201168201806040525081019062001c49919062004a73565b6001600160a01b03161460405180604001604052806002815260200161333360f01b8152509062001c8f5760405162461bcd60e51b8152600401620005599190620051f9565b50506001600160a01b031660009081526036602052604090205460ff1690565b603454604080516315d9b46f60e31b8152905133926001600160a01b03169163aecda378916004808301926020929190829003018186803b15801562001cf457600080fd5b505afa15801562001d09573d6000803e3d6000fd5b505050506040513d601f19601f8201168201806040525081019062001d2f919062004a73565b6001600160a01b03161460405180604001604052806002815260200161333360f01b8152509062001d755760405162461bcd60e51b8152600401620005599190620051f9565b506035546001600160a01b031662001d8c6200495a565b6001600160a01b0382166335ea6a7562001daa602086018662004a4d565b6040518263ffffffff1660e01b815260040162001dc8919062004f7e565b6101a06040518083038186803b15801562001de257600080fd5b505afa15801562001df7573d6000803e3d6000fd5b505050506040513d601f19601f8201168201806040525081019062001e1d919062004d1c565b9050600062001ebb6001600160a01b03841663c44b11f762001e43602088018862004a4d565b6040518263ffffffff1660e01b815260040162001e61919062004f7e565b60206040518083038186803b15801562001e7a57600080fd5b505afa15801562001e8f573d6000803e3d6000fd5b505050506040513d601f19601f8201168201806040525081019062001eb5919062004cfe565b62004177565b50935060609250636111764560e11b915085905062001ede602088018862004a4d565b62001ef06040890160208a0162004a4d565b8562001f0060408b018b620052d8565b62001f0f60608d018d620052d8565b62001f1e60a08f018f62005289565b60405160240162001f399a999897969594939291906200513e565b60408051601f198184030181529190526020810180516001600160e01b03166001600160e01b03199093169290921790915261010084015190915062001f929062001f8b60a088016080890162004a4d565b83620041a2565b62001fa460a086016080870162004a4d565b6101008401516001600160a01b03918216911662001fc6602088018862004a4d565b6001600160a01b03167f7a943a5b6c214bf7726c069a878b1e2a8e7371981d516048b84e03743e67bc2860405160405180910390a45050505050565b60345460408051636ee554f560e11b8152905133926001600160a01b03169163ddcaa9ea916004808301926020929190829003018186803b1580156200204757600080fd5b505afa1580156200205c573d6000803e3d6000fd5b505050506040513d601f19601f8201168201806040525081019062002082919062004a73565b6001600160a01b031614604051806040016040528060028152602001611b9b60f11b81525090620020c85760405162461bcd60e51b8152600401620005599190620051f9565b50603554604080516334651b6f60e21b815290516060926001600160a01b03169163d1946dbc916004808301926000929190829003018186803b1580156200210f57600080fd5b505afa15801562002124573d6000803e3d6000fd5b505050506040513d6000823e601f3d908101601f191682016040526200214e919081019062004bb5565b905060005b8151811015620010495760006001600160a01b03168282815181106200217557fe5b60200260200101516001600160a01b031614620021ac57620021ac8282815181106200219d57fe5b60200260200101518462000d73565b60010162002153565b3360009081526036602052604090205460ff16806200225a5750603454604080516315d9b46f60e31b8152905133926001600160a01b03169163aecda378916004808301926020929190829003018186803b1580156200221457600080fd5b505afa15801562002229573d6000803e3d6000fd5b505050506040513d601f19601f820116820180604052508101906200224f919062004a73565b6001600160a01b0316145b60405180604001604052806002815260200161383760f01b81525090620022965760405162461bcd60e51b8152600401620005599190620051f9565b50620022a162004947565b60355460405163c44b11f760e01b81526001600160a01b039091169063c44b11f790620022d390859060040162004f7e565b60206040518083038186803b158015620022ec57600080fd5b505afa15801562002301573d6000803e3d6000fd5b505050506040513d601f19601f8201168201806040525081019062002327919062004cfe565b9050620023368160016200420e565b6035548151604051635c69493b60e11b81526001600160a01b039092169163b8d29276916200236b918691906004016200504a565b600060405180830381600087803b1580156200238657600080fd5b505af11580156200239b573d6000803e3d6000fd5b50506040516001600160a01b03851692507f85dc710add8a0914461a7dc5a63f6fc529a7700f8c6089a3faf5e93256ccf12a9150600090a25050565b3360009081526036602052604090205460ff16806200247c5750603454604080516315d9b46f60e31b8152905133926001600160a01b03169163aecda378916004808301926020929190829003018186803b1580156200243657600080fd5b505afa1580156200244b573d6000803e3d6000fd5b505050506040513d601f19601f8201168201806040525081019062002471919062004a73565b6001600160a01b0316145b60405180604001604052806002815260200161383760f01b81525090620024b85760405162461bcd60e51b8152600401620005599190620051f9565b50620024c362004947565b60355460405163c44b11f760e01b81526001600160a01b039091169063c44b11f790620024f590889060040162004f7e565b60206040518083038186803b1580156200250e57600080fd5b505afa15801562002523573d6000803e3d6000fd5b505050506040513d601f19601f8201168201806040525081019062002549919062004cfe565b90508284111560405180604001604052806002815260200161373560f01b815250906200258b5760405162461bcd60e51b8152600401620005599190620051f9565b5082156200262657604080518082019091526002815261373560f01b60208201526127108311620025d15760405162461bcd60e51b8152600401620005599190620051f9565b50612710620025e184846200423e565b111560405180604001604052806002815260200161373560f01b815250906200261f5760405162461bcd60e51b8152600401620005599190620051f9565b506200266d565b604080518082019091526002815261373560f01b60208201528215620026615760405162461bcd60e51b8152600401620005599190620051f9565b506200266d8562003e34565b620026798185620042bc565b62002685818462004308565b6200269181836200435c565b6035548151604051635c69493b60e11b81526001600160a01b039092169163b8d2927691620026c6918991906004016200504a565b600060405180830381600087803b158015620026e157600080fd5b505af1158015620026f6573d6000803e3d6000fd5b50505050846001600160a01b03167f637febbda9275aea2e85c0ff690444c8d87eb2e8339bbede9715abcc89cb0995858585604051620027399392919062005273565b60405180910390a25050505050565b603454604080516315d9b46f60e31b8152905133926001600160a01b03169163aecda378916004808301926020929190829003018186803b1580156200278d57600080fd5b505afa158015620027a2573d6000803e3d6000fd5b505050506040513d601f19601f82011682018060405250810190620027c8919062004a73565b6001600160a01b03161460405180604001604052806002815260200161333360f01b815250906200280e5760405162461bcd60e51b8152600401620005599190620051f9565b506001600160a01b038116600081815260366020526040808220805460ff19169055517fb36d733f84b9c8a6db2f6dbcbd22fe16f000ec9c1db749e6383b66bc93472f839190a250565b3360009081526036602052604090205460ff1680620028fd5750603454604080516315d9b46f60e31b8152905133926001600160a01b03169163aecda378916004808301926020929190829003018186803b158015620028b757600080fd5b505afa158015620028cc573d6000803e3d6000fd5b505050506040513d601f19601f82011682018060405250810190620028f2919062004a73565b6001600160a01b0316145b60405180604001604052806002815260200161383760f01b81525090620029395760405162461bcd60e51b8152600401620005599190620051f9565b506200294462004947565b60355460405163c44b11f760e01b81526001600160a01b039091169063c44b11f7906200297690859060040162004f7e565b60206040518083038186803b1580156200298f57600080fd5b505afa158015620029a4573d6000803e3d6000fd5b505050506040513d601f19601f82011682018060405250810190620029ca919062004cfe565b9050620029d981600062003fd7565b6035548151604051635c69493b60e11b81526001600160a01b039092169163b8d292769162002a0e918691906004016200504a565b600060405180830381600087803b15801562002a2957600080fd5b505af115801562002a3e573d6000803e3d6000fd5b50506040516001600160a01b03851692507fe9a7e5fd4fc8ea18e602350324bf48e8f05d12434af0ce0be05743e6a5fdcb9e9150600090a25050565b603454604080516315d9b46f60e31b8152905133926001600160a01b03169163aecda378916004808301926020929190829003018186803b15801562002abf57600080fd5b505afa15801562002ad4573d6000803e3d6000fd5b505050506040513d601f19601f8201168201806040525081019062002afa919062004a73565b6001600160a01b03161460405180604001604052806002815260200161333360f01b8152509062002b405760405162461bcd60e51b8152600401620005599190620051f9565b506035546001600160a01b031662002b576200495a565b6001600160a01b0382166335ea6a7562002b75602086018662004a4d565b6040518263ffffffff1660e01b815260040162002b93919062004f7e565b6101a06040518083038186803b15801562002bad57600080fd5b505afa15801562002bc2573d6000803e3d6000fd5b505050506040513d601f19601f8201168201806040525081019062002be8919062004d1c565b9050600062002c0e6001600160a01b03841663c44b11f762001e43602088018862004a4d565b50935060609250636111764560e11b915085905062002c31602088018862004a4d565b62002c436040890160208a0162004a4d565b8562002c5360408b018b620052d8565b62002c6260608d018d620052d8565b62002c7160a08f018f62005289565b60405160240162002c8c9a999897969594939291906200513e565b60408051601f198184030181529190526020810180516001600160e01b03166001600160e01b03199093169290921790915261012084015190915062002cde9062001f8b60a088016080890162004a4d565b62002cf060a086016080870162004a4d565b6101208401516001600160a01b03918216911662002d12602088018862004a4d565b6001600160a01b03167f9439658a562a5c46b1173589df89cf001483d685bad28aedaff4a88656292d8160405160405180910390a45050505050565b603454604080516315d9b46f60e31b8152905133926001600160a01b03169163aecda378916004808301926020929190829003018186803b15801562002d9357600080fd5b505afa15801562002da8573d6000803e3d6000fd5b505050506040513d601f19601f8201168201806040525081019062002dce919062004a73565b6001600160a01b03161460405180604001604052806002815260200161333360f01b8152509062002e145760405162461bcd60e51b8152600401620005599190620051f9565b5062002e1f62004947565b60355460405163c44b11f760e01b81526001600160a01b039091169063c44b11f79062002e5190859060040162004f7e565b60206040518083038186803b15801562002e6a57600080fd5b505afa15801562002e7f573d6000803e3d6000fd5b505050506040513d601f19601f8201168201806040525081019062002ea5919062004cfe565b905062002eb481600162003fa7565b6035548151604051635c69493b60e11b81526001600160a01b039092169163b8d292769162002ee9918691906004016200504a565b600060405180830381600087803b15801562002f0457600080fd5b505af115801562002f19573d6000803e3d6000fd5b50506040516001600160a01b03851692507f35b80cd8ea3440e9a8454f116fa658b858da1b64c86c48451f4559cefcdfb56c9150600090a25050565b603454604080516315d9b46f60e31b8152905133926001600160a01b03169163aecda378916004808301926020929190829003018186803b15801562002f9a57600080fd5b505afa15801562002faf573d6000803e3d6000fd5b505050506040513d601f19601f8201168201806040525081019062002fd5919062004a73565b6001600160a01b03161460405180604001604052806002815260200161333360f01b815250906200301b5760405162461bcd60e51b8152600401620005599190620051f9565b506035546001600160a01b0316620030326200495a565b6001600160a01b0382166335ea6a7562003050602086018662004a4d565b6040518263ffffffff1660e01b81526004016200306e919062004f7e565b6101a06040518083038186803b1580156200308857600080fd5b505afa1580156200309d573d6000803e3d6000fd5b505050506040513d601f19601f82011682018060405250810190620030c3919062004d1c565b90506000620030e96001600160a01b03841663c44b11f762001e43602088018862004a4d565b5093506060925063183fb41360e01b91508590506200310f604088016020890162004a4d565b6200311e602089018962004a4d565b6200313060608a0160408b0162004a4d565b866200314060608c018c620052d8565b6200314f60808e018e620052d8565b8e8060c0019062003161919062005289565b6040516024016200317d9b9a999897969594939291906200506e565b60408051601f198184030181529190526020810180516001600160e01b03166001600160e01b03199093169290921790915260e0840151909150620031ce9062001f8b60c0880160a0890162004a4d565b620031e060c0860160a0870162004a4d565b60e08401516001600160a01b03918216911662003201602088018862004a4d565b6001600160a01b03167fa76f65411ec66a7fb6bc467432eb14767900449ae4469fa295e4441fe5e1cb7360405160405180910390a45050505050565b3360009081526036602052604090205460ff1680620032e25750603454604080516315d9b46f60e31b8152905133926001600160a01b03169163aecda378916004808301926020929190829003018186803b1580156200329c57600080fd5b505afa158015620032b1573d6000803e3d6000fd5b505050506040513d601f19601f82011682018060405250810190620032d7919062004a73565b6001600160a01b0316145b60405180604001604052806002815260200161383760f01b815250906200331e5760405162461bcd60e51b8152600401620005599190620051f9565b506200332962004947565b60355460405163c44b11f760e01b81526001600160a01b039091169063c44b11f7906200335b90859060040162004f7e565b60206040518083038186803b1580156200337457600080fd5b505afa15801562003389573d6000803e3d6000fd5b505050506040513d601f19601f82011682018060405250810190620033af919062004cfe565b9050620033be81600162004062565b6035548151604051635c69493b60e11b81526001600160a01b039092169163b8d2927691620033f3918691906004016200504a565b600060405180830381600087803b1580156200340e57600080fd5b505af115801562003423573d6000803e3d6000fd5b50506040516001600160a01b03851692507f8dee2b2f3e98319ae6347eda521788f73f4086c9be9a594942b370b137fb8cb19150600090a25050565b603454604080516315d9b46f60e31b8152905133926001600160a01b03169163aecda378916004808301926020929190829003018186803b158015620034a457600080fd5b505afa158015620034b9573d6000803e3d6000fd5b505050506040513d601f19601f82011682018060405250810190620034df919062004a73565b6001600160a01b03161460405180604001604052806002815260200161333360f01b81525090620035255760405162461bcd60e51b8152600401620005599190620051f9565b506001600160a01b038116600081815260366020526040808220805460ff19166001179055517f826d9d3b45069e2533964487d03a2fdda3e9ddf94220e96461fb079c889d7fdc9190a250565b60006200357e620043b2565b60015490915060ff168062003598575062003598620043b7565b80620035a5575060005481115b620035c45760405162461bcd60e51b815260040162000559906200520e565b60015460ff16158015620035e4576001805460ff19168117905560008290555b603480546001600160a01b0319166001600160a01b03858116919091179182905560408051630261bf8b60e01b815290519290911691630261bf8b91600480820192602092909190829003018186803b1580156200364157600080fd5b505afa15801562003656573d6000803e3d6000fd5b505050506040513d601f19601f820116820180604052508101906200367c919062004a73565b603580546001600160a01b0319166001600160a01b0392909216919091179055801562001049576001805460ff19169055505050565b603454604080516315d9b46f60e31b8152905133926001600160a01b03169163aecda378916004808301926020929190829003018186803b158015620036f757600080fd5b505afa1580156200370c573d6000803e3d6000fd5b505050506040513d601f19601f8201168201806040525081019062003732919062004a73565b6001600160a01b03161460405180604001604052806002815260200161333360f01b81525090620037785760405162461bcd60e51b8152600401620005599190620051f9565b506035546001600160a01b031660005b82811015620037c657620037bd82858584818110620037a357fe5b9050602002810190620037b79190620052ef565b620043bd565b60010162003788565b50505050565b3360009081526036602052604090205460ff1680620038715750603454604080516315d9b46f60e31b8152905133926001600160a01b03169163aecda378916004808301926020929190829003018186803b1580156200382b57600080fd5b505afa15801562003840573d6000803e3d6000fd5b505050506040513d601f19601f8201168201806040525081019062003866919062004a73565b6001600160a01b0316145b60405180604001604052806002815260200161383760f01b81525090620038ad5760405162461bcd60e51b8152600401620005599190620051f9565b50620038b862004947565b60355460405163c44b11f760e01b81526001600160a01b039091169063c44b11f790620038ea90869060040162004f7e565b60206040518083038186803b1580156200390357600080fd5b505afa15801562003918573d6000803e3d6000fd5b505050506040513d601f19601f820116820180604052508101906200393e919062004cfe565b90506200394c818362004007565b6035548151604051635c69493b60e11b81526001600160a01b039092169163b8d292769162003981918791906004016200504a565b600060405180830381600087803b1580156200399c57600080fd5b505af1158015620039b1573d6000803e3d6000fd5b50505050826001600160a01b03167fba7829d227ff41c60f4eb3e5be13a7a5926f26c920b58ec987c3709f5e07bfa3836040516200127291906200525c565b3360009081526036602052604090205460ff168062003a955750603454604080516315d9b46f60e31b8152905133926001600160a01b03169163aecda378916004808301926020929190829003018186803b15801562003a4f57600080fd5b505afa15801562003a64573d6000803e3d6000fd5b505050506040513d601f19601f8201168201806040525081019062003a8a919062004a73565b6001600160a01b0316145b60405180604001604052806002815260200161383760f01b8152509062003ad15760405162461bcd60e51b8152600401620005599190620051f9565b5062003adc62004947565b60355460405163c44b11f760e01b81526001600160a01b039091169063c44b11f79062003b0e90859060040162004f7e565b60206040518083038186803b15801562003b2757600080fd5b505afa15801562003b3c573d6000803e3d6000fd5b505050506040513d601f19601f8201168201806040525081019062003b62919062004cfe565b905062003b718160006200420e565b6035548151604051635c69493b60e11b81526001600160a01b039092169163b8d292769162003ba6918691906004016200504a565b600060405180830381600087803b15801562003bc157600080fd5b505af115801562003bd6573d6000803e3d6000fd5b50506040516001600160a01b03851692507f838ecdc4709a31a26db48b0c853212cedde3f725f07030079d793fb0719647609150600090a25050565b3360009081526036602052604090205460ff168062003cb75750603454604080516315d9b46f60e31b8152905133926001600160a01b03169163aecda378916004808301926020929190829003018186803b15801562003c7157600080fd5b505afa15801562003c86573d6000803e3d6000fd5b505050506040513d601f19601f8201168201806040525081019062003cac919062004a73565b6001600160a01b0316145b60405180604001604052806002815260200161383760f01b8152509062003cf35760405162461bcd60e51b8152600401620005599190620051f9565b5062003cfe62004947565b60355460405163c44b11f760e01b81526001600160a01b039091169063c44b11f79062003d3090859060040162004f7e565b60206040518083038186803b15801562003d4957600080fd5b505afa15801562003d5e573d6000803e3d6000fd5b505050506040513d601f19601f8201168201806040525081019062003d84919062004cfe565b905062003d9381600062004062565b6035548151604051635c69493b60e11b81526001600160a01b039092169163b8d292769162003dc8918691906004016200504a565b600060405180830381600087803b15801562003de357600080fd5b505af115801562003df8573d6000803e3d6000fd5b50506040516001600160a01b03851692507f8bbf35441ac2c607ddecadd3d8ee58636d32f217fad201fb2655581502dd84e39150600090a25050565b62003e3e6200495a565b6035546040516335ea6a7560e01b81526001600160a01b03909116906335ea6a759062003e7090859060040162004f7e565b6101a06040518083038186803b15801562003e8a57600080fd5b505afa15801562003e9f573d6000803e3d6000fd5b505050506040513d601f19601f8201168201806040525081019062003ec5919062004d1c565b90506000826001600160a01b03166370a082318360e001516040518263ffffffff1660e01b815260040162003efb919062004f7e565b60206040518083038186803b15801562003f1457600080fd5b505afa15801562003f29573d6000803e3d6000fd5b505050506040513d601f19601f8201168201806040525081019062003f4f919062004ece565b90508015801562003f6b575060608201516001600160801b0316155b604051806040016040528060028152602001610ccd60f21b81525090620037c65760405162461bcd60e51b8152600401620005599190620051f9565b60388162003fb757600062003fba565b60015b8351670100000000000000191660ff9190911690911b1790915250565b603a8162003fe757600062003fea565b60015b8351670400000000000000191660ff9190911690911b1790915250565b6040805180820190915260028152611c1960f11b6020820152640fffffffff821115620040495760405162461bcd60e51b8152600401620005599190620051f9565b508151640fffffffff60501b191660509190911b179052565b603b816200407257600062004075565b60015b8351670800000000000000191660ff9190911690911b1790915250565b603c81620040a2576000620040a5565b60015b8351671000000000000000191660ff9190911690911b1790915250565b604080518082019091526002815261373160f01b602082015261ffff821115620041015760405162461bcd60e51b8152600401620005599190620051f9565b50815169ffff0000000000000000191660409190911b179052565b6040805180820190915260028152610e0d60f21b6020820152640fffffffff8211156200415e5760405162461bcd60e51b8152600401620005599190620051f9565b508151640fffffffff60741b191660749190911b179052565b5161ffff80821692601083901c821692602081901c831692603082901c60ff169260409290921c1690565b60405163278f794360e11b815283906001600160a01b03821690634f1ef28690620041d490869086906004016200501c565b600060405180830381600087803b158015620041ef57600080fd5b505af115801562004204573d6000803e3d6000fd5b5050505050505050565b6039816200421e57600062004221565b60015b8351670200000000000000191660ff9190911690911b1790915250565b60008215806200424c575081155b156200425b57506000620042b6565b8161138819816200426857fe5b0483111560405180604001604052806002815260200161068760f31b81525090620042a85760405162461bcd60e51b8152600401620005599190620051f9565b505061271061138882840201045b92915050565b604080518082019091526002815261363760f01b602082015261ffff821115620042fb5760405162461bcd60e51b8152600401620005599190620051f9565b50815161ffff1916179052565b60408051808201909152600281526106c760f31b602082015261ffff821115620043475760405162461bcd60e51b8152600401620005599190620051f9565b50815163ffff0000191660109190911b179052565b604080518082019091526002815261363960f01b602082015261ffff8211156200439b5760405162461bcd60e51b8152600401620005599190620051f9565b50815165ffff00000000191660209190911b179052565b600190565b303b1590565b6000620044a8620043d2602084018462004a4d565b63183fb41360e01b85620043ed60e0870160c0880162004a4d565b620043ff60c0880160a0890162004a4d565b62004412610100890160e08a0162004a4d565b6200442460808a0160608b0162004ee7565b620044346101208b018b620052d8565b620044446101408d018d620052d8565b620044546101e08f018f62005289565b604051602401620044709b9a99989796959493929190620050f5565b60408051601f198184030181529190526020810180516001600160e01b03166001600160e01b03199093169290921790915262004846565b905060006200454d620044c2604085016020860162004a4d565b636111764560e11b86620044dd60c0880160a0890162004a4d565b620044f0610100890160e08a0162004a4d565b6200450260808a0160608b0162004ee7565b620045126101a08b018b620052d8565b620045226101c08d018d620052d8565b620045326101e08f018f62005289565b604051602401620044709a99989796959493929190620051b9565b90506000620045da62004567606086016040870162004a4d565b636111764560e11b876200458260c0890160a08a0162004a4d565b620045956101008a0160e08b0162004a4d565b620045a760808b0160608c0162004ee7565b620045b76101608c018c620052d8565b620045c76101808e018e620052d8565b8e806101e0019062004532919062005289565b90506001600160a01b038516637a708e92620045fd60c0870160a0880162004a4d565b8585856200461260a08b0160808c0162004a4d565b6040518663ffffffff1660e01b81526004016200463495949392919062004fcf565b600060405180830381600087803b1580156200464f57600080fd5b505af115801562004664573d6000803e3d6000fd5b505050506200467262004947565b6001600160a01b03861663c44b11f76200469360c0880160a0890162004a4d565b6040518263ffffffff1660e01b8152600401620046b1919062004f7e565b60206040518083038186803b158015620046ca57600080fd5b505afa158015620046df573d6000803e3d6000fd5b505050506040513d601f19601f8201168201806040525081019062004705919062004cfe565b9050620047286200471d608087016060880162004ee7565b829060ff16620048f1565b6200473581600162003fa7565b6200474281600062004092565b6200474f8160006200420e565b6001600160a01b03861663b8d292766200477060c0880160a0890162004a4d565b83516040516001600160e01b031960e085901b168152620047969291906004016200504a565b600060405180830381600087803b158015620047b157600080fd5b505af1158015620047c6573d6000803e3d6000fd5b5050506001600160a01b0385169050620047e760c0870160a0880162004a4d565b6001600160a01b03167f3a0ca721fc364424566385a1aa271ed508cc2c0949c2272575fb3013a163a45f85856200482560a08b0160808c0162004a4d565b604051620048369392919062004fac565b60405180910390a3505050505050565b600080306040516200485890620049cf565b62004864919062004f7e565b604051809103906000f08015801562004881573d6000803e3d6000fd5b5060405163347d5e2560e21b81529091506001600160a01b0382169063d1f5789490620048b590879087906004016200501c565b600060405180830381600087803b158015620048d057600080fd5b505af1158015620048e5573d6000803e3d6000fd5b50929695505050505050565b604080518082019091526002815261037360f41b602082015260ff8211156200492f5760405162461bcd60e51b8152600401620005599190620051f9565b50815166ff000000000000191660309190911b179052565b6040518060200160405280600081525090565b604051806101a001604052806200497062004947565b815260006020820181905260408201819052606082018190526080820181905260a0820181905260c0820181905260e0820181905261010082018190526101208201819052610140820181905261016082018190526101809091015290565b610773806200537183390190565b8051620042b68162005338565b600060208284031215620049fc578081fd5b62004a08602062005310565b9151825250919050565b80516001600160801b0381168114620042b657600080fd5b805164ffffffffff81168114620042b657600080fd5b8051620042b68162005360565b60006020828403121562004a5f578081fd5b813562004a6c8162005338565b9392505050565b60006020828403121562004a85578081fd5b815162004a6c8162005338565b6000806040838503121562004aa5578081fd5b823562004ab28162005338565b9150602083013562004ac48162005338565b809150509250929050565b6000806040838503121562004ae2578182fd5b823562004aef8162005338565b91506020830135801515811462004ac4578182fd5b6000806040838503121562004b17578182fd5b823562004b248162005338565b946020939093013593505050565b60008060006060848603121562004b47578081fd5b833562004b548162005338565b925060208401359150604084013562004b6d8162005351565b809150509250925092565b6000806000806080858703121562004b8e578081fd5b843562004b9b8162005338565b966020860135965060408601359560600135945092505050565b6000602080838503121562004bc8578182fd5b825167ffffffffffffffff8082111562004be0578384fd5b818501915085601f83011262004bf4578384fd5b81518181111562004c03578485fd5b838102915062004c1584830162005310565b8181528481019084860184860187018a101562004c30578788fd5b8795505b8386101562004c5e5762004c498a82620049dd565b83526001959095019491860191860162004c34565b5098975050505050505050565b6000806020838503121562004c7e578182fd5b823567ffffffffffffffff8082111562004c96578384fd5b818501915085601f83011262004caa578384fd5b81358181111562004cb9578485fd5b866020808302850101111562004ccd578485fd5b60209290920196919550909350505050565b60006020828403121562004cf1578081fd5b813562004a6c8162005351565b60006020828403121562004d10578081fd5b62004a6c8383620049ea565b60006101a080838503121562004d30578182fd5b62004d3b8162005310565b905062004d498484620049ea565b815262004d5a846020850162004a12565b602082015262004d6e846040850162004a12565b604082015262004d82846060850162004a12565b606082015262004d96846080850162004a12565b608082015262004daa8460a0850162004a12565b60a082015262004dbe8460c0850162004a2a565b60c082015262004dd28460e08501620049dd565b60e082015261010062004de885828601620049dd565b9082015261012062004dfd85858301620049dd565b9082015261014062004e1285858301620049dd565b9082015261016062004e278585830162004a40565b90820152610180928301519281019290925250919050565b60006020828403121562004e51578081fd5b813567ffffffffffffffff81111562004e68578182fd5b820160e0818503121562004a6c578182fd5b60006020828403121562004e8c578081fd5b813567ffffffffffffffff81111562004ea3578182fd5b820160c0818503121562004a6c578182fd5b60006020828403121562004ec7578081fd5b5035919050565b60006020828403121562004ee0578081fd5b5051919050565b60006020828403121562004ef9578081fd5b813562004a6c8162005360565b60008284528282602086013780602084860101526020601f19601f85011685010190509392505050565b60008151808452815b8181101562004f575760208185018101518683018201520162004f39565b8181111562004f695782602083870101525b50601f01601f19169290920160200192915050565b6001600160a01b0391909116815260200190565b6001600160a01b0392831681529116602082015260400190565b6001600160a01b0393841681529183166020830152909116604082015260600190565b6001600160a01b0395861681529385166020850152918416604084015283166060830152909116608082015260a00190565b6001600160a01b039290921682521515602082015260400190565b6001600160a01b0383168152604060208201819052600090620050429083018462004f30565b949350505050565b6001600160a01b03929092168252602082015260400190565b901515815260200190565b6001600160a01b038c811682528b811660208301528a81166040830152891660608201526080810188905261010060a08201819052600090620050b5838201898b62004f06565b905082810360c0840152620050cc81878962004f06565b905082810360e0840152620050e381858762004f06565b9e9d5050505050505050505050505050565b6001600160a01b038c811682528b811660208301528a811660408301528916606082015260ff8816608082015261010060a08201819052600090620050b5838201898b62004f06565b6001600160a01b038b811682528a81166020830152891660408201526060810188905260e0608082018190526000906200517c908301888a62004f06565b82810360a08401526200519181878962004f06565b905082810360c0840152620051a881858762004f06565b9d9c50505050505050505050505050565b6001600160a01b038b811682528a811660208301528916604082015260ff8816606082015260e0608082018190526000906200517c908301888a62004f06565b60006020825262004a6c602083018462004f30565b6020808252602e908201527f436f6e747261637420696e7374616e63652068617320616c726561647920626560408201526d195b881a5b9a5d1a585b1a5e995960921b606082015260800190565b90815260200190565b918252602082015260400190565b9283526020830191909152604082015260600190565b6000808335601e19843603018112620052a0578283fd5b83018035915067ffffffffffffffff821115620052bb578283fd5b602001915036819003821315620052d157600080fd5b9250929050565b6000808335601e19843603018112620052a0578182fd5b600082356101fe1983360301811262005306578182fd5b9190910192915050565b60405181810167ffffffffffffffff811182821017156200533057600080fd5b604052919050565b6001600160a01b03811681146200534e57600080fd5b50565b80151581146200534e57600080fd5b60ff811681146200534e57600080fdfe60a060405234801561001057600080fd5b506040516107733803806107738339818101604052602081101561003357600080fd5b5051606081901b6001600160601b0319166080526001600160a01b03166106f36100806000398061022852806102725280610331528061045e528061048752806105af52506106f36000f3fe60806040526004361061004a5760003560e01c80633659cfe6146100545780634f1ef286146100875780635c60da1b14610107578063d1f5789414610138578063f851a440146101ee575b610052610203565b005b34801561006057600080fd5b506100526004803603602081101561007757600080fd5b50356001600160a01b031661021d565b6100526004803603604081101561009d57600080fd5b6001600160a01b0382351691908101906040810160208201356401000000008111156100c857600080fd5b8201836020820111156100da57600080fd5b803590602001918460018302840111640100000000831117156100fc57600080fd5b509092509050610267565b34801561011357600080fd5b5061011c610324565b604080516001600160a01b039092168252519081900360200190f35b6100526004803603604081101561014e57600080fd5b6001600160a01b03823516919081019060408101602082013564010000000081111561017957600080fd5b82018360208201111561018b57600080fd5b803590602001918460018302840111640100000000831117156101ad57600080fd5b91908080601f016020809104026020016040519081016040528093929190818152602001838380828437600092019190915250929550610371945050505050565b3480156101fa57600080fd5b5061011c610451565b61020b6104ab565b61021b6102166104b3565b6104d8565b565b336001600160a01b037f000000000000000000000000000000000000000000000000000000000000000016141561025c57610257816104fc565b610264565b610264610203565b50565b336001600160a01b037f0000000000000000000000000000000000000000000000000000000000000000161415610317576102a1836104fc565b6000836001600160a01b031683836040518083838082843760405192019450600093509091505080830381855af49150503d80600081146102fe576040519150601f19603f3d011682016040523d82523d6000602084013e610303565b606091505b505090508061031157600080fd5b5061031f565b61031f610203565b505050565b6000336001600160a01b037f00000000000000000000000000000000000000000000000000000000000000001614156103665761035f6104b3565b905061036e565b61036e610203565b90565b600061037b6104b3565b6001600160a01b03161461038e57600080fd5b6103978261053c565b80511561044d576000826001600160a01b0316826040518082805190602001908083835b602083106103da5780518252601f1990920191602091820191016103bb565b6001836020036101000a038019825116818451168082178552505050505050905001915050600060405180830381855af49150503d806000811461043a576040519150601f19603f3d011682016040523d82523d6000602084013e61043f565b606091505b505090508061031f57600080fd5b5050565b6000336001600160a01b037f000000000000000000000000000000000000000000000000000000000000000016141561036657507f000000000000000000000000000000000000000000000000000000000000000061036e565b61021b6105a4565b7f360894a13ba1a3210667c828492db98dca3e2076cc3735a920a3ca505d382bbc5490565b3660008037600080366000845af43d6000803e8080156104f7573d6000f35b3d6000fd5b6105058161053c565b6040516001600160a01b038216907fbc7cd75a20ee27fd9adebab32041f755214dbc6bffa90cc0225b39da2e5c2d3b90600090a250565b61054581610614565b6105805760405162461bcd60e51b815260040180806020018281038252603b815260200180610683603b913960400191505060405180910390fd5b7f360894a13ba1a3210667c828492db98dca3e2076cc3735a920a3ca505d382bbc55565b336001600160a01b037f000000000000000000000000000000000000000000000000000000000000000016141561060c5760405162461bcd60e51b81526004018080602001828103825260328152602001806106516032913960400191505060405180910390fd5b61021b61021b565b6000813f7fc5d2460186f7233c927e7db2dcc703c0e500b653ca82273b7bfad8045d85a47081811480159061064857508115155b94935050505056fe43616e6e6f742063616c6c2066616c6c6261636b2066756e6374696f6e2066726f6d207468652070726f78792061646d696e43616e6e6f742073657420612070726f787920696d706c656d656e746174696f6e20746f2061206e6f6e2d636f6e74726163742061646472657373a26469706673582212203801682b75a74ce25ca5dbe58739c5b62298b707b9119c9413881c56f29bcfa864736f6c634300060c0033a26469706673582212202dddc96ef34f9a6f46c0650b9cb62c84968c1e481df6fe2ee9688958bf369e3d64736f6c634300060c0033",
  "linkReferences": {},
  "deployedLinkReferences": {}
}