{
  "_format": "hh-sol-artifact-1",
  "contractName": "LPTokenStaking",
  "sourceName": "contracts/LPTokenStaking.sol",
  "abi": [
    {
      "inputs": [
        {
          "internalType": "address",
          "name": "",
          "type": "address"
        }
      ],
      "name": "balanceOf",
      "outputs": [
        {
          "internalType": "uint256",
          "name": "",
          "type": "uint256"
        }
      ],
      "stateMutability": "view",
      "type": "function"
    },
    {
      "inputs": [],
      "name": "controller",
      "outputs": [
        {
          "internalType": "contract Contoller",
          "name": "",
          "type": "address"
        }
      ],
      "stateMutability": "view",
      "type": "function"
    },
    {
      "inputs": [
        {
          "internalType": "uint256",
          "name": "amount",
          "type": "uint256"
        }
      ],
      "name": "deposite",
      "outputs": [],
      "stateMutability": "nonpayable",
      "type": "function"
    },
    {
      "inputs": [
        {
          "internalType": "address",
          "name": "_lp",
          "type": "address"
        },
        {
          "internalType": "address",
          "name": "_ctrl",
          "type": "address"
        }
      ],
      "name": "initialize",
      "outputs": [],
      "stateMutability": "nonpayable",
      "type": "function"
    },
    {
      "inputs": [],
      "name": "lpToken",
      "outputs": [
        {
          "internalType": "contract IERC20MetadataUpgradeable",
          "name": "",
          "type": "address"
        }
      ],
      "stateMutability": "view",
      "type": "function"
    },
    {
      "inputs": [
        {
          "internalType": "uint256",
          "name": "amount",
          "type": "uint256"
        }
      ],
      "name": "withDraw",
      "outputs": [
        {
          "internalType": "uint256",
          "name": "",
          "type": "uint256"
        }
      ],
      "stateMutability": "nonpayable",
      "type": "function"
    }
  ],
  "bytecode": "0x608060405234801561001057600080fd5b506109ee806100206000396000f3fe608060405234801561001057600080fd5b50600436106100625760003560e01c806314174f33146100675780633104562b1461008d578063485cc955146100a25780635fcbd285146100b557806370a08231146100e6578063f77c479114610106575b600080fd5b61007a6100753660046108c8565b610119565b6040519081526020015b60405180910390f35b6100a061009b3660046108c8565b6102d5565b005b6100a06100b0366004610876565b61045d565b6000546100ce906201000090046001600160a01b031681565b6040516001600160a01b039091168152602001610084565b61007a6100f436600461085c565b60026020526000908152604090205481565b6001546100ce906001600160a01b031681565b60008082116101595760405162461bcd60e51b81526020600482015260076024820152661a5b9d985b1a5960ca1b60448201526064015b60405180910390fd5b3360009081526002602052604090205482908111156101845750336000908152600260205260409020545b6001546000546040516370a0823160e01b81523060048201526001600160a01b03928316926331873e2e92339262010000909104909116906370a082319060240160206040518083038186803b1580156101dd57600080fd5b505afa1580156101f1573d6000803e3d6000fd5b505050506040513d601f19601f8201168201806040525081019061021591906108e0565b336000908152600260205260409081902054905160e085901b6001600160e01b03191681526001600160a01b03909316600484015260248301919091526044820152606401600060405180830381600087803b15801561027457600080fd5b505af1158015610288573d6000803e3d6000fd5b50506000546102aa92506201000090046001600160a01b031690503383610553565b33600090815260026020526040812080548392906102c990849061095f565b90915550909392505050565b6000811161030f5760405162461bcd60e51b81526020600482015260076024820152661a5b9d985b1a5960ca1b6044820152606401610150565b6001546000546040516370a0823160e01b81523060048201526001600160a01b03928316926331873e2e92339262010000909104909116906370a082319060240160206040518083038186803b15801561036857600080fd5b505afa15801561037c573d6000803e3d6000fd5b505050506040513d601f19601f820116820180604052508101906103a091906108e0565b336000908152600260205260409081902054905160e085901b6001600160e01b03191681526001600160a01b03909316600484015260248301919091526044820152606401600060405180830381600087803b1580156103ff57600080fd5b505af1158015610413573d6000803e3d6000fd5b505060005461043692506201000090046001600160a01b031690503330846105b6565b3360009081526002602052604081208054839290610455908490610947565b909155505050565b600054610100900460ff1680610476575060005460ff16155b6104d95760405162461bcd60e51b815260206004820152602e60248201527f496e697469616c697a61626c653a20636f6e747261637420697320616c72656160448201526d191e481a5b9a5d1a585b1a5e995960921b6064820152608401610150565b600054610100900460ff161580156104fb576000805461ffff19166101011790555b6000805462010000600160b01b031916620100006001600160a01b038681169190910291909117909155600180546001600160a01b031916918416919091179055801561054e576000805461ff00191690555b505050565b6040516001600160a01b03831660248201526044810182905261054e90849063a9059cbb60e01b906064015b60408051601f198184030181529190526020810180516001600160e01b03166001600160e01b0319909316929092179091526105f4565b6040516001600160a01b03808516602483015283166044820152606481018290526105ee9085906323b872dd60e01b9060840161057f565b50505050565b6000610649826040518060400160405280602081526020017f5361666545524332303a206c6f772d6c6576656c2063616c6c206661696c6564815250856001600160a01b03166106c69092919063ffffffff16565b80519091501561054e578080602001905181019061066791906108a8565b61054e5760405162461bcd60e51b815260206004820152602a60248201527f5361666545524332303a204552433230206f7065726174696f6e20646964206e6044820152691bdd081cdd58d8d9595960b21b6064820152608401610150565b60606106d584846000856106df565b90505b9392505050565b6060824710156107405760405162461bcd60e51b815260206004820152602660248201527f416464726573733a20696e73756666696369656e742062616c616e636520666f6044820152651c8818d85b1b60d21b6064820152608401610150565b843b61078e5760405162461bcd60e51b815260206004820152601d60248201527f416464726573733a2063616c6c20746f206e6f6e2d636f6e74726163740000006044820152606401610150565b600080866001600160a01b031685876040516107aa91906108f8565b60006040518083038185875af1925050503d80600081146107e7576040519150601f19603f3d011682016040523d82523d6000602084013e6107ec565b606091505b50915091506107fc828286610807565b979650505050505050565b606083156108165750816106d8565b8251156108265782518084602001fd5b8160405162461bcd60e51b81526004016101509190610914565b80356001600160a01b038116811461085757600080fd5b919050565b60006020828403121561086d578081fd5b6106d882610840565b60008060408385031215610888578081fd5b61089183610840565b915061089f60208401610840565b90509250929050565b6000602082840312156108b9578081fd5b815180151581146106d8578182fd5b6000602082840312156108d9578081fd5b5035919050565b6000602082840312156108f1578081fd5b5051919050565b6000825161090a818460208701610976565b9190910192915050565b6020815260008251806020840152610933816040850160208701610976565b601f01601f19169190910160400192915050565b6000821982111561095a5761095a6109a2565b500190565b600082821015610971576109716109a2565b500390565b60005b83811015610991578181015183820152602001610979565b838111156105ee5750506000910152565b634e487b7160e01b600052601160045260246000fdfea2646970667358221220141f908cc73047b94ea8cc7597ccc430313a1241073cecbf86bdd75cd8ed5d8d64736f6c63430008040033",
  "linkReferences": {},
  "deployedLinkReferences": {}
}