{
  "_format": "hh-sol-artifact-1",
  "contractName": "UiPoolDataProvider",
  "sourceName": "contracts/misc/UiPoolDataProvider.sol",
  "abi": [
    {
      "inputs": [
        {
          "internalType": "contract IAaveIncentivesController",
          "name": "_incentivesController",
          "type": "address"
        },
        {
          "internalType": "contract IPriceOracleGetter",
          "name": "_oracle",
          "type": "address"
        }
      ],
      "stateMutability": "nonpayable",
      "type": "constructor"
    },
    {
      "inputs": [],
      "name": "MOCK_USD_ADDRESS",
      "outputs": [
        {
          "internalType": "address",
          "name": "",
          "type": "address"
        }
      ],
      "stateMutability": "view",
      "type": "function"
    },
    {
      "inputs": [
        {
          "internalType": "contract ILendingPoolAddressesProvider",
          "name": "provider",
          "type": "address"
        },
        {
          "internalType": "address",
          "name": "user",
          "type": "address"
        }
      ],
      "name": "getReservesData",
      "outputs": [
        {
          "components": [
            {
              "internalType": "address",
              "name": "underlyingAsset",
              "type": "address"
            },
            {
              "internalType": "string",
              "name": "name",
              "type": "string"
            },
            {
              "internalType": "string",
              "name": "symbol",
              "type": "string"
            },
            {
              "internalType": "uint256",
              "name": "decimals",
              "type": "uint256"
            },
            {
              "internalType": "uint256",
              "name": "baseLTVasCollateral",
              "type": "uint256"
            },
            {
              "internalType": "uint256",
              "name": "reserveLiquidationThreshold",
              "type": "uint256"
            },
            {
              "internalType": "uint256",
              "name": "reserveLiquidationBonus",
              "type": "uint256"
            },
            {
              "internalType": "uint256",
              "name": "reserveFactor",
              "type": "uint256"
            },
            {
              "internalType": "uint256",
              "name": "borrowCap",
              "type": "uint256"
            },
            {
              "internalType": "uint256",
              "name": "supplyCap",
              "type": "uint256"
            },
            {
              "internalType": "bool",
              "name": "usageAsCollateralEnabled",
              "type": "bool"
            },
            {
              "internalType": "bool",
              "name": "borrowingEnabled",
              "type": "bool"
            },
            {
              "internalType": "bool",
              "name": "stableBorrowRateEnabled",
              "type": "bool"
            },
            {
              "internalType": "bool",
              "name": "isActive",
              "type": "bool"
            },
            {
              "internalType": "bool",
              "name": "isFrozen",
              "type": "bool"
            },
            {
              "internalType": "bool",
              "name": "isPaused",
              "type": "bool"
            },
            {
              "internalType": "uint128",
              "name": "liquidityIndex",
              "type": "uint128"
            },
            {
              "internalType": "uint128",
              "name": "variableBorrowIndex",
              "type": "uint128"
            },
            {
              "internalType": "uint128",
              "name": "liquidityRate",
              "type": "uint128"
            },
            {
              "internalType": "uint128",
              "name": "variableBorrowRate",
              "type": "uint128"
            },
            {
              "internalType": "uint128",
              "name": "stableBorrowRate",
              "type": "uint128"
            },
            {
              "internalType": "uint40",
              "name": "lastUpdateTimestamp",
              "type": "uint40"
            },
            {
              "internalType": "address",
              "name": "aTokenAddress",
              "type": "address"
            },
            {
              "internalType": "address",
              "name": "stableDebtTokenAddress",
              "type": "address"
            },
            {
              "internalType": "address",
              "name": "variableDebtTokenAddress",
              "type": "address"
            },
            {
              "internalType": "address",
              "name": "interestRateStrategyAddress",
              "type": "address"
            },
            {
              "internalType": "uint256",
              "name": "availableLiquidity",
              "type": "uint256"
            },
            {
              "internalType": "uint256",
              "name": "totalPrincipalStableDebt",
              "type": "uint256"
            },
            {
              "internalType": "uint256",
              "name": "averageStableRate",
              "type": "uint256"
            },
            {
              "internalType": "uint256",
              "name": "stableDebtLastUpdateTimestamp",
              "type": "uint256"
            },
            {
              "internalType": "uint256",
              "name": "totalScaledVariableDebt",
              "type": "uint256"
            },
            {
              "internalType": "uint256",
              "name": "priceInEth",
              "type": "uint256"
            },
            {
              "internalType": "uint256",
              "name": "variableRateSlope1",
              "type": "uint256"
            },
            {
              "internalType": "uint256",
              "name": "variableRateSlope2",
              "type": "uint256"
            },
            {
              "internalType": "uint256",
              "name": "stableRateSlope1",
              "type": "uint256"
            },
            {
              "internalType": "uint256",
              "name": "stableRateSlope2",
              "type": "uint256"
            },
            {
              "internalType": "uint256",
              "name": "aEmissionPerSecond",
              "type": "uint256"
            },
            {
              "internalType": "uint256",
              "name": "vEmissionPerSecond",
              "type": "uint256"
            },
            {
              "internalType": "uint256",
              "name": "sEmissionPerSecond",
              "type": "uint256"
            },
            {
              "internalType": "uint256",
              "name": "aIncentivesLastUpdateTimestamp",
              "type": "uint256"
            },
            {
              "internalType": "uint256",
              "name": "vIncentivesLastUpdateTimestamp",
              "type": "uint256"
            },
            {
              "internalType": "uint256",
              "name": "sIncentivesLastUpdateTimestamp",
              "type": "uint256"
            },
            {
              "internalType": "uint256",
              "name": "aTokenIncentivesIndex",
              "type": "uint256"
            },
            {
              "internalType": "uint256",
              "name": "vTokenIncentivesIndex",
              "type": "uint256"
            },
            {
              "internalType": "uint256",
              "name": "sTokenIncentivesIndex",
              "type": "uint256"
            }
          ],
          "internalType": "struct IUiPoolDataProvider.AggregatedReserveData[]",
          "name": "",
          "type": "tuple[]"
        },
        {
          "components": [
            {
              "internalType": "address",
              "name": "underlyingAsset",
              "type": "address"
            },
            {
              "internalType": "uint256",
              "name": "scaledATokenBalance",
              "type": "uint256"
            },
            {
              "internalType": "bool",
              "name": "usageAsCollateralEnabledOnUser",
              "type": "bool"
            },
            {
              "internalType": "uint256",
              "name": "stableBorrowRate",
              "type": "uint256"
            },
            {
              "internalType": "uint256",
              "name": "scaledVariableDebt",
              "type": "uint256"
            },
            {
              "internalType": "uint256",
              "name": "principalStableDebt",
              "type": "uint256"
            },
            {
              "internalType": "uint256",
              "name": "stableBorrowLastUpdateTimestamp",
              "type": "uint256"
            },
            {
              "internalType": "uint256",
              "name": "aTokenincentivesUserIndex",
              "type": "uint256"
            },
            {
              "internalType": "uint256",
              "name": "vTokenincentivesUserIndex",
              "type": "uint256"
            },
            {
              "internalType": "uint256",
              "name": "sTokenincentivesUserIndex",
              "type": "uint256"
            }
          ],
          "internalType": "struct IUiPoolDataProvider.UserReserveData[]",
          "name": "",
          "type": "tuple[]"
        },
        {
          "internalType": "uint256",
          "name": "",
          "type": "uint256"
        },
        {
          "internalType": "uint256",
          "name": "",
          "type": "uint256"
        }
      ],
      "stateMutability": "view",
      "type": "function"
    },
    {
      "inputs": [],
      "name": "incentivesController",
      "outputs": [
        {
          "internalType": "contract IAaveIncentivesController",
          "name": "",
          "type": "address"
        }
      ],
      "stateMutability": "view",
      "type": "function"
    },
    {
      "inputs": [],
      "name": "oracle",
      "outputs": [
        {
          "internalType": "contract IPriceOracleGetter",
          "name": "",
          "type": "address"
        }
      ],
      "stateMutability": "view",
      "type": "function"
    }
  ],
  "bytecode": "0x60c06040523480156200001157600080fd5b506040516200219738038062002197833981016040819052620000349162000053565b6001600160601b0319606092831b8116608052911b1660a052620000aa565b6000806040838503121562000066578182fd5b8251620000738162000091565b6020840151909250620000868162000091565b809150509250929050565b6001600160a01b0381168114620000a757600080fd5b50565b60805160601c60a05160601c61208d6200010a6000398060a4528061048752806110685250806107f8528061083a52806108ed52806109a05280610a505280610a775280610b365280610bf6528061111852806111c9525061208d6000f3fe608060405234801561001057600080fd5b506004361061004c5760003560e01c80637dc0d1d01461005157806387e40db71461006f578063af1df25514610092578063b8c0a5b11461009a575b600080fd5b6100596100a2565b6040516100669190611e85565b60405180910390f35b61008261007d3660046118ef565b6100c6565b6040516100669493929190611eb3565b6100596111c7565b6100596111eb565b7f000000000000000000000000000000000000000000000000000000000000000081565b6060806000806000866001600160a01b0316630261bf8b6040518163ffffffff1660e01b815260040160206040518083038186803b15801561010757600080fd5b505afa15801561011b573d6000803e3d6000fd5b505050506040513d601f19601f8201168201806040525081019061013f9190611821565b90506060816001600160a01b031663d1946dbc6040518163ffffffff1660e01b815260040160006040518083038186803b15801561017c57600080fd5b505afa158015610190573d6000803e3d6000fd5b505050506040513d6000823e601f3d908101601f191682016040526101b89190810190611844565b90506101c261151b565b604051634417a58360e01b81526001600160a01b03841690634417a583906101ee908b90600401611e85565b60206040518083038186803b15801561020657600080fd5b505afa15801561021a573d6000803e3d6000fd5b505050506040513d601f19601f8201168201806040525081019061023e9190611abb565b90506060825167ffffffffffffffff8111801561025a57600080fd5b5060405190808252806020026020018201604052801561029457816020015b61028161152e565b8152602001906001900390816102795790505b50905060606001600160a01b038a166102ae5760006102b1565b83515b67ffffffffffffffff811180156102c757600080fd5b5060405190808252806020026020018201604052801561030157816020015b6102ee6116e3565b8152602001906001900390816102e65790505b50905060005b84518110156110635761031861152e565b83828151811061032457fe5b6020026020010151905085828151811061033a57fe5b60209081029190910101516001600160a01b03168152610358611741565b81516040516335ea6a7560e01b81526001600160a01b038a16916335ea6a75916103859190600401611e85565b6101a06040518083038186803b15801561039e57600080fd5b505afa1580156103b2573d6000803e3d6000fd5b505050506040513d601f19601f820116820180604052508101906103d691906119b3565b60208101516001600160801b039081166102008501526040808301518216610220860152606083015182166102408601526080830151821661026086015260a083015190911661028085015260c082015164ffffffffff166102a085015260e08201516001600160a01b039081166102c086015261010083015181166102e0860152610120830151811661030086015261014083015181166103208601528451915163b3596f0760e01b81529293507f0000000000000000000000000000000000000000000000000000000000000000169163b3596f07916104ba91600401611e85565b60206040518083038186803b1580156104d257600080fd5b505afa1580156104e6573d6000803e3d6000fd5b505050506040513d601f19601f8201168201806040525081019061050a9190611ad6565b6103e083015281516102c08301516040516370a0823160e01b81526001600160a01b03909216916370a082319161054391600401611e85565b60206040518083038186803b15801561055b57600080fd5b505afa15801561056f573d6000803e3d6000fd5b505050506040513d601f19601f820116820180604052508101906105939190611ad6565b82610340018181525050816102e001516001600160a01b031663797743386040518163ffffffff1660e01b815260040160806040518083038186803b1580156105db57600080fd5b505afa1580156105ef573d6000803e3d6000fd5b505050506040513d601f19601f820116820180604052508101906106139190611b1b565b64ffffffffff166103a0860152610380850152506103608301526103008201516040805163b1bf962d60e01b815290516001600160a01b039092169163b1bf962d91600480820192602092909190829003018186803b15801561067557600080fd5b505afa158015610689573d6000803e3d6000fd5b505050506040513d601f19601f820116820180604052508101906106ad9190611ad6565b826103c0018181525050816102c001516001600160a01b03166395d89b416040518163ffffffff1660e01b815260040160006040518083038186803b1580156106f557600080fd5b505afa158015610709573d6000803e3d6000fd5b505050506040513d6000823e601f3d908101601f191682016040526107319190810190611927565b604080840191909152805160208082019092526000815290830152805161075790611203565b60e0870152606086015260c085015260a08401526080830152805161077b9061122e565b610120840152610100830152805161079290611247565b15156101e08701521515610180860152151561016085015215156101c084015215156101a0830152608082015115156101408301526103208201516107d69061128f565b6104608601526104408501526104208401526104008301526001600160a01b037f00000000000000000000000000000000000000000000000000000000000000001615610a37576102c0820151604051631652e7b760e01b81526001600160a01b037f00000000000000000000000000000000000000000000000000000000000000001691631652e7b79161086e9190600401611e85565b60606040518083038186803b15801561088657600080fd5b505afa15801561089a573d6000803e3d6000fd5b505050506040513d601f19601f820116820180604052508101906108be9190611aee565b6105408501526104e08401526104808301526102e0820151604051631652e7b760e01b81526001600160a01b037f00000000000000000000000000000000000000000000000000000000000000001691631652e7b7916109219190600401611e85565b60606040518083038186803b15801561093957600080fd5b505afa15801561094d573d6000803e3d6000fd5b505050506040513d601f19601f820116820180604052508101906109719190611aee565b6105808501526105208401526104c0830152610300820151604051631652e7b760e01b81526001600160a01b037f00000000000000000000000000000000000000000000000000000000000000001691631652e7b7916109d49190600401611e85565b60606040518083038186803b1580156109ec57600080fd5b505afa158015610a00573d6000803e3d6000fd5b505050506040513d601f19601f82011682018060405250810190610a249190611aee565b6105608501526105008401526104a08301525b6001600160a01b038d1615611059576001600160a01b037f00000000000000000000000000000000000000000000000000000000000000001615610cb5577f00000000000000000000000000000000000000000000000000000000000000006001600160a01b0316633373ee4c8e846102c001516040518363ffffffff1660e01b8152600401610ac8929190611e99565b60206040518083038186803b158015610ae057600080fd5b505afa158015610af4573d6000803e3d6000fd5b505050506040513d601f19601f82011682018060405250810190610b189190611ad6565b848481518110610b2457fe5b602002602001015160e00181815250507f00000000000000000000000000000000000000000000000000000000000000006001600160a01b0316633373ee4c8e8461030001516040518363ffffffff1660e01b8152600401610b87929190611e99565b60206040518083038186803b158015610b9f57600080fd5b505afa158015610bb3573d6000803e3d6000fd5b505050506040513d601f19601f82011682018060405250810190610bd79190611ad6565b848481518110610be357fe5b60200260200101516101000181815250507f00000000000000000000000000000000000000000000000000000000000000006001600160a01b0316633373ee4c8e846102e001516040518363ffffffff1660e01b8152600401610c47929190611e99565b60206040518083038186803b158015610c5f57600080fd5b505afa158015610c73573d6000803e3d6000fd5b505050506040513d601f19601f82011682018060405250810190610c979190611ad6565b848481518110610ca357fe5b60200260200101516101200181815250505b8160000151848481518110610cc657fe5b6020026020010151600001906001600160a01b031690816001600160a01b031681525050816102c001516001600160a01b0316631da24f3e8e6040518263ffffffff1660e01b8152600401610d1b9190611e85565b60206040518083038186803b158015610d3357600080fd5b505afa158015610d47573d6000803e3d6000fd5b505050506040513d601f19601f82011682018060405250810190610d6b9190611ad6565b848481518110610d7757fe5b6020908102919091018101510152610d8f8684611468565b848481518110610d9b57fe5b6020908102919091010151901515604090910152610db986846114ca565b15611059578161030001516001600160a01b0316631da24f3e8e6040518263ffffffff1660e01b8152600401610def9190611e85565b60206040518083038186803b158015610e0757600080fd5b505afa158015610e1b573d6000803e3d6000fd5b505050506040513d601f19601f82011682018060405250810190610e3f9190611ad6565b848481518110610e4b57fe5b60200260200101516080018181525050816102e001516001600160a01b031663c634dfaa8e6040518263ffffffff1660e01b8152600401610e8c9190611e85565b60206040518083038186803b158015610ea457600080fd5b505afa158015610eb8573d6000803e3d6000fd5b505050506040513d601f19601f82011682018060405250810190610edc9190611ad6565b848481518110610ee857fe5b602002602001015160a0018181525050838381518110610f0457fe5b602002602001015160a0015160001461105957816102e001516001600160a01b031663e78c9b3b8e6040518263ffffffff1660e01b8152600401610f489190611e85565b60206040518083038186803b158015610f6057600080fd5b505afa158015610f74573d6000803e3d6000fd5b505050506040513d601f19601f82011682018060405250810190610f989190611ad6565b848481518110610fa457fe5b60200260200101516060018181525050816102e001516001600160a01b03166379ce6b8c8e6040518263ffffffff1660e01b8152600401610fe59190611e85565b60206040518083038186803b158015610ffd57600080fd5b505afa158015611011573d6000803e3d6000fd5b505050506040513d601f19601f820116820180604052508101906110359190611b5b565b64ffffffffff1684848151811061104857fe5b602002602001015160c00181815250505b5050600101610307565b5081817f00000000000000000000000000000000000000000000000000000000000000006001600160a01b031663b3596f077310f7fc1f91ba351f9c629c5947ad69bd03c05b966040518263ffffffff1660e01b81526004016110c69190611e85565b60206040518083038186803b1580156110de57600080fd5b505afa1580156110f2573d6000803e3d6000fd5b505050506040513d601f19601f820116820180604052508101906111169190611ad6565b7f00000000000000000000000000000000000000000000000000000000000000006001600160a01b031663198fa81e8e6040518263ffffffff1660e01b81526004016111629190611e85565b60206040518083038186803b15801561117a57600080fd5b505afa15801561118e573d6000803e3d6000fd5b505050506040513d601f19601f820116820180604052508101906111b29190611ad6565b929e919d509b50909950975050505050505050565b7f000000000000000000000000000000000000000000000000000000000000000081565b7310f7fc1f91ba351f9c629c5947ad69bd03c05b9681565b5161ffff80821692601083901c821692602081901c831692603082901c60ff169260409290921c1690565b8051640fffffffff605082901c81169160741c16915091565b51670100000000000000811615159167020000000000000082161515916704000000000000008116151591670800000000000000821615159167100000000000000016151590565b600080600080846001600160a01b0316637b832f586040518163ffffffff1660e01b815260040160206040518083038186803b1580156112ce57600080fd5b505afa1580156112e2573d6000803e3d6000fd5b505050506040513d601f19601f820116820180604052508101906113069190611ad6565b856001600160a01b03166365614f816040518163ffffffff1660e01b815260040160206040518083038186803b15801561133f57600080fd5b505afa158015611353573d6000803e3d6000fd5b505050506040513d601f19601f820116820180604052508101906113779190611ad6565b866001600160a01b0316630bdf953f6040518163ffffffff1660e01b815260040160206040518083038186803b1580156113b057600080fd5b505afa1580156113c4573d6000803e3d6000fd5b505050506040513d601f19601f820116820180604052508101906113e89190611ad6565b876001600160a01b031663ccab01a36040518163ffffffff1660e01b815260040160206040518083038186803b15801561142157600080fd5b505afa158015611435573d6000803e3d6000fd5b505050506040513d601f19601f820116820180604052508101906114599190611ad6565b93509350935093509193509193565b60006080821060405180604001604052806002815260200161373760f01b815250906114b05760405162461bcd60e51b81526004016114a79190611fc2565b60405180910390fd5b5050815160016002830281019190911c1615155b92915050565b60006080821060405180604001604052806002815260200161373760f01b815250906115095760405162461bcd60e51b81526004016114a79190611fc2565b50509051600160029092021c16151590565b6040518060200160405280600081525090565b604051806105a0016040528060006001600160a01b0316815260200160608152602001606081526020016000815260200160008152602001600081526020016000815260200160008152602001600081526020016000815260200160001515815260200160001515815260200160001515815260200160001515815260200160001515815260200160001515815260200160006001600160801b0316815260200160006001600160801b0316815260200160006001600160801b0316815260200160006001600160801b0316815260200160006001600160801b03168152602001600064ffffffffff16815260200160006001600160a01b0316815260200160006001600160a01b0316815260200160006001600160a01b0316815260200160006001600160a01b03168152602001600081526020016000815260200160008152602001600081526020016000815260200160008152602001600081526020016000815260200160008152602001600081526020016000815260200160008152602001600081526020016000815260200160008152602001600081526020016000815260200160008152602001600081525090565b60405180610140016040528060006001600160a01b0316815260200160008152602001600015158152602001600081526020016000815260200160008152602001600081526020016000815260200160008152602001600081525090565b604051806101a0016040528061175561151b565b815260006020820181905260408201819052606082018190526080820181905260a0820181905260c0820181905260e0820181905261010082018190526101208201819052610140820181905261016082018190526101809091015290565b80516114c48161202c565b6000602082840312156117d0578081fd5b6117da6020611fd5565b9151825250919050565b80516001600160801b03811681146114c457600080fd5b805164ffffffffff811681146114c457600080fd5b805160ff811681146114c457600080fd5b600060208284031215611832578081fd5b815161183d8161202c565b9392505050565b60006020808385031215611856578182fd5b825167ffffffffffffffff8082111561186d578384fd5b818501915085601f830112611880578384fd5b81518181111561188e578485fd5b838102915061189e848301611fd5565b8181528481019084860184860187018a10156118b8578788fd5b8795505b838610156118e2576118ce8a826117b4565b8352600195909501949186019186016118bc565b5098975050505050505050565b60008060408385031215611901578081fd5b823561190c8161202c565b9150602083013561191c8161202c565b809150509250929050565b600060208284031215611938578081fd5b815167ffffffffffffffff8082111561194f578283fd5b818401915084601f830112611962578283fd5b815181811115611970578384fd5b611983601f8201601f1916602001611fd5565b9150808252856020828501011115611999578384fd5b6119aa816020840160208601611ffc565b50949350505050565b60006101a08083850312156119c6578182fd5b6119cf81611fd5565b90506119db84846117bf565b81526119ea84602085016117e4565b60208201526119fc84604085016117e4565b6040820152611a0e84606085016117e4565b6060820152611a2084608085016117e4565b6080820152611a328460a085016117e4565b60a0820152611a448460c085016117fb565b60c0820152611a568460e085016117b4565b60e0820152610100611a6a858286016117b4565b90820152610120611a7d858583016117b4565b90820152610140611a90858583016117b4565b90820152610160611aa385858301611810565b90820152610180928301519281019290925250919050565b600060208284031215611acc578081fd5b61183d83836117bf565b600060208284031215611ae7578081fd5b5051919050565b600080600060608486031215611b02578081fd5b8351925060208401519150604084015190509250925092565b60008060008060808587031215611b30578081fd5b8451935060208501519250604085015191506060850151611b5081612044565b939692955090935050565b600060208284031215611b6c578081fd5b815161183d81612044565b6001600160a01b03169052565b15159052565b60008151808452611ba2816020860160208601611ffc565b601f01601f19169290920160200192915050565b60006105a0611bc6848451611b77565b6020830151816020860152611bdd82860182611b8a565b91505060408301518482036040860152611bf78282611b8a565b915050606083015160608501526080830151608085015260a083015160a085015260c083015160c085015260e083015160e085015261010080840151818601525061012080840151818601525061014080840151611c5782870182611b84565b505061016080840151611c6c82870182611b84565b505061018080840151611c8182870182611b84565b50506101a080840151611c9682870182611b84565b50506101c080840151611cab82870182611b84565b50506101e080840151611cc082870182611b84565b505061020080840151611cd582870182611e6d565b505061022080840151611cea82870182611e6d565b505061024080840151611cff82870182611e6d565b505061026080840151611d1482870182611e6d565b505061028080840151611d2982870182611e6d565b50506102a080840151611d3e82870182611e7a565b50506102c080840151611d5382870182611b77565b50506102e080840151611d6882870182611b77565b505061030080840151611d7d82870182611b77565b505061032080840151611d9282870182611b77565b50506103408381015190850152610360808401519085015261038080840151908501526103a080840151908501526103c080840151908501526103e08084015190850152610400808401519085015261042080840151908501526104408084015190850152610460808401519085015261048080840151908501526104a080840151908501526104c080840151908501526104e0808401519085015261050080840151908501526105208084015190850152610540808401519085015261056080840151908501526105809283015192909301919091525090565b6001600160801b03169052565b64ffffffffff169052565b6001600160a01b0391909116815260200190565b6001600160a01b0392831681529116602082015260400190565b608080825285518282018190526000919060a09081850190602080820287018401818c01875b84811015611f0757609f198a8403018652611ef5838351611bb6565b95840195925090830190600101611ed9565b5050878103828901528a5180825290820193509150898101865b83811015611fa9578151611f36868251611b77565b8381015184870152604080820151611f5082890182611b84565b5050606081810151908701528781015188870152868101518787015260c0808201519087015260e08082015190870152610100808201519087015261012090810151908601526101409094019390820190600101611f21565b5050505060408501969096525050506060015292915050565b60006020825261183d6020830184611b8a565b60405181810167ffffffffffffffff81118282101715611ff457600080fd5b604052919050565b60005b83811015612017578181015183820152602001611fff565b83811115612026576000848401525b50505050565b6001600160a01b038116811461204157600080fd5b50565b64ffffffffff8116811461204157600080fdfea264697066735822122040f0e19eda0a860d0a95287f6744929d12ecb74873313e7114be8f51a07f447064736f6c634300060c0033",
  "linkReferences": {},
  "deployedLinkReferences": {}
}