{
  "_format": "hh-sol-artifact-1",
  "contractName": "GenericLogic",
  "sourceName": "contracts/protocol/libraries/logic/GenericLogic.sol",
  "abi": [
    {
      "inputs": [],
      "name": "HEALTH_FACTOR_LIQUIDATION_THRESHOLD",
      "outputs": [
        {
          "internalType": "uint256",
          "name": "",
          "type": "uint256"
        }
      ],
      "stateMutability": "view",
      "type": "function"
    }
  ],
  "bytecode": "0x610df3610026600b82828239805160001a60731461001957fe5b30600052607381538281f3fe73000000000000000000000000000000000000000030146080604052600436106100405760003560e01c8063c0046d4914610045578063c3525c2814610073575b600080fd5b610058610053366004610c60565b610088565b60405161006a96959493929190610d7b565b60405180910390f35b61007b6100bb565b60405161006a9190610d72565b60008060008060008061009f8c8c8c8c8c8c6100c7565b9550955095509550955095505b96509650965096509650969050565b670de0b6b3a764000081565b6000806000806000806100d8610bbc565b6100e18b61064d565b15610103576000806000806000196000965096509650965096509650506100ac565b60006101408201525b8881610140015110156105965761014081015161012a908c90610656565b61013357610585565b610140810151600090815260208b905260409020546001600160a01b0316610240820181905261016257610585565b6102408101516001600160a01b0316600090815260208d905260409020610188816106b3565b5060e0860181905261012086019290925250610100840191909152600a0a602083015261024082015160405163b3596f0760e01b81526001600160a01b038b169163b3596f07916101dc9190600401610d0b565b60206040518083038186803b1580156101f457600080fd5b505afa158015610208573d6000803e3d6000fd5b505050506040513d601f19601f8201168201806040525081019061022c9190610cf3565b82526101208201511580159061024e575061014082015161024e908d906106de565b156103c15761025c81610736565b826102000181815250508060040160009054906101000a90046001600160a01b03166001600160a01b0316631da24f3e8f6040518263ffffffff1660e01b81526004016102a99190610d0b565b60206040518083038186803b1580156102c157600080fd5b505afa1580156102d5573d6000803e3d6000fd5b505050506040513d601f19601f820116820180604052508101906102f99190610cf3565b6040830181905261020083015161031091906107a3565b60408301819052602083015183516103329261032c9190610836565b9061085a565b6060830181905261018083015161034891610865565b6101808301526101008201516060830151610373916103679190610836565b6101c084015190610865565b6101c08301526102608201518061038d5750610100820151155b151561026083015261012082015160608301516103ba916103ae9190610836565b6101e084015190610865565b6101e08301525b6101408201516103d2908d90610875565b15610583578060050160009054906101000a90046001600160a01b03166001600160a01b03166370a082318f6040518263ffffffff1660e01b815260040161041a9190610d0b565b60206040518083038186803b15801561043257600080fd5b505afa158015610446573d6000803e3d6000fd5b505050506040513d601f19601f8201168201806040525081019061046a9190610cf3565b8260a00181815250508060060160009054906101000a90046001600160a01b03166001600160a01b0316631da24f3e8f6040518263ffffffff1660e01b81526004016104b69190610d0b565b60206040518083038186803b1580156104ce57600080fd5b505afa1580156104e2573d6000803e3d6000fd5b505050506040513d601f19601f820116820180604052508101906105069190610cf3565b60808301819052156105375761051b816108c6565b61022083018190526080830151610531916107a3565b60808301525b60a0820151608083015161054a91610865565b60808301819052602083015183516105669261032c9190610836565b60c083018190526101a083015161057c91610865565b6101a08301525b505b61014081018051600101905261010c565b6000816101800151116105aa5760006105bf565b6101808101516101c08201516105bf9161085a565b6101c08201526101808101516105d65760006105eb565b6101808101516101e08201516105eb9161085a565b6101e082018190526101808201516101a083015161060892610935565b61016082018190526101808201516101a08301516101c08401516101e085015161026090950151929a5090985096509194509250905096509650965096509650969050565b8051155b919050565b60006080821060405180604001604052806002815260200161373760f01b8152509061069e5760405162461bcd60e51b81526004016106959190610d1f565b60405180910390fd5b50508151600282021c60031615155b92915050565b5461ffff80821692601083901c821692602081901c831692603082901c60ff169260409290921c1690565b60006080821060405180604001604052806002815260200161373760f01b8152509061071d5760405162461bcd60e51b81526004016106959190610d1f565b5050815160016002830281019190911c16151592915050565b600381015460009064ffffffffff600160801b909104811690421681141561076d57505060018101546001600160801b0316610651565b6001830154600284015460009161079b916001600160801b0391821691610795911685610963565b906107a3565b949350505050565b60008215806107b0575081155b156107bd575060006106ad565b816b019d971e4fe8401e7400000019816107d357fe5b0483111560405180604001604052806002815260200161068760f31b815250906108105760405162461bcd60e51b81526004016106959190610d1f565b506b033b2e3c9fd0803ce80000006002815b04838502018161082e57fe5b049392505050565b60008215806108515750508181028183828161084e57fe5b04145b6106ad57600080fd5b600081838161082e57fe5b808201828110156106ad57600080fd5b60006080821060405180604001604052806002815260200161373760f01b815250906108b45760405162461bcd60e51b81526004016106959190610d1f565b50509051600160029092021c16151590565b600381015460009064ffffffffff600160801b90910481169042168114156109045750506001810154600160801b90046001600160801b0316610651565b6001830154600284015460009161079b916001600160801b03600160801b92839004811692610795920416856109a1565b600082610945575060001961095c565b6109598361095386856109ae565b90610a1d565b90505b9392505050565b6000806109774264ffffffffff8516610ac0565b905061079b610984610ad0565b6301e133806109938785610836565b8161099a57fe5b0490610865565b600061095c838342610ae0565b60008215806109bb575081155b156109c8575060006106ad565b8161138819816109d457fe5b0483111560405180604001604052806002815260200161068760f31b81525090610a115760405162461bcd60e51b81526004016106959190610d1f565b50612710600281610822565b604080518082019091526002815261035360f41b602082015260009082610a575760405162461bcd60e51b81526004016106959190610d1f565b5060408051808201909152600280825261068760f31b6020830152830490670de0b6b3a7640000821904851115610aa15760405162461bcd60e51b81526004016106959190610d1f565b508281670de0b6b3a764000086020181610ab757fe5b04949350505050565b808203828111156106ad57600080fd5b6b033b2e3c9fd0803ce800000090565b600080610af48364ffffffffff8616610ac0565b905080610b0b57610b03610ad0565b91505061095c565b6000198101600060028311610b21576000610b26565b600283035b90506301e1338087046000610b3b82806107a3565b90506000610b4982846107a3565b905060006002610b6384610b5d8a8a610836565b90610836565b81610b6a57fe5b04905060006006610b8184610b5d89818d8d610836565b81610b8857fe5b049050610bac81610ba68481610b9e8a8e610836565b610ba6610ad0565b90610865565b9c9b505050505050505050505050565b60405180610280016040528060008152602001600081526020016000815260200160008152602001600081526020016000815260200160008152602001600081526020016000815260200160008152602001600081526020016000815260200160008152602001600081526020016000815260200160008152602001600081526020016000815260200160006001600160a01b031681526020016000151581525090565b60008060008060008086880360c0811215610c79578283fd5b8735610c8481610da5565b96506020888101359650603f1982011215610c9d578283fd5b506040516020810181811067ffffffffffffffff82111715610cbd578384fd5b604090815288013581529350606087013592506080870135915060a0870135610ce581610da5565b809150509295509295509295565b600060208284031215610d04578081fd5b5051919050565b6001600160a01b0391909116815260200190565b6000602080835283518082850152825b81811015610d4b57858101830151858201604001528201610d2f565b81811115610d5c5783604083870101525b50601f01601f1916929092016040019392505050565b90815260200190565b9586526020860194909452604085019290925260608401526080830152151560a082015260c00190565b6001600160a01b0381168114610dba57600080fd5b5056fea2646970667358221220cd45d76d654e06b8ce2ca3893106887234cb737ce107eff53c877e66fa2b9c0b64736f6c634300060c0033",
  "linkReferences": {},
  "deployedLinkReferences": {}
}