{
  "_format": "hh-sol-artifact-1",
  "contractName": "LendingPool",
  "sourceName": "contracts/protocol/lendingpool/LendingPool.sol",
  "abi": [
    {
      "anonymous": false,
      "inputs": [
        {
          "indexed": true,
          "internalType": "address",
          "name": "reserve",
          "type": "address"
        },
        {
          "indexed": false,
          "internalType": "address",
          "name": "user",
          "type": "address"
        },
        {
          "indexed": true,
          "internalType": "address",
          "name": "onBehalfOf",
          "type": "address"
        },
        {
          "indexed": false,
          "internalType": "uint256",
          "name": "amount",
          "type": "uint256"
        },
        {
          "indexed": false,
          "internalType": "uint256",
          "name": "borrowRateMode",
          "type": "uint256"
        },
        {
          "indexed": false,
          "internalType": "uint256",
          "name": "borrowRate",
          "type": "uint256"
        },
        {
          "indexed": true,
          "internalType": "uint16",
          "name": "referral",
          "type": "uint16"
        }
      ],
      "name": "Borrow",
      "type": "event"
    },
    {
      "anonymous": false,
      "inputs": [
        {
          "indexed": true,
          "internalType": "address",
          "name": "reserve",
          "type": "address"
        },
        {
          "indexed": false,
          "internalType": "address",
          "name": "user",
          "type": "address"
        },
        {
          "indexed": true,
          "internalType": "address",
          "name": "onBehalfOf",
          "type": "address"
        },
        {
          "indexed": false,
          "internalType": "uint256",
          "name": "amount",
          "type": "uint256"
        },
        {
          "indexed": true,
          "internalType": "uint16",
          "name": "referral",
          "type": "uint16"
        }
      ],
      "name": "Deposit",
      "type": "event"
    },
    {
      "anonymous": false,
      "inputs": [
        {
          "indexed": true,
          "internalType": "address",
          "name": "target",
          "type": "address"
        },
        {
          "indexed": true,
          "internalType": "address",
          "name": "initiator",
          "type": "address"
        },
        {
          "indexed": true,
          "internalType": "address",
          "name": "asset",
          "type": "address"
        },
        {
          "indexed": false,
          "internalType": "uint256",
          "name": "amount",
          "type": "uint256"
        },
        {
          "indexed": false,
          "internalType": "uint256",
          "name": "premium",
          "type": "uint256"
        },
        {
          "indexed": false,
          "internalType": "uint16",
          "name": "referralCode",
          "type": "uint16"
        }
      ],
      "name": "FlashLoan",
      "type": "event"
    },
    {
      "anonymous": false,
      "inputs": [
        {
          "indexed": true,
          "internalType": "address",
          "name": "collateralAsset",
          "type": "address"
        },
        {
          "indexed": true,
          "internalType": "address",
          "name": "debtAsset",
          "type": "address"
        },
        {
          "indexed": true,
          "internalType": "address",
          "name": "user",
          "type": "address"
        },
        {
          "indexed": false,
          "internalType": "uint256",
          "name": "debtToCover",
          "type": "uint256"
        },
        {
          "indexed": false,
          "internalType": "uint256",
          "name": "liquidatedCollateralAmount",
          "type": "uint256"
        },
        {
          "indexed": false,
          "internalType": "address",
          "name": "liquidator",
          "type": "address"
        },
        {
          "indexed": false,
          "internalType": "bool",
          "name": "receiveAToken",
          "type": "bool"
        }
      ],
      "name": "LiquidationCall",
      "type": "event"
    },
    {
      "anonymous": false,
      "inputs": [
        {
          "indexed": true,
          "internalType": "address",
          "name": "reserve",
          "type": "address"
        },
        {
          "indexed": false,
          "internalType": "uint256",
          "name": "amountMinted",
          "type": "uint256"
        }
      ],
      "name": "MintedToTreasury",
      "type": "event"
    },
    {
      "anonymous": false,
      "inputs": [
        {
          "indexed": true,
          "internalType": "address",
          "name": "reserve",
          "type": "address"
        },
        {
          "indexed": true,
          "internalType": "address",
          "name": "user",
          "type": "address"
        }
      ],
      "name": "RebalanceStableBorrowRate",
      "type": "event"
    },
    {
      "anonymous": false,
      "inputs": [
        {
          "indexed": true,
          "internalType": "address",
          "name": "reserve",
          "type": "address"
        },
        {
          "indexed": true,
          "internalType": "address",
          "name": "user",
          "type": "address"
        },
        {
          "indexed": true,
          "internalType": "address",
          "name": "repayer",
          "type": "address"
        },
        {
          "indexed": false,
          "internalType": "uint256",
          "name": "amount",
          "type": "uint256"
        }
      ],
      "name": "Repay",
      "type": "event"
    },
    {
      "anonymous": false,
      "inputs": [
        {
          "indexed": true,
          "internalType": "address",
          "name": "reserve",
          "type": "address"
        },
        {
          "indexed": false,
          "internalType": "uint256",
          "name": "liquidityRate",
          "type": "uint256"
        },
        {
          "indexed": false,
          "internalType": "uint256",
          "name": "stableBorrowRate",
          "type": "uint256"
        },
        {
          "indexed": false,
          "internalType": "uint256",
          "name": "variableBorrowRate",
          "type": "uint256"
        },
        {
          "indexed": false,
          "internalType": "uint256",
          "name": "liquidityIndex",
          "type": "uint256"
        },
        {
          "indexed": false,
          "internalType": "uint256",
          "name": "variableBorrowIndex",
          "type": "uint256"
        }
      ],
      "name": "ReserveDataUpdated",
      "type": "event"
    },
    {
      "anonymous": false,
      "inputs": [
        {
          "indexed": true,
          "internalType": "address",
          "name": "reserve",
          "type": "address"
        },
        {
          "indexed": true,
          "internalType": "address",
          "name": "user",
          "type": "address"
        }
      ],
      "name": "ReserveUsedAsCollateralDisabled",
      "type": "event"
    },
    {
      "anonymous": false,
      "inputs": [
        {
          "indexed": true,
          "internalType": "address",
          "name": "reserve",
          "type": "address"
        },
        {
          "indexed": true,
          "internalType": "address",
          "name": "user",
          "type": "address"
        }
      ],
      "name": "ReserveUsedAsCollateralEnabled",
      "type": "event"
    },
    {
      "anonymous": false,
      "inputs": [
        {
          "indexed": true,
          "internalType": "address",
          "name": "reserve",
          "type": "address"
        },
        {
          "indexed": true,
          "internalType": "address",
          "name": "user",
          "type": "address"
        },
        {
          "indexed": false,
          "internalType": "uint256",
          "name": "rateMode",
          "type": "uint256"
        }
      ],
      "name": "Swap",
      "type": "event"
    },
    {
      "anonymous": false,
      "inputs": [
        {
          "indexed": true,
          "internalType": "address",
          "name": "reserve",
          "type": "address"
        },
        {
          "indexed": true,
          "internalType": "address",
          "name": "user",
          "type": "address"
        },
        {
          "indexed": true,
          "internalType": "address",
          "name": "to",
          "type": "address"
        },
        {
          "indexed": false,
          "internalType": "uint256",
          "name": "amount",
          "type": "uint256"
        }
      ],
      "name": "Withdraw",
      "type": "event"
    },
    {
      "inputs": [],
      "name": "FLASHLOAN_PREMIUM_TOTAL",
      "outputs": [
        {
          "internalType": "uint256",
          "name": "",
          "type": "uint256"
        }
      ],
      "stateMutability": "view",
      "type": "function"
    },
    {
      "inputs": [],
      "name": "FLASHLOAN_PREMIUM_TO_PROTOCOL",
      "outputs": [
        {
          "internalType": "uint256",
          "name": "",
          "type": "uint256"
        }
      ],
      "stateMutability": "view",
      "type": "function"
    },
    {
      "inputs": [],
      "name": "LENDINGPOOL_REVISION",
      "outputs": [
        {
          "internalType": "uint256",
          "name": "",
          "type": "uint256"
        }
      ],
      "stateMutability": "view",
      "type": "function"
    },
    {
      "inputs": [],
      "name": "MAX_NUMBER_RESERVES",
      "outputs": [
        {
          "internalType": "uint256",
          "name": "",
          "type": "uint256"
        }
      ],
      "stateMutability": "view",
      "type": "function"
    },
    {
      "inputs": [],
      "name": "MAX_STABLE_RATE_BORROW_SIZE_PERCENT",
      "outputs": [
        {
          "internalType": "uint256",
          "name": "",
          "type": "uint256"
        }
      ],
      "stateMutability": "view",
      "type": "function"
    },
    {
      "inputs": [
        {
          "internalType": "address",
          "name": "asset",
          "type": "address"
        },
        {
          "internalType": "uint256",
          "name": "amount",
          "type": "uint256"
        },
        {
          "internalType": "uint256",
          "name": "interestRateMode",
          "type": "uint256"
        },
        {
          "internalType": "uint16",
          "name": "referralCode",
          "type": "uint16"
        },
        {
          "internalType": "address",
          "name": "onBehalfOf",
          "type": "address"
        }
      ],
      "name": "borrow",
      "outputs": [],
      "stateMutability": "nonpayable",
      "type": "function"
    },
    {
      "inputs": [
        {
          "internalType": "address",
          "name": "asset",
          "type": "address"
        },
        {
          "internalType": "uint256",
          "name": "amount",
          "type": "uint256"
        },
        {
          "internalType": "address",
          "name": "onBehalfOf",
          "type": "address"
        },
        {
          "internalType": "uint16",
          "name": "referralCode",
          "type": "uint16"
        }
      ],
      "name": "deposit",
      "outputs": [],
      "stateMutability": "nonpayable",
      "type": "function"
    },
    {
      "inputs": [
        {
          "internalType": "address",
          "name": "asset",
          "type": "address"
        },
        {
          "internalType": "uint256",
          "name": "amount",
          "type": "uint256"
        },
        {
          "internalType": "address",
          "name": "onBehalfOf",
          "type": "address"
        },
        {
          "internalType": "uint16",
          "name": "referralCode",
          "type": "uint16"
        },
        {
          "internalType": "uint256",
          "name": "deadline",
          "type": "uint256"
        },
        {
          "internalType": "uint8",
          "name": "permitV",
          "type": "uint8"
        },
        {
          "internalType": "bytes32",
          "name": "permitR",
          "type": "bytes32"
        },
        {
          "internalType": "bytes32",
          "name": "permitS",
          "type": "bytes32"
        }
      ],
      "name": "depositWithPermit",
      "outputs": [],
      "stateMutability": "nonpayable",
      "type": "function"
    },
    {
      "inputs": [
        {
          "internalType": "address",
          "name": "asset",
          "type": "address"
        }
      ],
      "name": "dropReserve",
      "outputs": [],
      "stateMutability": "nonpayable",
      "type": "function"
    },
    {
      "inputs": [
        {
          "internalType": "address",
          "name": "asset",
          "type": "address"
        },
        {
          "internalType": "address",
          "name": "from",
          "type": "address"
        },
        {
          "internalType": "address",
          "name": "to",
          "type": "address"
        },
        {
          "internalType": "uint256",
          "name": "amount",
          "type": "uint256"
        },
        {
          "internalType": "uint256",
          "name": "balanceFromBefore",
          "type": "uint256"
        },
        {
          "internalType": "uint256",
          "name": "balanceToBefore",
          "type": "uint256"
        }
      ],
      "name": "finalizeTransfer",
      "outputs": [],
      "stateMutability": "nonpayable",
      "type": "function"
    },
    {
      "inputs": [
        {
          "internalType": "address",
          "name": "receiverAddress",
          "type": "address"
        },
        {
          "internalType": "address[]",
          "name": "assets",
          "type": "address[]"
        },
        {
          "internalType": "uint256[]",
          "name": "amounts",
          "type": "uint256[]"
        },
        {
          "internalType": "uint256[]",
          "name": "modes",
          "type": "uint256[]"
        },
        {
          "internalType": "address",
          "name": "onBehalfOf",
          "type": "address"
        },
        {
          "internalType": "bytes",
          "name": "params",
          "type": "bytes"
        },
        {
          "internalType": "uint16",
          "name": "referralCode",
          "type": "uint16"
        }
      ],
      "name": "flashLoan",
      "outputs": [],
      "stateMutability": "nonpayable",
      "type": "function"
    },
    {
      "inputs": [],
      "name": "getAddressesProvider",
      "outputs": [
        {
          "internalType": "contract ILendingPoolAddressesProvider",
          "name": "",
          "type": "address"
        }
      ],
      "stateMutability": "view",
      "type": "function"
    },
    {
      "inputs": [
        {
          "internalType": "address",
          "name": "asset",
          "type": "address"
        }
      ],
      "name": "getConfiguration",
      "outputs": [
        {
          "components": [
            {
              "internalType": "uint256",
              "name": "data",
              "type": "uint256"
            }
          ],
          "internalType": "struct DataTypes.ReserveConfigurationMap",
          "name": "",
          "type": "tuple"
        }
      ],
      "stateMutability": "view",
      "type": "function"
    },
    {
      "inputs": [
        {
          "internalType": "address",
          "name": "asset",
          "type": "address"
        }
      ],
      "name": "getReserveData",
      "outputs": [
        {
          "components": [
            {
              "components": [
                {
                  "internalType": "uint256",
                  "name": "data",
                  "type": "uint256"
                }
              ],
              "internalType": "struct DataTypes.ReserveConfigurationMap",
              "name": "configuration",
              "type": "tuple"
            },
            {
              "internalType": "uint128",
              "name": "liquidityIndex",
              "type": "uint128"
            },
            {
              "internalType": "uint128",
              "name": "variableBorrowIndex",
              "type": "uint128"
            },
            {
              "internalType": "uint128",
              "name": "currentLiquidityRate",
              "type": "uint128"
            },
            {
              "internalType": "uint128",
              "name": "currentVariableBorrowRate",
              "type": "uint128"
            },
            {
              "internalType": "uint128",
              "name": "currentStableBorrowRate",
              "type": "uint128"
            },
            {
              "internalType": "uint40",
              "name": "lastUpdateTimestamp",
              "type": "uint40"
            },
            {
              "internalType": "address",
              "name": "aTokenAddress",
              "type": "address"
            },
            {
              "internalType": "address",
              "name": "stableDebtTokenAddress",
              "type": "address"
            },
            {
              "internalType": "address",
              "name": "variableDebtTokenAddress",
              "type": "address"
            },
            {
              "internalType": "address",
              "name": "interestRateStrategyAddress",
              "type": "address"
            },
            {
              "internalType": "uint8",
              "name": "id",
              "type": "uint8"
            },
            {
              "internalType": "uint256",
              "name": "accruedToTreasury",
              "type": "uint256"
            }
          ],
          "internalType": "struct DataTypes.ReserveData",
          "name": "",
          "type": "tuple"
        }
      ],
      "stateMutability": "view",
      "type": "function"
    },
    {
      "inputs": [
        {
          "internalType": "address",
          "name": "asset",
          "type": "address"
        }
      ],
      "name": "getReserveNormalizedIncome",
      "outputs": [
        {
          "internalType": "uint256",
          "name": "",
          "type": "uint256"
        }
      ],
      "stateMutability": "view",
      "type": "function"
    },
    {
      "inputs": [
        {
          "internalType": "address",
          "name": "asset",
          "type": "address"
        }
      ],
      "name": "getReserveNormalizedVariableDebt",
      "outputs": [
        {
          "internalType": "uint256",
          "name": "",
          "type": "uint256"
        }
      ],
      "stateMutability": "view",
      "type": "function"
    },
    {
      "inputs": [],
      "name": "getReservesList",
      "outputs": [
        {
          "internalType": "address[]",
          "name": "",
          "type": "address[]"
        }
      ],
      "stateMutability": "view",
      "type": "function"
    },
    {
      "inputs": [
        {
          "internalType": "address",
          "name": "user",
          "type": "address"
        }
      ],
      "name": "getUserAccountData",
      "outputs": [
        {
          "internalType": "uint256",
          "name": "totalCollateralBase",
          "type": "uint256"
        },
        {
          "internalType": "uint256",
          "name": "totalDebtBase",
          "type": "uint256"
        },
        {
          "internalType": "uint256",
          "name": "availableBorrowsBase",
          "type": "uint256"
        },
        {
          "internalType": "uint256",
          "name": "currentLiquidationThreshold",
          "type": "uint256"
        },
        {
          "internalType": "uint256",
          "name": "ltv",
          "type": "uint256"
        },
        {
          "internalType": "uint256",
          "name": "healthFactor",
          "type": "uint256"
        }
      ],
      "stateMutability": "view",
      "type": "function"
    },
    {
      "inputs": [
        {
          "internalType": "address",
          "name": "user",
          "type": "address"
        }
      ],
      "name": "getUserConfiguration",
      "outputs": [
        {
          "components": [
            {
              "internalType": "uint256",
              "name": "data",
              "type": "uint256"
            }
          ],
          "internalType": "struct DataTypes.UserConfigurationMap",
          "name": "",
          "type": "tuple"
        }
      ],
      "stateMutability": "view",
      "type": "function"
    },
    {
      "inputs": [
        {
          "internalType": "address",
          "name": "asset",
          "type": "address"
        },
        {
          "internalType": "address",
          "name": "aTokenAddress",
          "type": "address"
        },
        {
          "internalType": "address",
          "name": "stableDebtAddress",
          "type": "address"
        },
        {
          "internalType": "address",
          "name": "variableDebtAddress",
          "type": "address"
        },
        {
          "internalType": "address",
          "name": "interestRateStrategyAddress",
          "type": "address"
        }
      ],
      "name": "initReserve",
      "outputs": [],
      "stateMutability": "nonpayable",
      "type": "function"
    },
    {
      "inputs": [
        {
          "internalType": "contract ILendingPoolAddressesProvider",
          "name": "provider",
          "type": "address"
        }
      ],
      "name": "initialize",
      "outputs": [],
      "stateMutability": "nonpayable",
      "type": "function"
    },
    {
      "inputs": [
        {
          "internalType": "address",
          "name": "flashBorrower",
          "type": "address"
        }
      ],
      "name": "isFlashBorrowerAuthorized",
      "outputs": [
        {
          "internalType": "bool",
          "name": "",
          "type": "bool"
        }
      ],
      "stateMutability": "view",
      "type": "function"
    },
    {
      "inputs": [
        {
          "internalType": "address",
          "name": "collateralAsset",
          "type": "address"
        },
        {
          "internalType": "address",
          "name": "debtAsset",
          "type": "address"
        },
        {
          "internalType": "address",
          "name": "user",
          "type": "address"
        },
        {
          "internalType": "uint256",
          "name": "debtToCover",
          "type": "uint256"
        },
        {
          "internalType": "bool",
          "name": "receiveAToken",
          "type": "bool"
        }
      ],
      "name": "liquidationCall",
      "outputs": [],
      "stateMutability": "nonpayable",
      "type": "function"
    },
    {
      "inputs": [
        {
          "internalType": "address[]",
          "name": "assets",
          "type": "address[]"
        }
      ],
      "name": "mintToTreasury",
      "outputs": [],
      "stateMutability": "nonpayable",
      "type": "function"
    },
    {
      "inputs": [],
      "name": "paused",
      "outputs": [
        {
          "internalType": "bool",
          "name": "",
          "type": "bool"
        }
      ],
      "stateMutability": "view",
      "type": "function"
    },
    {
      "inputs": [
        {
          "internalType": "address",
          "name": "asset",
          "type": "address"
        },
        {
          "internalType": "address",
          "name": "user",
          "type": "address"
        }
      ],
      "name": "rebalanceStableBorrowRate",
      "outputs": [],
      "stateMutability": "nonpayable",
      "type": "function"
    },
    {
      "inputs": [
        {
          "internalType": "address",
          "name": "asset",
          "type": "address"
        },
        {
          "internalType": "uint256",
          "name": "amount",
          "type": "uint256"
        },
        {
          "internalType": "uint256",
          "name": "rateMode",
          "type": "uint256"
        },
        {
          "internalType": "address",
          "name": "onBehalfOf",
          "type": "address"
        }
      ],
      "name": "repay",
      "outputs": [
        {
          "internalType": "uint256",
          "name": "",
          "type": "uint256"
        }
      ],
      "stateMutability": "nonpayable",
      "type": "function"
    },
    {
      "inputs": [
        {
          "internalType": "address",
          "name": "asset",
          "type": "address"
        },
        {
          "internalType": "uint256",
          "name": "amount",
          "type": "uint256"
        },
        {
          "internalType": "uint256",
          "name": "rateMode",
          "type": "uint256"
        },
        {
          "internalType": "address",
          "name": "onBehalfOf",
          "type": "address"
        },
        {
          "internalType": "uint256",
          "name": "deadline",
          "type": "uint256"
        },
        {
          "internalType": "uint8",
          "name": "permitV",
          "type": "uint8"
        },
        {
          "internalType": "bytes32",
          "name": "permitR",
          "type": "bytes32"
        },
        {
          "internalType": "bytes32",
          "name": "permitS",
          "type": "bytes32"
        }
      ],
      "name": "repayWithPermit",
      "outputs": [
        {
          "internalType": "uint256",
          "name": "",
          "type": "uint256"
        }
      ],
      "stateMutability": "nonpayable",
      "type": "function"
    },
    {
      "inputs": [
        {
          "internalType": "address",
          "name": "asset",
          "type": "address"
        },
        {
          "internalType": "uint256",
          "name": "configuration",
          "type": "uint256"
        }
      ],
      "name": "setConfiguration",
      "outputs": [],
      "stateMutability": "nonpayable",
      "type": "function"
    },
    {
      "inputs": [
        {
          "internalType": "bool",
          "name": "paused",
          "type": "bool"
        }
      ],
      "name": "setPause",
      "outputs": [],
      "stateMutability": "nonpayable",
      "type": "function"
    },
    {
      "inputs": [
        {
          "internalType": "address",
          "name": "asset",
          "type": "address"
        },
        {
          "internalType": "address",
          "name": "rateStrategyAddress",
          "type": "address"
        }
      ],
      "name": "setReserveInterestRateStrategyAddress",
      "outputs": [],
      "stateMutability": "nonpayable",
      "type": "function"
    },
    {
      "inputs": [
        {
          "internalType": "address",
          "name": "asset",
          "type": "address"
        },
        {
          "internalType": "bool",
          "name": "useAsCollateral",
          "type": "bool"
        }
      ],
      "name": "setUserUseReserveAsCollateral",
      "outputs": [],
      "stateMutability": "nonpayable",
      "type": "function"
    },
    {
      "inputs": [
        {
          "internalType": "address",
          "name": "asset",
          "type": "address"
        },
        {
          "internalType": "uint256",
          "name": "rateMode",
          "type": "uint256"
        }
      ],
      "name": "swapBorrowRateMode",
      "outputs": [],
      "stateMutability": "nonpayable",
      "type": "function"
    },
    {
      "inputs": [
        {
          "internalType": "address",
          "name": "flashBorrower",
          "type": "address"
        },
        {
          "internalType": "bool",
          "name": "authorized",
          "type": "bool"
        }
      ],
      "name": "updateFlashBorrowerAuthorization",
      "outputs": [],
      "stateMutability": "nonpayable",
      "type": "function"
    },
    {
      "inputs": [
        {
          "internalType": "uint256",
          "name": "flashLoanPremiumTotal",
          "type": "uint256"
        },
        {
          "internalType": "uint256",
          "name": "flashLoanPremiumToProtocol",
          "type": "uint256"
        }
      ],
      "name": "updateFlashloanPremiums",
      "outputs": [],
      "stateMutability": "nonpayable",
      "type": "function"
    },
    {
      "inputs": [
        {
          "internalType": "address",
          "name": "asset",
          "type": "address"
        },
        {
          "internalType": "uint256",
          "name": "amount",
          "type": "uint256"
        },
        {
          "internalType": "address",
          "name": "to",
          "type": "address"
        }
      ],
      "name": "withdraw",
      "outputs": [
        {
          "internalType": "uint256",
          "name": "",
          "type": "uint256"
        }
      ],
      "stateMutability": "nonpayable",
      "type": "function"
    }
  ],
  "bytecode": "0x60806040526000805534801561001457600080fd5b50615ea280620000256000396000f3fe608060405234801561001057600080fd5b506004361061021b5760003560e01c80639cd1999611610125578063cd112382116100ad578063e82fec2f1161007c578063e82fec2f14610494578063e8eda9df1461049c578063ee3e210b146104af578063f8119d51146104c2578063fe65acfe146104ca5761021b565b8063cd11238214610446578063d15e005314610459578063d1946dbc1461046c578063d5ed3933146104815761021b565b8063baf0759f116100f4578063baf0759f146103d5578063bedb86fb146103e8578063bf92857c146103fb578063c44b11f714610420578063c4d66de8146104335761021b565b80639cd1999614610389578063a415bcad1461039c578063ab9c4b5d146103af578063b8d29276146103c25761021b565b80635c975abb116101a85780637a708e92116101775780637a708e921461033557806382d84af514610348578063882946071461035b5780638afaff021461036e57806394ba89a2146103765761021b565b80635c975abb146102f257806363c9b8601461030757806369328dec1461031a5780636a99c0361461032d5761021b565b806335ea6a75116101ef57806335ea6a7514610279578063386497fd146102995780634417a583146102ac578063573ade81146102cc5780635a3b74b9146102df5761021b565b8062a718a914610220578063074b2e43146102355780631b350b9b146102535780631d2118f914610266575b600080fd5b61023361022e366004614ea0565b6104df565b005b61023d6106ad565b60405161024a9190615cd9565b60405180910390f35b6102336102613660046153c9565b6106b4565b610233610274366004614df8565b6106c7565b61028c610287366004614dc0565b610700565b60405161024a9190615bdd565b61023d6102a7366004614dc0565b6107ef565b6102bf6102ba366004614dc0565b610816565b60405161024a9190615bd3565b61023d6102da3660046151c5565b610849565b6102336102ed366004615055565b610860565b6102fa610b40565b60405161024a9190615a03565b610233610315366004614dc0565b610b49565b61023d6103283660046150ad565b610c51565b61023d610c68565b610233610343366004614e30565b610c6e565b610233610356366004615055565b610d51565b6102fa610369366004614dc0565b610d84565b61023d610da2565b610233610384366004615082565b610da7565b610233610397366004615292565b611118565b6102336103aa366004615253565b61125d565b6102336103bd366004614f5d565b6112ba565b6102336103d0366004615082565b611a3a565b6102336103e336600461513f565b611a5e565b6102336103f63660046152d2565b611ade565b61040e610409366004614dc0565b611af9565b60405161024a96959493929190615dea565b6102bf61042e366004614dc0565b611c64565b610233610441366004614dc0565b611c97565b610233610454366004614df8565b611d44565b61023d610467366004614dc0565b611fe0565b610474612001565b60405161024a91906159b6565b61023361048f366004614ef9565b612183565b61023d612485565b6102336104aa3660046150ee565b61248b565b61023d6104bd36600461520e565b61249d565b61023d612523565b6104d2612529565b60405161024a919061566d565b6034546040805163712d917160e01b815290516000926001600160a01b03169163712d9171916004808301926020929190829003018186803b15801561052457600080fd5b505afa158015610538573d6000803e3d6000fd5b505050506040513d601f19601f8201168201806040525081019061055c9190614ddc565b905060006060826001600160a01b03168888888888604051602401610585959493929190615793565b60408051601f198184030181529181526020820180516001600160e01b031662a718a960e01b179052516105b99190615651565b600060405180830381855af49150503d80600081146105f4576040519150601f19603f3d011682016040523d82523d6000602084013e6105f9565b606091505b50915091508160405180604001604052806002815260200161323360f01b815250906106415760405162461bcd60e51b81526004016106389190615a0e565b60405180910390fd5b50600060608280602001905181019061065a9190615322565b9150915081600014816040516020016106739190615651565b604051602081830303815290604052906106a05760405162461bcd60e51b81526004016106389190615a0e565b5050505050505050505050565b603b545b90565b6106bc612538565b603b91909155603e55565b6106cf612538565b6001600160a01b03918216600090815260356020526040902060070180546001600160a01b03191691909216179055565b610708614ae5565b506001600160a01b0381811660009081526035602090815260409182902082516101c08101845281546101a08201908152815260018201546001600160801b0380821694830194909452600160801b908190048416948201949094526002820154808416606083015284900483166080820152600382015492831660a08201529290910464ffffffffff1660c08301526004810154831660e083015260058101548316610100830152600681015483166101208301526007810154928316610140830152600160a01b90920460ff166101608201526008909101546101808201525b919050565b6001600160a01b0381166000908152603560205260408120610810906125fa565b92915050565b61081e614b58565b506001600160a01b031660009081526036602090815260409182902082519182019092529054815290565b600061085785858585612677565b95945050505050565b6001600160a01b0382166000908152603560205260409020610880614b6b565b610889826129da565b90506000816101c001516001600160a01b03166370a08231336040518263ffffffff1660e01b81526004016108be919061566d565b60206040518083038186803b1580156108d657600080fd5b505afa1580156108ea573d6000803e3d6000fd5b505050506040513d601f19601f8201168201806040525081019061090e919061530a565b60405163329e05af60e01b815290915073__$de8c0cf1a7d7c36c802af9a64fb9d86036$__9063329e05af9061094a9085908590600401615bb6565b60006040518083038186803b15801561096257600080fd5b505af4158015610976573d6000803e3d6000fd5b5050505060078301543360009081526036602052604090206109a291600160a01b900460ff1686612bac565b83156109e25760405133906001600160a01b038716907e058a56ea94653cdf4f152d227ace22d4c00ad99e2a43f58cb7d9e3feb295f290600090a3610b39565b73__$de8c0cf1a7d7c36c802af9a64fb9d86036$__63c599627f8633603560366000336001600160a01b03166001600160a01b031681526020019081526020016000206037603854603460009054906101000a90046001600160a01b03166001600160a01b031663fca513a86040518163ffffffff1660e01b815260040160206040518083038186803b158015610a7857600080fd5b505afa158015610a8c573d6000803e3d6000fd5b505050506040513d601f19601f82011682018060405250810190610ab09190614ddc565b6040518863ffffffff1660e01b8152600401610ad29796959493929190615756565b60006040518083038186803b158015610aea57600080fd5b505af4158015610afe573d6000803e3d6000fd5b50506040513392506001600160a01b03881691507f44c58d81365b66dd4b1a7f36c25aa97b8c71c361ee4937adc1a00000227db5dd90600090a35b5050505050565b60395460ff1690565b610b51612538565b6001600160a01b03811660009081526035602052604090819020905163038bf72160e61b815273__$de8c0cf1a7d7c36c802af9a64fb9d86036$__9163e2fdc84091610ba09190600401615cd9565b60006040518083038186803b158015610bb857600080fd5b505af4158015610bcc573d6000803e3d6000fd5b50505050610bd981612c22565b6001600160a01b0316600090815260356020526040812081815560018101829055600281018290556003810180546001600160a81b03199081169091556004820180546001600160a01b0319908116909155600583018054821690556006830180549091169055600782018054909116905560080155565b6000610c5e848484612c63565b90505b9392505050565b603e5490565b610c76612538565b610c7f85612fca565b6040518060400160405280600281526020016106e760f31b81525090610cb85760405162461bcd60e51b81526004016106389190615a0e565b506001600160a01b038516600090815260356020526040908190209051630acce25f60e21b815273__$22cd43a9dda9ce44e9b92ba393b88fb9ac$__91632b33897c91610d1091908890889088908890600401615ce2565b60006040518083038186803b158015610d2857600080fd5b505af4158015610d3c573d6000803e3d6000fd5b50505050610d4985613003565b505050505050565b610d59612538565b6001600160a01b03919091166000908152603d60205260409020805460ff1916911515919091179055565b6001600160a01b03166000908152603d602052604090205460ff1690565b600281565b6001600160a01b0382166000908152603560205260409020610dc7614b6b565b610dd0826129da565b9050600080610ddf3385613158565b915091506000856002811115610df157fe5b3360009081526036602052604090819020905163280d2ef760e21b815291925073__$de8c0cf1a7d7c36c802af9a64fb9d86036$__9163a034bbdc91610e439189918991899089908990600401615d5b565b60006040518083038186803b158015610e5b57600080fd5b505af4158015610e6f573d6000803e3d6000fd5b50505050610e86848661326d90919063ffffffff16565b6001816002811115610e9457fe5b1415610fa257836101e001516001600160a01b0316639dc29fac33856040518363ffffffff1660e01b8152600401610ecd92919061571c565b600060405180830381600087803b158015610ee757600080fd5b505af1158015610efb573d6000803e3d6000fd5b50505061020085015161014086015160405163b3f1c93d60e01b81526001600160a01b03909216925063b3f1c93d91610f3c913391829189916004016156b2565b602060405180830381600087803b158015610f5657600080fd5b505af1158015610f6a573d6000803e3d6000fd5b505050506040513d601f19601f82011682018060405250810190610f8e91906152ee565b50610f9d846000858082613285565b6110b6565b610200840151610140850151604051637a94c56560e11b81526001600160a01b039092169163f5298aca91610fdd9133918791600401615735565b600060405180830381600087803b158015610ff757600080fd5b505af115801561100b573d6000803e3d6000fd5b505050506101e0840151600386015460405163b3f1c93d60e01b81526001600160a01b039092169163b3f1c93d91611055913391829188916001600160801b031690600401615681565b602060405180830381600087803b15801561106f57600080fd5b505af1158015611083573d6000803e3d6000fd5b505050506040513d601f19601f820116820180604052508101906110a791906152ee565b506110b6848360008082613285565b6110c48585896000806133cc565b336001600160a01b0316876001600160a01b03167fea368a40e9570069bb8e6511d668293ad2e1f03b0d982431fd223de9f3b70ca6886040516111079190615cd9565b60405180910390a350505050505050565b60005b8181101561125857600083838381811061113157fe5b90506020020160208101906111469190614dc0565b6001600160a01b038116600090815260356020526040902090915061116a81613633565b611175575050611250565b6008810154801561124c57600061118b8361363f565b90506000611199838361369e565b600480860154604051637df5bd3b60e01b81529293506001600160a01b031691637df5bd3b916111cd918591879101615d9f565b600060405180830381600087803b1580156111e757600080fd5b505af11580156111fb573d6000803e3d6000fd5b50506000600887015550506040516001600160a01b038616907fbfa21aa5d5f9a1f0120a95e7c0749f389863cbdbfff531aa7339077a5bc919de90611241908490615cd9565b60405180910390a250505b5050505b60010161111b565b505050565b610b396040518060e00160405280876001600160a01b03168152602001336001600160a01b03168152602001836001600160a01b031681526020018681526020018581526020018461ffff16815260200160011515815250613731565b6112c2614c03565b8967ffffffffffffffff811180156112d957600080fd5b50604051908082528060200260200182016040528015611303578160200160208202803683370190505b506101408201528967ffffffffffffffff8111801561132157600080fd5b5060405190808252806020026020018201604052801561134b578160200160208202803683370190505b50610160820152604080516020808d0282810182019093528c82526113bf928e918e91829185019084908082843760009201919091525050604080516020808f0282810182019093528e82529093508e92508d91829185019084908082843760009201919091525060359250613c15915050565b6001600160a01b038c168152336000908152603d602052604090205460ff166113ed57603b54603e546113f1565b6000805b6101a0830152610180820152600060408201525b60408101518a11156115b857603560008c8c846040015181811061142557fe5b905060200201602081019061143a9190614dc0565b6001600160a01b03166001600160a01b0316815260200190815260200160002060040160009054906101000a90046001600160a01b031681610140015182604001518151811061148657fe5b60200260200101906001600160a01b031690816001600160a01b0316815250506114d48161018001518a8a84604001518181106114bf57fe5b90506020020135613ce590919063ffffffff16565b8161016001518260400151815181106114e957fe5b60200260200101818152505080610140015181604001518151811061150a57fe5b60200260200101516001600160a01b0316634efecaa58d8b8b856040015181811061153157fe5b905060200201356040518363ffffffff1660e01b815260040161155592919061571c565b602060405180830381600087803b15801561156f57600080fd5b505af1158015611583573d6000803e3d6000fd5b505050506040513d601f19601f820116820180604052508101906115a7919061530a565b506040810180516001019052611405565b8051610160820151604051632483d72160e21b81526001600160a01b039092169163920f5c84916115f9918f918f918f918f9133908d908d906004016158f2565b602060405180830381600087803b15801561161357600080fd5b505af1158015611627573d6000803e3d6000fd5b505050506040513d601f19601f8201168201806040525081019061164b91906152ee565b604051806040016040528060028152602001611b1b60f11b815250906116845760405162461bcd60e51b81526004016106389190615a0e565b50600060408201525b60408101518a1115611a2c578a8a82604001518181106116a957fe5b90506020020160208101906116be9190614dc0565b6001600160a01b031660608201526040810151899089908181106116de57fe5b602002919091013560a08301525061014081015160408201518151811061170157fe5b60209081029190910101516001600160a01b0316608082015261016081015160408201518151611750929190811061173557fe5b60200260200101518260a00151613d5490919063ffffffff16565b81610100018181525050611773816101a001518a8a84604001518181106114bf57fe5b60e08201819052610160820151604083015181516117ac93929190811061179657fe5b6020026020010151613d6490919063ffffffff16565b60c08201526000878783604001518181106117c357fe5b9050602002013560028111156117d557fe5b60028111156117e057fe5b14156119245760608101516001600160a01b0316600090815260356020526040902061180a614b6b565b611813826129da565b905061181f828261326d565b6118a483608001516001600160a01b03166318160ddd6040518163ffffffff1660e01b815260040160206040518083038186803b15801561185f57600080fd5b505afa158015611873573d6000803e3d6000fd5b505050506040513d601f19601f82011682018060405250810190611897919061530a565b60c0850151849190613d74565b600182015460e08401516118d0916118c591906001600160801b0316613e31565b600884015490613d54565b600883015560608301516101008401516118f091849184919060006133cc565b61191d8e846080015185610100015186606001516001600160a01b0316613edc909392919063ffffffff16565b505061199f565b61199f6040518060e0016040528083606001516001600160a01b03168152602001336001600160a01b03168152602001876001600160a01b031681526020018360a0015181526020018989856040015181811061197d57fe5b9050602002013581526020018461ffff16815260200160001515815250613731565b80606001516001600160a01b0316336001600160a01b03168d6001600160a01b03167f631042c832b07452973831137f2d73e395028b44b250dedc5abb0ee766e168ac8460a001518561016001518660400151815181106119fc57fe5b602002602001015187604051611a1493929190615dad565b60405180910390a4604081018051600101905261168d565b505050505050505050505050565b611a42612538565b6001600160a01b03909116600090815260356020526040902055565b60405163d505accf60e01b81526001600160a01b0389169063d505accf90611a9690339030908c908a908a908a908a906004016156db565b600060405180830381600087803b158015611ab057600080fd5b505af1158015611ac4573d6000803e3d6000fd5b50505050611ad488888888613f34565b5050505050505050565b611ae6612538565b6039805460ff1916911515919091179055565b60008060008060008073__$52a8a86ab43135662ff256bbc95497e8e3$__63c0046d49886035603660008c6001600160a01b03166001600160a01b031681526020019081526020016000206037603854603460009054906101000a90046001600160a01b03166001600160a01b031663fca513a86040518163ffffffff1660e01b815260040160206040518083038186803b158015611b9757600080fd5b505afa158015611bab573d6000803e3d6000fd5b505050506040513d601f19601f82011682018060405250810190611bcf9190614ddc565b6040518763ffffffff1660e01b8152600401611bf09695949392919061582f565b60c06040518083038186803b158015611c0857600080fd5b505af4158015611c1c573d6000803e3d6000fd5b505050506040513d601f19601f82011682018060405250810190611c409190615417565b5093995091975090945092509050611c59868684614102565b935091939550919395565b611c6c614b58565b506001600160a01b031660009081526035602090815260409182902082519182019092529054815290565b6000611ca161412d565b60015490915060ff1680611cb85750611cb8614132565b80611cc4575060005481115b611ce05760405162461bcd60e51b815260040161063890615a76565b60015460ff16158015611cff576001805460ff19168117905560008290555b603480546001600160a01b0319166001600160a01b0385161790556109c4603a556009603b556080603c556000603e558015611258576001805460ff19169055505050565b6001600160a01b0382166000908152603560205260409020611d64614b6b565b611d6d826129da565b6101e08101516102008201516040516370a0823160e01b815292935090916000906001600160a01b038416906370a0823190611dad90899060040161566d565b60206040518083038186803b158015611dc557600080fd5b505afa158015611dd9573d6000803e3d6000fd5b505050506040513d601f19601f82011682018060405250810190611dfd919061530a565b6101c0850151604051639e81a27560e01b815291925073__$de8c0cf1a7d7c36c802af9a64fb9d86036$__91639e81a27591611e4691899189918d918a918a9190600401615d10565b60006040518083038186803b158015611e5e57600080fd5b505af4158015611e72573d6000803e3d6000fd5b50505050611e89848661326d90919063ffffffff16565b604051632770a7eb60e21b81526001600160a01b03841690639dc29fac90611eb7908990859060040161571c565b600060405180830381600087803b158015611ed157600080fd5b505af1158015611ee5573d6000803e3d6000fd5b505050600386015460405163b3f1c93d60e01b81526001600160a01b038616925063b3f1c93d91611f28918a91829187916001600160801b031690600401615681565b602060405180830381600087803b158015611f4257600080fd5b505af1158015611f56573d6000803e3d6000fd5b505050506040513d601f19601f82011682018060405250810190611f7a91906152ee565b50611f89848280600080613285565b611f978585896000806133cc565b856001600160a01b0316876001600160a01b03167f9f439ae0c81e41a04d3fdfe07aed54e6a179fb0db15be7702eb66fa8ef6f530060405160405180910390a350505050505050565b6001600160a01b03811660009081526035602052604081206108109061363f565b6038546060906000828267ffffffffffffffff8111801561202157600080fd5b5060405190808252806020026020018201604052801561204b578160200160208202803683370190505b50905060005b838110156120d5576000818152603760205260409020546001600160a01b0316156120c65760008181526037602052604090205482516001600160a01b039091169083908584039081106120a157fe5b60200260200101906001600160a01b031690816001600160a01b0316815250506120cd565b6001909201915b600101612051565b50816120e55792506106b1915050565b606082840367ffffffffffffffff8111801561210057600080fd5b5060405190808252806020026020018201604052801561212a578160200160208202803683370190505b50905060005b83850381101561217a5782818151811061214657fe5b602002602001015182828151811061215a57fe5b6001600160a01b0390921660209283029190910190910152600101612130565b50935050505090565b6001600160a01b038681166000908152603560209081526040918290206004015482518084019093526002835261363360f01b9183019190915290911633146121df5760405162461bcd60e51b81526004016106389190615a0e565b506001600160a01b038616600090815260356020526040902061220190614138565b6001600160a01b03868116600090815260356020526040902060070154600160a01b900460ff16908581169087161461247c576001600160a01b038616600090815260366020908152604091829020825191820190925281548152612266908361417b565b1561240457604080516020810190915281548152612283906141d3565b156123a95773__$de8c0cf1a7d7c36c802af9a64fb9d86036$__63c599627f89896035603660008d6001600160a01b03166001600160a01b031681526020019081526020016000206037603854603460009054906101000a90046001600160a01b03166001600160a01b031663fca513a86040518163ffffffff1660e01b815260040160206040518083038186803b15801561231e57600080fd5b505afa158015612332573d6000803e3d6000fd5b505050506040513d601f19601f820116820180604052508101906123569190614ddc565b6040518863ffffffff1660e01b81526004016123789796959493929190615756565b60006040518083038186803b15801561239057600080fd5b505af41580156123a4573d6000803e3d6000fd5b505050505b6123b38486613d64565b612404576123c381836000612bac565b866001600160a01b0316886001600160a01b03167f44c58d81365b66dd4b1a7f36c25aa97b8c71c361ee4937adc1a00000227db5dd60405160405180910390a35b8215801561241157508415155b15611ad4576001600160a01b038616600090815260366020526040902061243a81846001612bac565b866001600160a01b0316896001600160a01b03167e058a56ea94653cdf4f152d227ace22d4c00ad99e2a43f58cb7d9e3feb295f260405160405180910390a350505b50505050505050565b603a5490565b61249784848484613f34565b50505050565b60405163d505accf60e01b81526000906001600160a01b038a169063d505accf906124d890339030908d908b908b908b908b906004016156db565b600060405180830381600087803b1580156124f257600080fd5b505af1158015612506573d6000803e3d6000fd5b5050505061251689898989612677565b9998505050505050505050565b603c5490565b6034546001600160a01b031690565b603454604080516385c858b160e01b8152905133926001600160a01b0316916385c858b1916004808301926020929190829003018186803b15801561257c57600080fd5b505afa158015612590573d6000803e3d6000fd5b505050506040513d601f19601f820116820180604052508101906125b49190614ddc565b6001600160a01b03161460405180604001604052806002815260200161323760f01b815250906125f75760405162461bcd60e51b81526004016106389190615a0e565b50565b600381015460009064ffffffffff600160801b90910481169042168114156126385750506001810154600160801b90046001600160801b03166107ea565b6001830154600284015460009161266f916001600160801b03600160801b92839004811692612669920416856141fb565b9061369e565b949350505050565b6001600160a01b0384166000908152603560205260408120612697614b6b565b6126a0826129da565b90506000806126af8685613158565b9150915060008760028111156126c157fe5b603f54604051633ec429c160e11b815291925073__$de8c0cf1a7d7c36c802af9a64fb9d86036$__91637d88538291612722916001600160a01b03821691600160a01b900464ffffffffff169089908f9088908f908c908c9060040161588c565b60006040518083038186803b15801561273a57600080fd5b505af415801561274e573d6000803e3d6000fd5b50600092506001915061275e9050565b82600281111561276a57fe5b146127755782612777565b835b9050808a10156127845750885b61278e868661326d565b600182600281111561279c57fe5b141561281d57846101e001516001600160a01b0316639dc29fac89836040518363ffffffff1660e01b81526004016127d592919061571c565b600060405180830381600087803b1580156127ef57600080fd5b505af1158015612803573d6000803e3d6000fd5b50612818925087915060009050838180613285565b61289b565b610200850151610140860151604051637a94c56560e11b81526001600160a01b039092169163f5298aca91612858918c918691600401615735565b600060405180830381600087803b15801561287257600080fd5b505af1158015612886573d6000803e3d6000fd5b5061289b925087915060009050808085613285565b6128a986868d8460006133cc565b6128bd816128b78686613d54565b90613d64565b6128f55760078601546001600160a01b03891660009081526036602052604081206128f5929091600160a01b90910460ff1690614208565b6101c0850151612912906001600160a01b038d1690339084613edc565b846101c001516001600160a01b03166388dd91a133836040518363ffffffff1660e01b815260040161294592919061571c565b600060405180830381600087803b15801561295f57600080fd5b505af1158015612973573d6000803e3d6000fd5b50505050336001600160a01b0316886001600160a01b03168c6001600160a01b03167f4cdde6e09bb755c9a5589ebaec640bbfedff1362d4b255ebf8339782b9942faa846040516129c49190615cd9565b60405180910390a49a9950505050505050505050565b6129e2614b6b565b6129ea614b6b565b6040805160208082018352855482526101a084019190915260018501546001600160801b0380821660e0860152600160801b9182900481166101208601526002870154808216610160870152829004166101808501526004808701546001600160a01b039081166101c0870152600588015481166101e0870152600688015416610200860181905260038801549290920464ffffffffff16610220860152835163b1bf962d60e01b81529351919363b1bf962d938183019390929091829003018186803b158015612aba57600080fd5b505afa158015612ace573d6000803e3d6000fd5b505050506040513d601f19601f82011682018060405250810190612af2919061530a565b8160200181815250816000018181525050806101e001516001600160a01b031663797743386040518163ffffffff1660e01b815260040160806040518083038186803b158015612b4157600080fd5b505afa158015612b55573d6000803e3d6000fd5b505050506040513d601f19601f82011682018060405250810190612b79919061546b565b64ffffffffff166102408501526060840181905260808401829052604084019290925260c083015260a082015292915050565b604080518082019091526002815261373760f01b602082015260808310612be65760405162461bcd60e51b81526004016106389190615a0e565b508160020260010181612bfa576000612bfd565b60015b60ff16901b826002026001016001901b19846000015416178360000181905550505050565b6001600160a01b0316600090815260356020908152604080832060070154600160a01b900460ff1683526037909152902080546001600160a01b0319169055565b6001600160a01b038316600090815260356020908152604080832033845260369092528220612c90614b6b565b612c99836129da565b9050612ca5838261326d565b6000612d31826101000151836101c001516001600160a01b0316631da24f3e336040518263ffffffff1660e01b8152600401612ce1919061566d565b60206040518083038186803b158015612cf957600080fd5b505afa158015612d0d573d6000803e3d6000fd5b505050506040513d601f19601f82011682018060405250810190612669919061530a565b905086600019811415612d415750805b612d4c838284614278565b612d5a85848b6000856133cc565b826101c001516001600160a01b031663d7020d0a3389848761010001516040518563ffffffff1660e01b8152600401612d9694939291906156b2565b600060405180830381600087803b158015612db057600080fd5b505af1158015612dc4573d6000803e3d6000fd5b505050506007850154604080516020810190915285548152612def91600160a01b900460ff1661417b565b15612f6957604080516020810190915284548152612e0c906141d3565b15612f0e5773__$de8c0cf1a7d7c36c802af9a64fb9d86036$__63c599627f8a336035886037603854603460009054906101000a90046001600160a01b03166001600160a01b031663fca513a86040518163ffffffff1660e01b815260040160206040518083038186803b158015612e8357600080fd5b505afa158015612e97573d6000803e3d6000fd5b505050506040513d601f19601f82011682018060405250810190612ebb9190614ddc565b6040518863ffffffff1660e01b8152600401612edd9796959493929190615756565b60006040518083038186803b158015612ef557600080fd5b505af4158015612f09573d6000803e3d6000fd5b505050505b81811415612f69576007850154612f32908590600160a01b900460ff166000612bac565b60405133906001600160a01b038b16907f44c58d81365b66dd4b1a7f36c25aa97b8c71c361ee4937adc1a00000227db5dd90600090a35b866001600160a01b0316336001600160a01b03168a6001600160a01b03167f3115d1449a7b732c986cba18244e897a450f61e1bb8d589cd2e69e6c8924f9f784604051612fb69190615cd9565b60405180910390a498975050505050505050565b6000813f7fc5d2460186f7233c927e7db2dcc703c0e500b653ca82273b7bfad8045d85a47081811480159061266f575050151592915050565b603854603c54604080518082019091526002815261363560f01b60208201526000929182106130455760405162461bcd60e51b81526004016106389190615a0e565b506001600160a01b038316600090815260356020526040812060070154600160a01b900460ff161515806130ae57506000805260376020527fa0a618d80eda9243166be83cb7421d97e9dab6ddddd3c70ac7a6b4440256e8e7546001600160a01b038581169116145b9050806131515760005b828160ff161161314f5760ff81166000908152603760205260409020546001600160a01b0316613147576001600160a01b0385166000818152603560209081526040808320600701805460ff60a01b1916600160a01b60ff88169081029190911790915583526037909152902080546001600160a01b03191690911790556001929092016038555090506107ea565b6001016130b8565b505b5050919050565b60058101546040516370a0823160e01b815260009182916001600160a01b03909116906370a082319061318f90879060040161566d565b60206040518083038186803b1580156131a757600080fd5b505afa1580156131bb573d6000803e3d6000fd5b505050506040513d601f19601f820116820180604052508101906131df919061530a565b60068401546040516370a0823160e01b81526001600160a01b03909116906370a082319061321190889060040161566d565b60206040518083038186803b15801561322957600080fd5b505afa15801561323d573d6000803e3d6000fd5b505050506040513d601f19601f82011682018060405250810190613261919061530a565b915091505b9250929050565b6132778282614373565b6132818282614503565b5050565b8315158061329257508215155b1561336157608085015183906132a89086613d54565b1115613352576132c9836128b7868860800151613d5490919063ffffffff16565b8560c0018181525050846101e001516001600160a01b03166390f6fcf26040518163ffffffff1660e01b815260040160206040518083038186803b15801561331057600080fd5b505afa158015613324573d6000803e3d6000fd5b505050506040513d601f19601f82011682018060405250810190613348919061530a565b60a0860152613361565b600060a0860181905260c08601525b8115158061336e57508015155b15610b3957600061338d86610140015184613e3190919063ffffffff16565b905060006133a987610140015184613e3190919063ffffffff16565b87519091506133be9082906128b79085613d54565b602088015250505050505050565b6133d4614c9f565b61014085015160208601516133e89161369e565b6080820181905260078701546101c087015160c088015160a08901516101a08a01516001600160a01b03909416946329db497d948a94938a938a93919261342e90614608565b6040518963ffffffff1660e01b81526004016134519897969594939291906157eb565b60606040518083038186803b15801561346957600080fd5b505afa15801561347d573d6000803e3d6000fd5b505050506040513d601f19601f820116820180604052508101906134a191906153ea565b60408085019190915260208085019290925282845280518082019091526002815261353360f01b91810191909152906001600160801b0310156134f75760405162461bcd60e51b81526004016106389190615a0e565b506001600160801b0380168160200151111560405180604001604052806002815260200161353560f01b815250906135425760405162461bcd60e51b81526004016106389190615a0e565b50604080820151815180830190925260028252610d4d60f21b60208301526001600160801b0310156135875760405162461bcd60e51b81526004016106389190615a0e565b508051600287018054602084015160038a0180546001600160801b038381166001600160801b031992831617909255604080880151808416600160801b028489169390961692909217909216939093179093556101008901516101408a015193516001600160a01b038a16957f804c9b842b2748a22bb64b345453a3de7ca54a6ca45ce00d415894979e22897a95613623959194939192615dc7565b60405180910390a2505050505050565b54600160381b16151590565b600381015460009064ffffffffff600160801b909104811690421681141561367657505060018101546001600160801b03166107ea565b6001830154600284015460009161266f916001600160801b0391821691612669911685614613565b60008215806136ab575081155b156136b857506000610810565b816b019d971e4fe8401e7400000019816136ce57fe5b0483111560405180604001604052806002815260200161068760f31b8152509061370b5760405162461bcd60e51b81526004016106389190615a0e565b506b033b2e3c9fd0803ce80000006002815b04838502018161372957fe5b049392505050565b80516001600160a01b03908116600090815260356020908152604080832081860151909416835260369091529020613767614b6b565b613770836129da565b905061377c838261326d565b73__$de8c0cf1a7d7c36c802af9a64fb9d86036$__63d551e758828660000151876040015188606001518960800151603a5460358a6037603854603460009054906101000a90046001600160a01b03166001600160a01b031663fca513a86040518163ffffffff1660e01b815260040160206040518083038186803b15801561380457600080fd5b505afa158015613818573d6000803e3d6000fd5b505050506040513d601f19601f8201168201806040525081019061383c9190614ddc565b6040518c63ffffffff1660e01b81526004016138629b9a99989796959493929190615b45565b60006040518083038186803b15801561387a57600080fd5b505af415801561388e573d6000803e3d6000fd5b506000925082915060019050866080015160028111156138aa57fe5b60028111156138b557fe5b14156139805760038501546101e084015160208801516040808a015160608b0151915163b3f1c93d60e01b81526001600160801b0390951696506001600160a01b039093169363b3f1c93d936139129392909188906004016156b2565b602060405180830381600087803b15801561392c57600080fd5b505af1158015613940573d6000803e3d6000fd5b505050506040513d601f19601f8201168201806040525081019061396491906152ee565b606087015190915061397b90849060008080613285565b613a33565b8261020001516001600160a01b031663b3f1c93d8760200151886040015189606001518761014001516040518563ffffffff1660e01b81526004016139c894939291906156b2565b602060405180830381600087803b1580156139e257600080fd5b505af11580156139f6573d6000803e3d6000fd5b505050506040513d601f19601f82011682018060405250810190613a1a91906152ee565b6060870151909150613a33908490600090819081613285565b8015613a55576007850154613a55908590600160a01b900460ff166001614208565b613a8083876000015160008960c00151613a70576000613a76565b89606001515b89939291906133cc565b6020860151603f80546001600160a01b0319166001600160a01b039092169190911764ffffffffff60a01b1916600160a01b4264ffffffffff160217905560c086015115613b5757826101c001516001600160a01b0316634efecaa5876020015188606001516040518363ffffffff1660e01b8152600401613b0392919061571c565b602060405180830381600087803b158015613b1d57600080fd5b505af1158015613b31573d6000803e3d6000fd5b505050506040513d601f19601f82011682018060405250810190613b55919061530a565b505b8560a0015161ffff1686604001516001600160a01b031687600001516001600160a01b03167fc6a898309e823ee50bac64e45ca8adba6690e99e7841c45d754e2a38e9019d9b89602001518a606001518b6080015160016002811115613bb957fe5b8d608001516002811115613bc957fe5b6002811115613bd457fe5b14613bf35760028c0154600160801b90046001600160801b0316613bf5565b885b604051613c059493929190615866565b60405180910390a4505050505050565b60005b8351811015613ca657613c63826000868481518110613c3357fe5b60200260200101516001600160a01b03166001600160a01b03168152602001908152602001600020600001614651565b15604051806040016040528060028152602001611c1b60f11b81525090613c9d5760405162461bcd60e51b81526004016106389190615a0e565b50600101613c18565b50815183511460405180604001604052806002815260200161373360f01b815250906124975760405162461bcd60e51b81526004016106389190615a0e565b6000821580613cf2575081155b15613cff57506000610810565b816113881981613d0b57fe5b0483111560405180604001604052806002815260200161068760f31b81525090613d485760405162461bcd60e51b81526004016106389190615a0e565b5061271060028161371d565b8082018281101561081057600080fd5b8082038281111561081057600080fd5b6000613d91613d828461465d565b613d8b8461465d565b90613e31565b90506000613da7613da06146ad565b8390613d54565b6001860154909150613dc39082906001600160801b031661369e565b604080518082019091526002815261353160f01b60208201529091506001600160801b03821115613e075760405162461bcd60e51b81526004016106389190615a0e565b5060019490940180546001600160801b0319166001600160801b0390951694909417909355505050565b604080518082019091526002815261035360f41b602082015260009082613e6b5760405162461bcd60e51b81526004016106389190615a0e565b5060408051808201909152600280825261068760f31b60208301528304906b033b2e3c9fd0803ce8000000821904851115613eb95760405162461bcd60e51b81526004016106389190615a0e565b5082816b033b2e3c9fd0803ce800000086020181613ed357fe5b04949350505050565b612497846323b872dd60e01b858585604051602401613efd939291906157c7565b60408051601f198184030181529190526020810180516001600160e01b03166001600160e01b0319909316929092179091526146bd565b6001600160a01b0384166000908152603560205260409020613f54614b6b565b613f5d826129da565b9050613f69828261326d565b613f7381866147a2565b613f818282888860006133cc565b6101c0810151613f9e906001600160a01b03881690339088613edc565b6101c0810151610100820151604051630ab714fb60e11b81526000926001600160a01b03169163156e29f691613fdb9189918b9190600401615735565b602060405180830381600087803b158015613ff557600080fd5b505af1158015614009573d6000803e3d6000fd5b505050506040513d601f19601f8201168201806040525081019061402d91906152ee565b905080156140a75760078301546001600160a01b038616600090815260366020526040902061406791600160a01b900460ff166001612bac565b846001600160a01b0316876001600160a01b03167e058a56ea94653cdf4f152d227ace22d4c00ad99e2a43f58cb7d9e3feb295f260405160405180910390a35b8361ffff16856001600160a01b0316886001600160a01b03167fde6857219544bb5b7746f48ed30be6386fefc61b2f864cacf559893bf50fd951338a6040516140f192919061571c565b60405180910390a450505050505050565b60008061410f8584613ce5565b905083811015614123576000915050610c61565b6108578185613d64565b600290565b303b1590565b61414181614651565b15604051806040016040528060028152602001611c1b60f11b815250906132815760405162461bcd60e51b81526004016106389190615a0e565b60006080821060405180604001604052806002815260200161373760f01b815250906141ba5760405162461bcd60e51b81526004016106389190615a0e565b5050815160016002830281019190911c16151592915050565b517f555555555555555555555555555555555555555555555555555555555555555516151590565b6000610c61838342614967565b604080518082019091526002815261373760f01b6020820152608083106142425760405162461bcd60e51b81526004016106389190615a0e565b508160020281614253576000614256565b60015b60ff16901b826002026001901b19846000015416178360000181905550505050565b6040805180820190915260018152603160f81b6020820152826142ae5760405162461bcd60e51b81526004016106389190615a0e565b506040805180820190915260018152603560f81b6020820152818311156142e85760405162461bcd60e51b81526004016106389190615a0e565b506000806142fa856101a00151614a3d565b9450505050915081604051806040016040528060018152602001601960f91b8152509061433a5760405162461bcd60e51b81526004016106389190615a0e565b506040805180820190915260028152611c1b60f11b60208201528115610d495760405162461bcd60e51b81526004016106389190615a0e565b60e0810151610100820152610120810151610140820152610160810151156144df5760006143ab826101600151836102200151614613565b90506143c48260e001518261369e90919063ffffffff16565b6101008301819052604080518082019091526002815261353160f01b6020820152906001600160801b03101561440d5760405162461bcd60e51b81526004016106389190615a0e565b506101008201516001840180546001600160801b0319166001600160801b039092169190911790558151156144dd5760006144528361018001518461022001516141fb565b905061446c8361012001518261369e90919063ffffffff16565b61014084018190526040805180820190915260028152611a9960f11b6020820152906001600160801b0310156144b55760405162461bcd60e51b81526004016106389190615a0e565b50506101408201516001840180546001600160801b03928316600160801b0292169190911790555b505b50600301805464ffffffffff60801b1916600160801b4264ffffffffff1602179055565b61450b614cce565b614519826101a00151614608565b60e0820181905261452a5750613281565b610120820151825161453b9161369e565b602082015261014082015182516145519161369e565b6040820152606082015161024083015161022084015161457992919064ffffffffff16614967565b60808201819052604083015161458e9161369e565b8082526020820151608084015160408401516145b293926128b79290918391613d54565b60a0820181905260e08201516145c89190613ce5565b60c0820181905215611258576145fe6145f38361010001518360c00151613e3190919063ffffffff16565b600885015490613d54565b6008840155505050565b5160401c61ffff1690565b6000806146274264ffffffffff8516613d64565b905061266f6146346146ad565b6301e133806146438785614a7d565b8161464a57fe5b0490613d54565b546001603c1b16151590565b6000633b9aca0082810290839082041460405180604001604052806002815260200161068760f31b815250906146a65760405162461bcd60e51b81526004016106389190615a0e565b5092915050565b6b033b2e3c9fd0803ce800000090565b6146cf826001600160a01b0316612fca565b6146eb5760405162461bcd60e51b815260040161063890615b0e565b60006060836001600160a01b0316836040516147079190615651565b6000604051808303816000865af19150503d8060008114614744576040519150601f19603f3d011682016040523d82523d6000602084013e614749565b606091505b50915091508161476b5760405162461bcd60e51b815260040161063890615a41565b805115612497578080602001905181019061478691906152ee565b6124975760405162461bcd60e51b815260040161063890615ac4565b60008060006147b5856101a00151614a3d565b945050509250925060006147cd866101a00151614aa1565b50935050505060006147e3876101a00151614acc565b6040805180820190915260018152603160f81b60208201529091508661481c5760405162461bcd60e51b81526004016106389190615a0e565b506040805180820190915260018152601960f91b6020820152856148535760405162461bcd60e51b81526004016106389190615a0e565b506040805180820190915260028152611c1b60f11b6020820152831561488c5760405162461bcd60e51b81526004016106389190615a0e565b506040805180820190915260018152603360f81b602082015284156148c45760405162461bcd60e51b81526004016106389190615a0e565b5080158061492e57508061492c83600a0a614926896149208c61010001518d6101c001516001600160a01b031663b1bf962d6040518163ffffffff1660e01b815260040160206040518083038186803b158015612cf957600080fd5b90613d54565b90614ada565b105b60405180604001604052806002815260200161383360f01b81525090611ad45760405162461bcd60e51b81526004016106389190615a0e565b60008061497b8364ffffffffff8616613d64565b9050806149925761498a6146ad565b915050610c61565b60001981016000600283116149a85760006149ad565b600283035b90506301e13380870460006149c2828061369e565b905060006149d0828461369e565b9050600060026149ea846149e48a8a614a7d565b90614a7d565b816149f157fe5b04905060006006614a08846149e489818d8d614a7d565b81614a0f57fe5b049050614a2d816149208481614a258a8e614a7d565b6149206146ad565b9c9b505050505050505050505050565b51600160381b81161515916702000000000000008216151591670400000000000000811615159167080000000000000082161515916001603c1b16151590565b6000821580614a9857505081810281838281614a9557fe5b04145b61081057600080fd5b5161ffff80821692601083901c821692602081901c831692603082901c60ff169260409290921c1690565b5160741c640fffffffff1690565b600081838161372957fe5b604051806101a00160405280614af9614b58565b815260006020820181905260408201819052606082018190526080820181905260a0820181905260c0820181905260e0820181905261010082018190526101208201819052610140820181905261016082018190526101809091015290565b6040518060200160405280600081525090565b60405180610260016040528060008152602001600081526020016000815260200160008152602001600081526020016000815260200160008152602001600081526020016000815260200160008152602001600081526020016000815260200160008152602001614bda614b58565b815260006020820181905260408201819052606082018190526080820181905260a09091015290565b604051806101c0016040528060006001600160a01b0316815260200160006001600160a01b031681526020016000815260200160006001600160a01b0316815260200160006001600160a01b031681526020016000815260200160008152602001600081526020016000815260200160006001600160a01b03168152602001606081526020016060815260200160008152602001600081525090565b6040518060a0016040528060008152602001600081526020016000815260200160008152602001600081525090565b6040518061012001604052806000815260200160008152602001600081526020016000815260200160008152602001600081526020016000815260200160008152602001600064ffffffffff1681525090565b803561081081615e49565b60008083601f840112614d3d578182fd5b50813567ffffffffffffffff811115614d54578182fd5b602083019150836020808302850101111561326657600080fd5b60008083601f840112614d7f578182fd5b50813567ffffffffffffffff811115614d96578182fd5b60208301915083602082850101111561326657600080fd5b803561ffff8116811461081057600080fd5b600060208284031215614dd1578081fd5b8135610c6181615e49565b600060208284031215614ded578081fd5b8151610c6181615e49565b60008060408385031215614e0a578081fd5b8235614e1581615e49565b91506020830135614e2581615e49565b809150509250929050565b600080600080600060a08688031215614e47578081fd5b8535614e5281615e49565b94506020860135614e6281615e49565b93506040860135614e7281615e49565b92506060860135614e8281615e49565b91506080860135614e9281615e49565b809150509295509295909350565b600080600080600060a08688031215614eb7578081fd5b8535614ec281615e49565b94506020860135614ed281615e49565b93506040860135614ee281615e49565b9250606086013591506080860135614e9281615e5e565b60008060008060008060c08789031215614f11578081fd5b8635614f1c81615e49565b95506020870135614f2c81615e49565b94506040870135614f3c81615e49565b959894975094956060810135955060808101359460a0909101359350915050565b600080600080600080600080600080600060e08c8e031215614f7d578485fd5b614f878d8d614d21565b9a5067ffffffffffffffff8060208e01351115614fa2578586fd5b614fb28e60208f01358f01614d2c565b909b50995060408d0135811015614fc7578586fd5b614fd78e60408f01358f01614d2c565b909950975060608d0135811015614fec578586fd5b614ffc8e60608f01358f01614d2c565b909750955061500e8e60808f01614d21565b94508060a08e01351115615020578384fd5b506150318d60a08e01358e01614d6e565b90935091506150438d60c08e01614dae565b90509295989b509295989b9093969950565b60008060408385031215615067578182fd5b823561507281615e49565b91506020830135614e2581615e5e565b60008060408385031215615094578182fd5b823561509f81615e49565b946020939093013593505050565b6000806000606084860312156150c1578081fd5b83356150cc81615e49565b92506020840135915060408401356150e381615e49565b809150509250925092565b60008060008060808587031215615103578182fd5b843561510e81615e49565b935060208501359250604085013561512581615e49565b91506151348660608701614dae565b905092959194509250565b600080600080600080600080610100898b03121561515b578182fd5b883561516681615e49565b975060208901359650604089013561517d81615e49565b955061518c8a60608b01614dae565b94506080890135935060a089013560ff811681146151a8578283fd5b979a969950949793969295929450505060c08201359160e0013590565b600080600080608085870312156151da578182fd5b84356151e581615e49565b93506020850135925060408501359150606085013561520381615e49565b939692955090935050565b600080600080600080600080610100898b03121561522a578182fd5b883561523581615e49565b97506020890135965060408901359550606089013561518c81615e49565b600080600080600060a0868803121561526a578283fd5b853561527581615e49565b94506020860135935060408601359250614e828760608801614dae565b600080602083850312156152a4578182fd5b823567ffffffffffffffff8111156152ba578283fd5b6152c685828601614d2c565b90969095509350505050565b6000602082840312156152e3578081fd5b8135610c6181615e5e565b6000602082840312156152ff578081fd5b8151610c6181615e5e565b60006020828403121561531b578081fd5b5051919050565b60008060408385031215615334578182fd5b82519150602083015167ffffffffffffffff80821115615352578283fd5b818501915085601f830112615365578283fd5b815181811115615373578384fd5b604051601f8201601f191681016020018381118282101715615393578586fd5b6040528181528382016020018810156153aa578485fd5b6153bb826020830160208701615e1d565b809450505050509250929050565b600080604083850312156153db578182fd5b50508035926020909101359150565b6000806000606084860312156153fe578081fd5b8351925060208401519150604084015190509250925092565b60008060008060008060c0878903121561542f578384fd5b865195506020870151945060408701519350606087015192506080870151915060a087015161545d81615e5e565b809150509295509295509295565b60008060008060808587031215615480578182fd5b845193506020850151925060408501519150606085015164ffffffffff81168114615203578182fd5b6001600160a01b0316815260200190565b6001600160a01b03169052565b6000815180845260208085019450808401835b838110156154f6578151875295820195908201906001016154da565b509495945050505050565b60008284528282602086013780602084860101526020601f19601f85011685010190509392505050565b805182526020810151602083015260408101516040830152606081015160608301526080810151608083015260a081015160a083015260c081015160c083015260e081015160e08301526101008082015181840152506101208082015181840152506101408082015181840152506101608082015181840152506101808082015181840152506101a0808201516155c48285018261562d565b50506101c0808201516155d9828501826154ba565b50506101e0808201516155ee828501826154ba565b505061020080820151615603828501826154ba565b5050610220808201516156188285018261563f565b5050610240808201516124978285018261563f565b519052565b6001600160801b03169052565b64ffffffffff169052565b60ff169052565b60008251615663818460208701615e1d565b9190910192915050565b6001600160a01b0391909116815260200190565b6001600160a01b03948516815292909316602083015260408201526001600160801b03909116606082015260800190565b6001600160a01b0394851681529290931660208301526040820152606081019190915260800190565b6001600160a01b0397881681529590961660208601526040850193909352606084019190915260ff16608083015260a082015260c081019190915260e00190565b6001600160a01b03929092168252602082015260400190565b6001600160a01b039390931683526020830191909152604082015260600190565b6001600160a01b039788168152958716602087015260408601949094526060850192909252608084015260a083015290911660c082015260e00190565b6001600160a01b03958616815293851660208501529190931660408301526060820192909252901515608082015260a00190565b6001600160a01b039384168152919092166020820152604081019190915260600190565b6001600160a01b03988916815296909716602087015260408601949094526060850192909252608084015260a083015260c082015260e08101919091526101000190565b6001600160a01b0396871681526020810195909552925460408501526060840191909152608083015290911660a082015260c00190565b6001600160a01b0394909416845260208401929092526040830152606082015260800190565b6001600160a01b03898116825264ffffffffff891660208301526103408201906158b9604084018a61552b565b876102a08401526158c987615e12565b6102c0840152949094166102e08201526103008101929092526103209091015295945050505050565b600060a0820160a08352806159078b83615cd9565b90508b9150825b8b81101561593a576020830161592d836159288387614d21565b6154a9565b909350915060010161590e565b5083810360208501528881526001600160fb1b03891115615959578283fd5b602089029150818a6020830137016020818101838152848303909101604085015261598481896154c7565b91505061599460608401876154ba565b82810360808401526159a7818587615501565b9b9a5050505050505050505050565b6020808252825182820181905260009190848201906040850190845b818110156159f75783516001600160a01b0316835292840192918401916001016159d2565b50909695505050505050565b901515815260200190565b6000602082528251806020840152615a2d816040850160208701615e1d565b601f01601f19169190910160400192915050565b6020808252818101527f5361666545524332303a206c6f772d6c6576656c2063616c6c206661696c6564604082015260600190565b6020808252602e908201527f436f6e747261637420696e7374616e63652068617320616c726561647920626560408201526d195b881a5b9a5d1a585b1a5e995960921b606082015260800190565b6020808252602a908201527f5361666545524332303a204552433230206f7065726174696f6e20646964206e6040820152691bdd081cdd58d8d9595960b21b606082015260800190565b6020808252601f908201527f5361666545524332303a2063616c6c20746f206e6f6e2d636f6e747261637400604082015260600190565b6103a08101615b54828e61552b565b6001600160a01b039b8c16610260830152998b166102808201526102a08101989098526102c08801969096526102e087019490945261030086019290925261032085015261034084015261036083015290921661038090920191909152919050565b6102808101615bc5828561552b565b826102608301529392505050565b9051815260200190565b60006101a082019050615bf182845161562d565b6020830151615c036020840182615632565b506040830151615c166040840182615632565b506060830151615c296060840182615632565b506080830151615c3c6080840182615632565b5060a0830151615c4f60a0840182615632565b5060c0830151615c6260c084018261563f565b5060e0830151615c7560e08401826154ba565b5061010080840151615c89828501826154ba565b505061012080840151615c9e828501826154ba565b505061014080840151615cb3828501826154ba565b505061016080840151615cc88285018261564a565b505061018092830151919092015290565b90815260200190565b9485526001600160a01b03938416602086015291831660408501528216606084015216608082015260a00190565b8681526103008101615d25602083018861552b565b6001600160a01b039586166102808301529385166102a08201529184166102c08301529092166102e09092019190915292915050565b8681526103008101615d70602083018861552b565b85610280830152846102a0830152836102c0830152615d8e83615e12565b6102e0830152979650505050505050565b918252602082015260400190565b928352602083019190915261ffff16604082015260600190565b948552602085019390935260408401919091526060830152608082015260a00190565b958652602086019490945260408501929092526060840152608083015260a082015260c00190565b80600381106107ea57fe5b60005b83811015615e38578181015183820152602001615e20565b838111156124975750506000910152565b6001600160a01b03811681146125f757600080fd5b80151581146125f757600080fdfea26469706673582212205fbd3689810b94ed7cc0fc8e50c1d138efd38091cea3776325c6f00b893057b964736f6c634300060c0033",
  "linkReferences": {
    "contracts/protocol/libraries/logic/GenericLogic.sol": {
      "GenericLogic": [
        {
          "length": 20,
          "start": 6953
        }
      ]
    },
    "contracts/protocol/libraries/logic/ReserveLogic.sol": {
      "ReserveLogic": [
        {
          "length": 20,
          "start": 3334
        }
      ]
    },
    "contracts/protocol/libraries/logic/ValidationLogic.sol": {
      "ValidationLogic": [
        {
          "length": 20,
          "start": 2373
        },
        {
          "length": 20,
          "start": 2569
        },
        {
          "length": 20,
          "start": 2974
        },
        {
          "length": 20,
          "start": 3640
        },
        {
          "length": 20,
          "start": 7738
        },
        {
          "length": 20,
          "start": 8879
        },
        {
          "length": 20,
          "start": 9979
        },
        {
          "length": 20,
          "start": 11832
        },
        {
          "length": 20,
          "start": 14243
        }
      ]
    }
  },
  "deployedLinkReferences": {
    "contracts/protocol/libraries/logic/GenericLogic.sol": {
      "GenericLogic": [
        {
          "length": 20,
          "start": 6916
        }
      ]
    },
    "contracts/protocol/libraries/logic/ReserveLogic.sol": {
      "ReserveLogic": [
        {
          "length": 20,
          "start": 3297
        }
      ]
    },
    "contracts/protocol/libraries/logic/ValidationLogic.sol": {
      "ValidationLogic": [
        {
          "length": 20,
          "start": 2336
        },
        {
          "length": 20,
          "start": 2532
        },
        {
          "length": 20,
          "start": 2937
        },
        {
          "length": 20,
          "start": 3603
        },
        {
          "length": 20,
          "start": 7701
        },
        {
          "length": 20,
          "start": 8842
        },
        {
          "length": 20,
          "start": 9942
        },
        {
          "length": 20,
          "start": 11795
        },
        {
          "length": 20,
          "start": 14206
        }
      ]
    }
  }
}