{
  "_format": "hh-sol-artifact-1",
  "contractName": "StableDebtToken",
  "sourceName": "contracts/protocol/tokenization/StableDebtToken.sol",
  "abi": [
    {
      "anonymous": false,
      "inputs": [
        {
          "indexed": true,
          "internalType": "address",
          "name": "owner",
          "type": "address"
        },
        {
          "indexed": true,
          "internalType": "address",
          "name": "spender",
          "type": "address"
        },
        {
          "indexed": false,
          "internalType": "uint256",
          "name": "value",
          "type": "uint256"
        }
      ],
      "name": "Approval",
      "type": "event"
    },
    {
      "anonymous": false,
      "inputs": [
        {
          "indexed": true,
          "internalType": "address",
          "name": "fromUser",
          "type": "address"
        },
        {
          "indexed": true,
          "internalType": "address",
          "name": "toUser",
          "type": "address"
        },
        {
          "indexed": false,
          "internalType": "address",
          "name": "asset",
          "type": "address"
        },
        {
          "indexed": false,
          "internalType": "uint256",
          "name": "amount",
          "type": "uint256"
        }
      ],
      "name": "BorrowAllowanceDelegated",
      "type": "event"
    },
    {
      "anonymous": false,
      "inputs": [
        {
          "indexed": true,
          "internalType": "address",
          "name": "user",
          "type": "address"
        },
        {
          "indexed": false,
          "internalType": "uint256",
          "name": "amount",
          "type": "uint256"
        },
        {
          "indexed": false,
          "internalType": "uint256",
          "name": "currentBalance",
          "type": "uint256"
        },
        {
          "indexed": false,
          "internalType": "uint256",
          "name": "balanceIncrease",
          "type": "uint256"
        },
        {
          "indexed": false,
          "internalType": "uint256",
          "name": "avgStableRate",
          "type": "uint256"
        },
        {
          "indexed": false,
          "internalType": "uint256",
          "name": "newTotalSupply",
          "type": "uint256"
        }
      ],
      "name": "Burn",
      "type": "event"
    },
    {
      "anonymous": false,
      "inputs": [
        {
          "indexed": true,
          "internalType": "address",
          "name": "underlyingAsset",
          "type": "address"
        },
        {
          "indexed": true,
          "internalType": "address",
          "name": "pool",
          "type": "address"
        },
        {
          "indexed": false,
          "internalType": "address",
          "name": "incentivesController",
          "type": "address"
        },
        {
          "indexed": false,
          "internalType": "uint8",
          "name": "debtTokenDecimals",
          "type": "uint8"
        },
        {
          "indexed": false,
          "internalType": "string",
          "name": "debtTokenName",
          "type": "string"
        },
        {
          "indexed": false,
          "internalType": "string",
          "name": "debtTokenSymbol",
          "type": "string"
        },
        {
          "indexed": false,
          "internalType": "bytes",
          "name": "params",
          "type": "bytes"
        }
      ],
      "name": "Initialized",
      "type": "event"
    },
    {
      "anonymous": false,
      "inputs": [
        {
          "indexed": true,
          "internalType": "address",
          "name": "user",
          "type": "address"
        },
        {
          "indexed": true,
          "internalType": "address",
          "name": "onBehalfOf",
          "type": "address"
        },
        {
          "indexed": false,
          "internalType": "uint256",
          "name": "amount",
          "type": "uint256"
        },
        {
          "indexed": false,
          "internalType": "uint256",
          "name": "currentBalance",
          "type": "uint256"
        },
        {
          "indexed": false,
          "internalType": "uint256",
          "name": "balanceIncrease",
          "type": "uint256"
        },
        {
          "indexed": false,
          "internalType": "uint256",
          "name": "newRate",
          "type": "uint256"
        },
        {
          "indexed": false,
          "internalType": "uint256",
          "name": "avgStableRate",
          "type": "uint256"
        },
        {
          "indexed": false,
          "internalType": "uint256",
          "name": "newTotalSupply",
          "type": "uint256"
        }
      ],
      "name": "Mint",
      "type": "event"
    },
    {
      "anonymous": false,
      "inputs": [
        {
          "indexed": true,
          "internalType": "address",
          "name": "from",
          "type": "address"
        },
        {
          "indexed": true,
          "internalType": "address",
          "name": "to",
          "type": "address"
        },
        {
          "indexed": false,
          "internalType": "uint256",
          "name": "value",
          "type": "uint256"
        }
      ],
      "name": "Transfer",
      "type": "event"
    },
    {
      "inputs": [],
      "name": "DEBT_TOKEN_REVISION",
      "outputs": [
        {
          "internalType": "uint256",
          "name": "",
          "type": "uint256"
        }
      ],
      "stateMutability": "view",
      "type": "function"
    },
    {
      "inputs": [],
      "name": "DOMAIN_SEPARATOR",
      "outputs": [
        {
          "internalType": "bytes32",
          "name": "",
          "type": "bytes32"
        }
      ],
      "stateMutability": "view",
      "type": "function"
    },
    {
      "inputs": [],
      "name": "EIP712_REVISION",
      "outputs": [
        {
          "internalType": "bytes",
          "name": "",
          "type": "bytes"
        }
      ],
      "stateMutability": "view",
      "type": "function"
    },
    {
      "inputs": [],
      "name": "PERMIT_DELEGATION_TYPEHASH",
      "outputs": [
        {
          "internalType": "bytes32",
          "name": "",
          "type": "bytes32"
        }
      ],
      "stateMutability": "view",
      "type": "function"
    },
    {
      "inputs": [],
      "name": "POOL",
      "outputs": [
        {
          "internalType": "contract ILendingPool",
          "name": "",
          "type": "address"
        }
      ],
      "stateMutability": "view",
      "type": "function"
    },
    {
      "inputs": [],
      "name": "UNDERLYING_ASSET_ADDRESS",
      "outputs": [
        {
          "internalType": "address",
          "name": "",
          "type": "address"
        }
      ],
      "stateMutability": "view",
      "type": "function"
    },
    {
      "inputs": [
        {
          "internalType": "address",
          "name": "",
          "type": "address"
        }
      ],
      "name": "_nonces",
      "outputs": [
        {
          "internalType": "uint256",
          "name": "",
          "type": "uint256"
        }
      ],
      "stateMutability": "view",
      "type": "function"
    },
    {
      "inputs": [
        {
          "internalType": "address",
          "name": "owner",
          "type": "address"
        },
        {
          "internalType": "address",
          "name": "spender",
          "type": "address"
        }
      ],
      "name": "allowance",
      "outputs": [
        {
          "internalType": "uint256",
          "name": "",
          "type": "uint256"
        }
      ],
      "stateMutability": "view",
      "type": "function"
    },
    {
      "inputs": [
        {
          "internalType": "address",
          "name": "spender",
          "type": "address"
        },
        {
          "internalType": "uint256",
          "name": "amount",
          "type": "uint256"
        }
      ],
      "name": "approve",
      "outputs": [
        {
          "internalType": "bool",
          "name": "",
          "type": "bool"
        }
      ],
      "stateMutability": "nonpayable",
      "type": "function"
    },
    {
      "inputs": [
        {
          "internalType": "address",
          "name": "delegatee",
          "type": "address"
        },
        {
          "internalType": "uint256",
          "name": "amount",
          "type": "uint256"
        }
      ],
      "name": "approveDelegation",
      "outputs": [],
      "stateMutability": "nonpayable",
      "type": "function"
    },
    {
      "inputs": [
        {
          "internalType": "address",
          "name": "account",
          "type": "address"
        }
      ],
      "name": "balanceOf",
      "outputs": [
        {
          "internalType": "uint256",
          "name": "",
          "type": "uint256"
        }
      ],
      "stateMutability": "view",
      "type": "function"
    },
    {
      "inputs": [
        {
          "internalType": "address",
          "name": "fromUser",
          "type": "address"
        },
        {
          "internalType": "address",
          "name": "toUser",
          "type": "address"
        }
      ],
      "name": "borrowAllowance",
      "outputs": [
        {
          "internalType": "uint256",
          "name": "",
          "type": "uint256"
        }
      ],
      "stateMutability": "view",
      "type": "function"
    },
    {
      "inputs": [
        {
          "internalType": "address",
          "name": "user",
          "type": "address"
        },
        {
          "internalType": "uint256",
          "name": "amount",
          "type": "uint256"
        }
      ],
      "name": "burn",
      "outputs": [],
      "stateMutability": "nonpayable",
      "type": "function"
    },
    {
      "inputs": [],
      "name": "decimals",
      "outputs": [
        {
          "internalType": "uint8",
          "name": "",
          "type": "uint8"
        }
      ],
      "stateMutability": "view",
      "type": "function"
    },
    {
      "inputs": [
        {
          "internalType": "address",
          "name": "spender",
          "type": "address"
        },
        {
          "internalType": "uint256",
          "name": "subtractedValue",
          "type": "uint256"
        }
      ],
      "name": "decreaseAllowance",
      "outputs": [
        {
          "internalType": "bool",
          "name": "",
          "type": "bool"
        }
      ],
      "stateMutability": "nonpayable",
      "type": "function"
    },
    {
      "inputs": [],
      "name": "getAverageStableRate",
      "outputs": [
        {
          "internalType": "uint256",
          "name": "",
          "type": "uint256"
        }
      ],
      "stateMutability": "view",
      "type": "function"
    },
    {
      "inputs": [],
      "name": "getIncentivesController",
      "outputs": [
        {
          "internalType": "contract IAaveIncentivesController",
          "name": "",
          "type": "address"
        }
      ],
      "stateMutability": "view",
      "type": "function"
    },
    {
      "inputs": [],
      "name": "getSupplyData",
      "outputs": [
        {
          "internalType": "uint256",
          "name": "",
          "type": "uint256"
        },
        {
          "internalType": "uint256",
          "name": "",
          "type": "uint256"
        },
        {
          "internalType": "uint256",
          "name": "",
          "type": "uint256"
        },
        {
          "internalType": "uint40",
          "name": "",
          "type": "uint40"
        }
      ],
      "stateMutability": "view",
      "type": "function"
    },
    {
      "inputs": [],
      "name": "getTotalSupplyAndAvgRate",
      "outputs": [
        {
          "internalType": "uint256",
          "name": "",
          "type": "uint256"
        },
        {
          "internalType": "uint256",
          "name": "",
          "type": "uint256"
        }
      ],
      "stateMutability": "view",
      "type": "function"
    },
    {
      "inputs": [],
      "name": "getTotalSupplyLastUpdated",
      "outputs": [
        {
          "internalType": "uint40",
          "name": "",
          "type": "uint40"
        }
      ],
      "stateMutability": "view",
      "type": "function"
    },
    {
      "inputs": [
        {
          "internalType": "address",
          "name": "user",
          "type": "address"
        }
      ],
      "name": "getUserLastUpdated",
      "outputs": [
        {
          "internalType": "uint40",
          "name": "",
          "type": "uint40"
        }
      ],
      "stateMutability": "view",
      "type": "function"
    },
    {
      "inputs": [
        {
          "internalType": "address",
          "name": "user",
          "type": "address"
        }
      ],
      "name": "getUserStableRate",
      "outputs": [
        {
          "internalType": "uint256",
          "name": "",
          "type": "uint256"
        }
      ],
      "stateMutability": "view",
      "type": "function"
    },
    {
      "inputs": [
        {
          "internalType": "address",
          "name": "spender",
          "type": "address"
        },
        {
          "internalType": "uint256",
          "name": "addedValue",
          "type": "uint256"
        }
      ],
      "name": "increaseAllowance",
      "outputs": [
        {
          "internalType": "bool",
          "name": "",
          "type": "bool"
        }
      ],
      "stateMutability": "nonpayable",
      "type": "function"
    },
    {
      "inputs": [
        {
          "internalType": "contract ILendingPool",
          "name": "pool",
          "type": "address"
        },
        {
          "internalType": "address",
          "name": "underlyingAsset",
          "type": "address"
        },
        {
          "internalType": "contract IAaveIncentivesController",
          "name": "incentivesController",
          "type": "address"
        },
        {
          "internalType": "uint8",
          "name": "debtTokenDecimals",
          "type": "uint8"
        },
        {
          "internalType": "string",
          "name": "debtTokenName",
          "type": "string"
        },
        {
          "internalType": "string",
          "name": "debtTokenSymbol",
          "type": "string"
        },
        {
          "internalType": "bytes",
          "name": "params",
          "type": "bytes"
        }
      ],
      "name": "initialize",
      "outputs": [],
      "stateMutability": "nonpayable",
      "type": "function"
    },
    {
      "inputs": [
        {
          "internalType": "address",
          "name": "user",
          "type": "address"
        },
        {
          "internalType": "address",
          "name": "onBehalfOf",
          "type": "address"
        },
        {
          "internalType": "uint256",
          "name": "amount",
          "type": "uint256"
        },
        {
          "internalType": "uint256",
          "name": "rate",
          "type": "uint256"
        }
      ],
      "name": "mint",
      "outputs": [
        {
          "internalType": "bool",
          "name": "",
          "type": "bool"
        }
      ],
      "stateMutability": "nonpayable",
      "type": "function"
    },
    {
      "inputs": [],
      "name": "name",
      "outputs": [
        {
          "internalType": "string",
          "name": "",
          "type": "string"
        }
      ],
      "stateMutability": "view",
      "type": "function"
    },
    {
      "inputs": [
        {
          "internalType": "address",
          "name": "delegator",
          "type": "address"
        },
        {
          "internalType": "address",
          "name": "delegatee",
          "type": "address"
        },
        {
          "internalType": "uint256",
          "name": "value",
          "type": "uint256"
        },
        {
          "internalType": "uint256",
          "name": "deadline",
          "type": "uint256"
        },
        {
          "internalType": "uint8",
          "name": "v",
          "type": "uint8"
        },
        {
          "internalType": "bytes32",
          "name": "r",
          "type": "bytes32"
        },
        {
          "internalType": "bytes32",
          "name": "s",
          "type": "bytes32"
        }
      ],
      "name": "permitDelegation",
      "outputs": [],
      "stateMutability": "nonpayable",
      "type": "function"
    },
    {
      "inputs": [
        {
          "internalType": "address",
          "name": "user",
          "type": "address"
        }
      ],
      "name": "principalBalanceOf",
      "outputs": [
        {
          "internalType": "uint256",
          "name": "",
          "type": "uint256"
        }
      ],
      "stateMutability": "view",
      "type": "function"
    },
    {
      "inputs": [],
      "name": "symbol",
      "outputs": [
        {
          "internalType": "string",
          "name": "",
          "type": "string"
        }
      ],
      "stateMutability": "view",
      "type": "function"
    },
    {
      "inputs": [],
      "name": "totalSupply",
      "outputs": [
        {
          "internalType": "uint256",
          "name": "",
          "type": "uint256"
        }
      ],
      "stateMutability": "view",
      "type": "function"
    },
    {
      "inputs": [
        {
          "internalType": "address",
          "name": "recipient",
          "type": "address"
        },
        {
          "internalType": "uint256",
          "name": "amount",
          "type": "uint256"
        }
      ],
      "name": "transfer",
      "outputs": [
        {
          "internalType": "bool",
          "name": "",
          "type": "bool"
        }
      ],
      "stateMutability": "nonpayable",
      "type": "function"
    },
    {
      "inputs": [
        {
          "internalType": "address",
          "name": "sender",
          "type": "address"
        },
        {
          "internalType": "address",
          "name": "recipient",
          "type": "address"
        },
        {
          "internalType": "uint256",
          "name": "amount",
          "type": "uint256"
        }
      ],
      "name": "transferFrom",
      "outputs": [
        {
          "internalType": "bool",
          "name": "",
          "type": "bool"
        }
      ],
      "stateMutability": "nonpayable",
      "type": "function"
    }
  ],
  "bytecode": "0x608060405260006006553480156200001657600080fd5b50604080518082018252600e8082526d111150951513d2d15397d253541360921b60208084018281528551808701909652928552840152815191929160009162000064916003919062000098565b5081516200007a90600490602085019062000098565b506005805460ff191660ff9290921691909117905550620001349050565b828054600181600116156101000203166002900490600052602060002090601f016020900481019282601f10620000db57805160ff19168380011785556200010b565b828001600101855582156200010b579182015b828111156200010b578251825591602001919060010190620000ee565b50620001199291506200011d565b5090565b5b808211156200011957600081556001016200011e565b61208780620001446000396000f3fe608060405234801561001057600080fd5b50600436106101f05760003560e01c806390f6fcf21161010f578063b9a7b622116100a2578063dd62ed3e11610071578063dd62ed3e14610781578063e7484890146107af578063e78c9b3b146107b7578063f731e9be146107dd576101f0565b8063b9a7b6221461057e578063c04a8a1014610586578063c222ec8a146105b2578063c634dfaa1461075b576101f0565b8063a9059cbb116100de578063a9059cbb146104e8578063b16a19de14610514578063b3f1c93d1461051c578063b9844d8d14610558576101f0565b806390f6fcf2146104ac57806395d89b41146104b45780639dc29fac146104bc578063a457c2d714610330576101f0565b80636bd76d241161018757806375d264131161015657806375d2641314610427578063781603761461042f578063797743381461043757806379ce6b8c1461046c576101f0565b80636bd76d241461035c5780636efc53a61461038a57806370a08231146103dd5780637535d24614610403576101f0565b806323b872dd116101c357806323b872dd146102d4578063313ce5671461030a5780633644e515146103285780633950935114610330576101f0565b806306fdde03146101f5578063095ea7b3146102725780630d318ebe146102b257806318160ddd146102cc575b600080fd5b6101fd6107fe565b6040805160208082528351818301528351919283929083019185019080838360005b8381101561023757818101518382015260200161021f565b50505050905090810190601f1680156102645780820380516001836020036101000a031916815260200191505b509250505060405180910390f35b61029e6004803603604081101561028857600080fd5b506001600160a01b038135169060200135610894565b604080519115158252519081900360200190f35b6102ba6108dc565b60408051918252519081900360200190f35b6102ba610900565b61029e600480360360608110156102ea57600080fd5b506001600160a01b03813581169160208101359091169060400135610912565b61031261095a565b6040805160ff9092168252519081900360200190f35b6102ba610963565b61029e6004803603604081101561034657600080fd5b506001600160a01b038135169060200135610969565b6102ba6004803603604081101561037257600080fd5b506001600160a01b03813581169160200135166109b8565b6103db600480360360e08110156103a057600080fd5b506001600160a01b03813581169160208101359091169060408101359060608101359060ff6080820135169060a08101359060c001356109e5565b005b6102ba600480360360208110156103f357600080fd5b50356001600160a01b0316610c30565b61040b610caa565b604080516001600160a01b039092168252519081900360200190f35b61040b610cc2565b6101fd610ccc565b61043f610ce9565b6040805194855260208501939093528383019190915264ffffffffff166060830152519081900360800190f35b6104926004803603602081101561048257600080fd5b50356001600160a01b0316610d1f565b6040805164ffffffffff9092168252519081900360200190f35b6102ba610d41565b6101fd610d47565b6103db600480360360408110156104d257600080fd5b506001600160a01b038135169060200135610da8565b61029e600480360360408110156104fe57600080fd5b506001600160a01b038135169060200135610912565b61040b61110e565b61029e6004803603608081101561053257600080fd5b506001600160a01b0381358116916020810135909116906040810135906060013561111d565b6102ba6004803603602081101561056e57600080fd5b50356001600160a01b0316611475565b6102ba611487565b6103db6004803603604081101561059c57600080fd5b506001600160a01b03813516906020013561148c565b6103db600480360360e08110156105c857600080fd5b6001600160a01b038235811692602081013582169260408201359092169160ff606083013516919081019060a08101608082013564010000000081111561060e57600080fd5b82018360208201111561062057600080fd5b8035906020019184600183028401116401000000008311171561064257600080fd5b91908080601f016020809104026020016040519081016040528093929190818152602001838380828437600092019190915250929594936020810193503591505064010000000081111561069557600080fd5b8201836020820111156106a757600080fd5b803590602001918460018302840111640100000000831117156106c957600080fd5b91908080601f016020809104026020016040519081016040528093929190818152602001838380828437600092019190915250929594936020810193503591505064010000000081111561071c57600080fd5b82018360208201111561072e57600080fd5b8035906020019184600183028401116401000000008311171561075057600080fd5b5090925090506114a2565b6102ba6004803603602081101561077157600080fd5b50356001600160a01b03166117d4565b6102ba6004803603604081101561079757600080fd5b506001600160a01b0381358116916020013516610969565b6104926117df565b6102ba600480360360208110156107cd57600080fd5b50356001600160a01b03166117ec565b6107e5611807565b6040805192835260208301919091528051918290030190f35b60038054604080516020601f600260001961010060018816150201909516949094049384018190048102820181019092528281526060939092909183018282801561088a5780601f1061085f5761010080835404028352916020019161088a565b820191906000526020600020905b81548152906001019060200180831161086d57829003601f168201915b5050505050905090565b6040805162461bcd60e51b81526020600482015260166024820152751054141493d5905317d393d517d4d5541413d495115160521b6044820152905160009181900360640190fd5b7f7052c305e427df216ef74ac0ac334c514533009f31435f11b8b7875c939da95a81565b600061090d603b54611820565b905090565b6040805162461bcd60e51b81526020600482015260166024820152751514905394d1915497d393d517d4d5541413d495115160521b6044820152905160009181900360640190fd5b60055460ff1690565b60425481565b6040805162461bcd60e51b815260206004820152601760248201527f414c4c4f57414e43455f4e4f545f535550504f525445440000000000000000006044820152905160009181900360640190fd5b6001600160a01b038083166000908152603a60209081526040808320938516835292905220545b92915050565b6001600160a01b038716610a34576040805162461bcd60e51b815260206004820152601160248201527024a72b20a624a22fa222a622a3a0aa27a960791b604482015290519081900360640190fd5b83421115610a7e576040805162461bcd60e51b815260206004820152601260248201527124a72b20a624a22fa2ac2824a920aa24a7a760711b604482015290519081900360640190fd5b6001600160a01b0380881660008181526041602090815260408083205460425482517f7052c305e427df216ef74ac0ac334c514533009f31435f11b8b7875c939da95a8186015280840196909652958c166060860152608085018b905260a0850181905260c08086018b90528251808703909101815260e08601835280519084012061190160f01b6101008701526101028601969096526101228086019690965281518086039096018652610142850180835286519684019690962093909552610162840180825283905260ff88166101828501526101a284018790526101c284018690525191926001926101e28083019392601f198301929081900390910190855afa158015610b93573d6000803e3d6000fd5b505050602060405103516001600160a01b0316896001600160a01b031614610bf6576040805162461bcd60e51b8152602060048201526011602482015270494e56414c49445f5349474e415455524560781b604482015290519081900360640190fd5b610c01826001611868565b6001600160a01b038a16600090815260416020526040902055610c25898989611878565b505050505050505050565b600080610c3c836118f2565b6001600160a01b0384166000908152603d602052604090205490915081610c6857600092505050610ca5565b6001600160a01b0384166000908152603c6020526040812054610c9390839064ffffffffff1661190d565b9050610c9f8382611921565b93505050505b919050565b603e546501000000000090046001600160a01b031690565b600061090d6119df565b604051806040016040528060018152602001603160f81b81525081565b6000806000806000603b549050610cfe6119ee565b610d0782611820565b603e54919790965091945064ffffffffff1692509050565b6001600160a01b03166000908152603c602052604090205464ffffffffff1690565b603b5490565b60048054604080516020601f600260001961010060018816150201909516949094049384018190048102820181019092528281526060939092909183018282801561088a5780601f1061085f5761010080835404028352916020019161088a565b610db0610caa565b6001600160a01b0316610dc16119f4565b6001600160a01b03161460405180604001604052806002815260200161323960f01b81525090610e6f5760405162461bcd60e51b81526004018080602001828103825283818151815260200191508051906020019080838360005b83811015610e34578181015183820152602001610e1c565b50505050905090810190601f168015610e615780820380516001836020036101000a031916815260200191505b509250505060405180910390fd5b50600080610e7c846119f8565b92509250506000610e8b610900565b6001600160a01b0386166000908152603d6020526040812054919250908190868411610ec0576000603b819055600255610f42565b610eca8488611a51565b600281905591506000610ee8610edf86611a61565b603b5490611921565b90506000610eff610ef88a611a61565b8490611921565b9050818110610f1b5760006002819055603b8190559450610f3f565b610f37610f2785611a61565b610f318484611a51565b90611adf565b603b81905594505b50505b85871415610f80576001600160a01b0388166000908152603d60209081526040808320839055603c9091529020805464ffffffffff19169055610fae565b6001600160a01b0388166000908152603c60205260409020805464ffffffffff19164264ffffffffff161790555b603e805464ffffffffff19164264ffffffffff161790558685111561104e576000610fd98689611a51565b9050610fe6898287611be6565b6040805182815260208101899052808201889052606081018490526080810186905260a0810185905290516001600160a01b038b169182917fc16f4e4ca34d790de4c656c72fd015c667d688f20be64eea360618545c4c530f9181900360c00190a3506110c3565b600061105a8887611a51565b9050611067898287611cab565b6040805182815260208101899052808201889052606081018690526080810185905290516001600160a01b038b16917f44bd20a79e993bdcc7cbedf54a3b4d19fb78490124b6b90d04fe3242eea579e8919081900360a00190a2505b6040805188815290516000916001600160a01b038b16917fddf252ad1be2c89b69c2b068fc378daa952ba7f163c4a11628f55a4df523b3ef9181900360200190a35050505050505050565b603f546001600160a01b031690565b6000611127610caa565b6001600160a01b03166111386119f4565b6001600160a01b03161460405180604001604052806002815260200161323960f01b815250906111a95760405162461bcd60e51b8152602060048201818152835160248401528351909283926044909101919085019080838360008315610e34578181015183820152602001610e1c565b506111b2611f61565b846001600160a01b0316866001600160a01b0316146111d6576111d6858786611ced565b6000806111e2876119f8565b92509250506111ef610900565b808452603b5460808501526112049087611868565b6002819055602084015261121786611a61565b604084015261127561123161122c8489611868565b611a61565b6040850151610f31906112449089611921565b61126f61125087611a61565b6001600160a01b038d166000908152603d602052604090205490611921565b90611868565b60608401819052604080518082019091526002815261373960f01b6020820152906fffffffffffffffffffffffffffffffff10156112f45760405162461bcd60e51b8152602060048201818152835160248401528351909283926044909101919085019080838360008315610e34578181015183820152602001610e1c565b5060608301516001600160a01b0388166000908152603d6020908152604080832093909355603c8152919020805464ffffffffff421664ffffffffff199182168117909255603e8054909116909117905583015161138a9061135590611a61565b610f3161136f86604001518961192190919063ffffffff16565b61126f61137f8860000151611a61565b608089015190611921565b603b81905560808401526113a9876113a28884611868565b8551611be6565b6040805187815290516001600160a01b038916916000917fddf252ad1be2c89b69c2b068fc378daa952ba7f163c4a11628f55a4df523b3ef9181900360200190a3866001600160a01b0316886001600160a01b03167fc16f4e4ca34d790de4c656c72fd015c667d688f20be64eea360618545c4c530f888585886060015189608001518a6020015160405180878152602001868152602001858152602001848152602001838152602001828152602001965050505050505060405180910390a350159695505050505050565b60416020526000908152604090205481565b600281565b61149e6114976119f4565b8383611878565b5050565b60006114ac611db5565b60075490915060ff16806114c357506114c3611dba565b806114cf575060065481115b61150a5760405162461bcd60e51b815260040180806020018281038252602e815260200180612024602e913960400191505060405180910390fd5b60075460ff1615801561152a576007805460ff1916600117905560068290555b4661153487611dc0565b61153d86611dd3565b61154688611de6565b8a603e60056101000a8154816001600160a01b0302191690836001600160a01b0316021790555089603f60006101000a8154816001600160a01b0302191690836001600160a01b0316021790555088604060006101000a8154816001600160a01b0302191690836001600160a01b031602179055507f8b73c3c69bb8fe3d512ecc4cf759cc79239f7b179b0ffacaa9a75d522b39400f8780519060200120604051806040016040528060018152602001603160f81b81525080519060200120833060405160200180868152602001858152602001848152602001838152602001826001600160a01b0316815260200195505050505050604051602081830303815290604052805190602001206042819055508a6001600160a01b03168a6001600160a01b03167f40251fbfb6656cfa65a00d7879029fec1fad21d28fdcff2f4f68f52795b74f2c8b8b8b8b8b8b60405180876001600160a01b031681526020018660ff168152602001806020018060200180602001848103845288818151815260200191508051906020019080838360005b838110156116f05781810151838201526020016116d8565b50505050905090810190601f16801561171d5780820380516001836020036101000a031916815260200191505b50848103835287518152875160209182019189019080838360005b83811015611750578181015183820152602001611738565b50505050905090810190601f16801561177d5780820380516001836020036101000a031916815260200191505b508481038252858152602001868680828437600083820152604051601f909101601f19169092018290039b50909950505050505050505050a35080156117c8576007805460ff191690555b50505050505050505050565b60006109df826118f2565b603e5464ffffffffff1690565b6001600160a01b03166000908152603d602052604090205490565b603b54600090819061181881611820565b925090509091565b60008061182b6119ee565b90508061183c576000915050610ca5565b603e5460009061185490859064ffffffffff1661190d565b90506118608282611921565b949350505050565b808201828110156109df57600080fd5b6001600160a01b038084166000818152603a602090815260408083209487168084529490915290208390557fda919360433220e13b51e8c211e490d148e61a3bd53de8c097194e458b97f3e16118cc61110e565b604080516001600160a01b039092168252602082018690528051918290030190a3505050565b6001600160a01b031660009081526020819052604090205490565b600061191a838342611dfc565b9392505050565b600082158061192e575081155b1561193b575060006109df565b816b019d971e4fe8401e74000000198161195157fe5b0483111560405180604001604052806002815260200161068760f31b815250906119bc5760405162461bcd60e51b8152602060048201818152835160248401528351909283926044909101919085019080838360008315610e34578181015183820152602001610e1c565b50506b033b2e3c9fd0803ce800000091026b019d971e4fe8401e74000000010490565b6040546001600160a01b031690565b60025490565b3390565b600080600080611a07856118f2565b905080611a1f57600080600093509350935050611a4a565b6000611a3482611a2e88610c30565b90611a51565b905081611a418183611868565b90955093509150505b9193909250565b808203828111156109df57600080fd5b6000633b9aca0082810290839082041460405180604001604052806002815260200161068760f31b81525090611ad85760405162461bcd60e51b8152602060048201818152835160248401528351909283926044909101919085019080838360008315610e34578181015183820152602001610e1c565b5092915050565b604080518082019091526002815261035360f41b602082015260009082611b475760405162461bcd60e51b8152602060048201818152835160248401528351909283926044909101919085019080838360008315610e34578181015183820152602001610e1c565b5060408051808201909152600280825261068760f31b60208301528304906b033b2e3c9fd0803ce8000000821904851115611bc35760405162461bcd60e51b8152602060048201818152835160248401528351909283926044909101919085019080838360008315610e34578181015183820152602001610e1c565b5082816b033b2e3c9fd0803ce800000086020181611bdd57fe5b04949350505050565b6001600160a01b038316600090815260208190526040902054611c098184611868565b6001600160a01b03808616600090815260208190526040908190209290925590541615611ca5576040805481516318c39f1760e11b81526001600160a01b0387811660048301526024820186905260448201859052925192909116916331873e2e9160648082019260009290919082900301818387803b158015611c8c57600080fd5b505af1158015611ca0573d6000803e3d6000fd5b505050505b50505050565b6001600160a01b038316600090815260208181526040918290205482518084019093526002835261038360f41b9183019190915290611c099082908590611ed2565b6040805180820182526002815261353960f01b6020808301919091526001600160a01b038087166000908152603a83528481209187168152915291822054611d36918490611ed2565b6001600160a01b038086166000818152603a60209081526040808320948916808452949091529020839055919250907fda919360433220e13b51e8c211e490d148e61a3bd53de8c097194e458b97f3e1611d8e61110e565b604080516001600160a01b039092168252602082018690528051918290030190a350505050565b600290565b303b1590565b805161149e906003906020840190611f90565b805161149e906004906020840190611f90565b6005805460ff191660ff92909216919091179055565b600080611e108364ffffffffff8616611a51565b905080611e2757611e1f611f2d565b91505061191a565b6000198101600060028311611e3d576000611e42565b600283035b90506301e1338087046000611e578280611921565b90506000611e658284611921565b905060006002611e7f84611e798a8a611f3d565b90611f3d565b81611e8657fe5b04905060006006611e9d84611e7989818d8d611f3d565b81611ea457fe5b049050611ec28161126f8481611eba8a8e611f3d565b61126f611f2d565b9c9b505050505050505050505050565b8183038184821115611f255760405162461bcd60e51b8152602060048201818152835160248401528351909283926044909101919085019080838360008315610e34578181015183820152602001610e1c565b509392505050565b6b033b2e3c9fd0803ce800000090565b6000821580611f5857505081810281838281611f5557fe5b04145b6109df57600080fd5b6040518060a0016040528060008152602001600081526020016000815260200160008152602001600081525090565b828054600181600116156101000203166002900490600052602060002090601f016020900481019282601f10611fd157805160ff1916838001178555611ffe565b82800160010185558215611ffe579182015b82811115611ffe578251825591602001919060010190611fe3565b5061200a92915061200e565b5090565b5b8082111561200a576000815560010161200f56fe436f6e747261637420696e7374616e63652068617320616c7265616479206265656e20696e697469616c697a6564a2646970667358221220ce676508a836f4a77a1cb489794cf9659f2c6c94fb9bcb23bae72f2f5b3427e164736f6c634300060c0033",
  "linkReferences": {},
  "deployedLinkReferences": {}
}