{
  "_format": "hh-sol-artifact-1",
  "contractName": "Errors",
  "sourceName": "contracts/protocol/libraries/helpers/Errors.sol",
  "abi": [
    {
      "inputs": [],
      "name": "BORROW_ALLOWANCE_NOT_ENOUGH",
      "outputs": [
        {
          "internalType": "string",
          "name": "",
          "type": "string"
        }
      ],
      "stateMutability": "view",
      "type": "function"
    },
    {
      "inputs": [],
      "name": "CALLER_NOT_POOL_ADMIN",
      "outputs": [
        {
          "internalType": "string",
          "name": "",
          "type": "string"
        }
      ],
      "stateMutability": "view",
      "type": "function"
    },
    {
      "inputs": [],
      "name": "CT_CALLER_MUST_BE_LENDING_POOL",
      "outputs": [
        {
          "internalType": "string",
          "name": "",
          "type": "string"
        }
      ],
      "stateMutability": "view",
      "type": "function"
    },
    {
      "inputs": [],
      "name": "CT_CANNOT_GIVE_ALLOWANCE_TO_HIMSELF",
      "outputs": [
        {
          "internalType": "string",
          "name": "",
          "type": "string"
        }
      ],
      "stateMutability": "view",
      "type": "function"
    },
    {
      "inputs": [],
      "name": "CT_INVALID_BURN_AMOUNT",
      "outputs": [
        {
          "internalType": "string",
          "name": "",
          "type": "string"
        }
      ],
      "stateMutability": "view",
      "type": "function"
    },
    {
      "inputs": [],
      "name": "CT_INVALID_MINT_AMOUNT",
      "outputs": [
        {
          "internalType": "string",
          "name": "",
          "type": "string"
        }
      ],
      "stateMutability": "view",
      "type": "function"
    },
    {
      "inputs": [],
      "name": "CT_TRANSFER_AMOUNT_NOT_GT_0",
      "outputs": [
        {
          "internalType": "string",
          "name": "",
          "type": "string"
        }
      ],
      "stateMutability": "view",
      "type": "function"
    },
    {
      "inputs": [],
      "name": "LPAPR_INVALID_ADDRESSES_PROVIDER_ID",
      "outputs": [
        {
          "internalType": "string",
          "name": "",
          "type": "string"
        }
      ],
      "stateMutability": "view",
      "type": "function"
    },
    {
      "inputs": [],
      "name": "LPAPR_PROVIDER_NOT_REGISTERED",
      "outputs": [
        {
          "internalType": "string",
          "name": "",
          "type": "string"
        }
      ],
      "stateMutability": "view",
      "type": "function"
    },
    {
      "inputs": [],
      "name": "LPCM_COLLATERAL_CANNOT_BE_LIQUIDATED",
      "outputs": [
        {
          "internalType": "string",
          "name": "",
          "type": "string"
        }
      ],
      "stateMutability": "view",
      "type": "function"
    },
    {
      "inputs": [],
      "name": "LPCM_HEALTH_FACTOR_NOT_BELOW_THRESHOLD",
      "outputs": [
        {
          "internalType": "string",
          "name": "",
          "type": "string"
        }
      ],
      "stateMutability": "view",
      "type": "function"
    },
    {
      "inputs": [],
      "name": "LPCM_NOT_ENOUGH_LIQUIDITY_TO_LIQUIDATE",
      "outputs": [
        {
          "internalType": "string",
          "name": "",
          "type": "string"
        }
      ],
      "stateMutability": "view",
      "type": "function"
    },
    {
      "inputs": [],
      "name": "LPCM_NO_ERRORS",
      "outputs": [
        {
          "internalType": "string",
          "name": "",
          "type": "string"
        }
      ],
      "stateMutability": "view",
      "type": "function"
    },
    {
      "inputs": [],
      "name": "LPCM_SPECIFIED_CURRENCY_NOT_BORROWED_BY_USER",
      "outputs": [
        {
          "internalType": "string",
          "name": "",
          "type": "string"
        }
      ],
      "stateMutability": "view",
      "type": "function"
    },
    {
      "inputs": [],
      "name": "LPC_CALLER_NOT_EMERGENCY_ADMIN",
      "outputs": [
        {
          "internalType": "string",
          "name": "",
          "type": "string"
        }
      ],
      "stateMutability": "view",
      "type": "function"
    },
    {
      "inputs": [],
      "name": "LPC_CALLER_NOT_EMERGENCY_OR_POOL_ADMIN",
      "outputs": [
        {
          "internalType": "string",
          "name": "",
          "type": "string"
        }
      ],
      "stateMutability": "view",
      "type": "function"
    },
    {
      "inputs": [],
      "name": "LPC_CALLER_NOT_RISK_OR_POOL_ADMIN",
      "outputs": [
        {
          "internalType": "string",
          "name": "",
          "type": "string"
        }
      ],
      "stateMutability": "view",
      "type": "function"
    },
    {
      "inputs": [],
      "name": "LPC_FLASHLOAN_PREMIUMS_MISMATCH",
      "outputs": [
        {
          "internalType": "string",
          "name": "",
          "type": "string"
        }
      ],
      "stateMutability": "view",
      "type": "function"
    },
    {
      "inputs": [],
      "name": "LPC_FLASHLOAN_PREMIUM_INVALID",
      "outputs": [
        {
          "internalType": "string",
          "name": "",
          "type": "string"
        }
      ],
      "stateMutability": "view",
      "type": "function"
    },
    {
      "inputs": [],
      "name": "LPC_INVALID_ADDRESSES_PROVIDER_ID",
      "outputs": [
        {
          "internalType": "string",
          "name": "",
          "type": "string"
        }
      ],
      "stateMutability": "view",
      "type": "function"
    },
    {
      "inputs": [],
      "name": "LPC_INVALID_ATOKEN_POOL_ADDRESS",
      "outputs": [
        {
          "internalType": "string",
          "name": "",
          "type": "string"
        }
      ],
      "stateMutability": "view",
      "type": "function"
    },
    {
      "inputs": [],
      "name": "LPC_INVALID_CONFIGURATION",
      "outputs": [
        {
          "internalType": "string",
          "name": "",
          "type": "string"
        }
      ],
      "stateMutability": "view",
      "type": "function"
    },
    {
      "inputs": [],
      "name": "LPC_INVALID_STABLE_DEBT_TOKEN_POOL_ADDRESS",
      "outputs": [
        {
          "internalType": "string",
          "name": "",
          "type": "string"
        }
      ],
      "stateMutability": "view",
      "type": "function"
    },
    {
      "inputs": [],
      "name": "LPC_INVALID_STABLE_DEBT_TOKEN_UNDERLYING_ADDRESS",
      "outputs": [
        {
          "internalType": "string",
          "name": "",
          "type": "string"
        }
      ],
      "stateMutability": "view",
      "type": "function"
    },
    {
      "inputs": [],
      "name": "LPC_INVALID_VARIABLE_DEBT_TOKEN_POOL_ADDRESS",
      "outputs": [
        {
          "internalType": "string",
          "name": "",
          "type": "string"
        }
      ],
      "stateMutability": "view",
      "type": "function"
    },
    {
      "inputs": [],
      "name": "LPC_INVALID_VARIABLE_DEBT_TOKEN_UNDERLYING_ADDRESS",
      "outputs": [
        {
          "internalType": "string",
          "name": "",
          "type": "string"
        }
      ],
      "stateMutability": "view",
      "type": "function"
    },
    {
      "inputs": [],
      "name": "LPC_RESERVE_LIQUIDITY_NOT_0",
      "outputs": [
        {
          "internalType": "string",
          "name": "",
          "type": "string"
        }
      ],
      "stateMutability": "view",
      "type": "function"
    },
    {
      "inputs": [],
      "name": "LP_CALLER_MUST_BE_AN_ATOKEN",
      "outputs": [
        {
          "internalType": "string",
          "name": "",
          "type": "string"
        }
      ],
      "stateMutability": "view",
      "type": "function"
    },
    {
      "inputs": [],
      "name": "LP_CALLER_NOT_LENDING_POOL_CONFIGURATOR",
      "outputs": [
        {
          "internalType": "string",
          "name": "",
          "type": "string"
        }
      ],
      "stateMutability": "view",
      "type": "function"
    },
    {
      "inputs": [],
      "name": "LP_FAILED_COLLATERAL_SWAP",
      "outputs": [
        {
          "internalType": "string",
          "name": "",
          "type": "string"
        }
      ],
      "stateMutability": "view",
      "type": "function"
    },
    {
      "inputs": [],
      "name": "LP_FAILED_REPAY_WITH_COLLATERAL",
      "outputs": [
        {
          "internalType": "string",
          "name": "",
          "type": "string"
        }
      ],
      "stateMutability": "view",
      "type": "function"
    },
    {
      "inputs": [],
      "name": "LP_INCONSISTENT_FLASHLOAN_PARAMS",
      "outputs": [
        {
          "internalType": "string",
          "name": "",
          "type": "string"
        }
      ],
      "stateMutability": "view",
      "type": "function"
    },
    {
      "inputs": [],
      "name": "LP_INCONSISTENT_PARAMS_LENGTH",
      "outputs": [
        {
          "internalType": "string",
          "name": "",
          "type": "string"
        }
      ],
      "stateMutability": "view",
      "type": "function"
    },
    {
      "inputs": [],
      "name": "LP_INCONSISTENT_PROTOCOL_ACTUAL_BALANCE",
      "outputs": [
        {
          "internalType": "string",
          "name": "",
          "type": "string"
        }
      ],
      "stateMutability": "view",
      "type": "function"
    },
    {
      "inputs": [],
      "name": "LP_INTEREST_RATE_REBALANCE_CONDITIONS_NOT_MET",
      "outputs": [
        {
          "internalType": "string",
          "name": "",
          "type": "string"
        }
      ],
      "stateMutability": "view",
      "type": "function"
    },
    {
      "inputs": [],
      "name": "LP_INVALID_EQUAL_ASSETS_TO_SWAP",
      "outputs": [
        {
          "internalType": "string",
          "name": "",
          "type": "string"
        }
      ],
      "stateMutability": "view",
      "type": "function"
    },
    {
      "inputs": [],
      "name": "LP_INVALID_FLASHLOAN_MODE",
      "outputs": [
        {
          "internalType": "string",
          "name": "",
          "type": "string"
        }
      ],
      "stateMutability": "view",
      "type": "function"
    },
    {
      "inputs": [],
      "name": "LP_INVALID_FLASH_LOAN_EXECUTOR_RETURN",
      "outputs": [
        {
          "internalType": "string",
          "name": "",
          "type": "string"
        }
      ],
      "stateMutability": "view",
      "type": "function"
    },
    {
      "inputs": [],
      "name": "LP_IS_PAUSED",
      "outputs": [
        {
          "internalType": "string",
          "name": "",
          "type": "string"
        }
      ],
      "stateMutability": "view",
      "type": "function"
    },
    {
      "inputs": [],
      "name": "LP_LIQUIDATION_CALL_FAILED",
      "outputs": [
        {
          "internalType": "string",
          "name": "",
          "type": "string"
        }
      ],
      "stateMutability": "view",
      "type": "function"
    },
    {
      "inputs": [],
      "name": "LP_NOT_CONTRACT",
      "outputs": [
        {
          "internalType": "string",
          "name": "",
          "type": "string"
        }
      ],
      "stateMutability": "view",
      "type": "function"
    },
    {
      "inputs": [],
      "name": "LP_NOT_ENOUGH_LIQUIDITY_TO_BORROW",
      "outputs": [
        {
          "internalType": "string",
          "name": "",
          "type": "string"
        }
      ],
      "stateMutability": "view",
      "type": "function"
    },
    {
      "inputs": [],
      "name": "LP_NOT_ENOUGH_STABLE_BORROW_BALANCE",
      "outputs": [
        {
          "internalType": "string",
          "name": "",
          "type": "string"
        }
      ],
      "stateMutability": "view",
      "type": "function"
    },
    {
      "inputs": [],
      "name": "LP_NO_MORE_RESERVES_ALLOWED",
      "outputs": [
        {
          "internalType": "string",
          "name": "",
          "type": "string"
        }
      ],
      "stateMutability": "view",
      "type": "function"
    },
    {
      "inputs": [],
      "name": "LP_REENTRANCY_NOT_ALLOWED",
      "outputs": [
        {
          "internalType": "string",
          "name": "",
          "type": "string"
        }
      ],
      "stateMutability": "view",
      "type": "function"
    },
    {
      "inputs": [],
      "name": "LP_REQUESTED_AMOUNT_TOO_SMALL",
      "outputs": [
        {
          "internalType": "string",
          "name": "",
          "type": "string"
        }
      ],
      "stateMutability": "view",
      "type": "function"
    },
    {
      "inputs": [],
      "name": "MATH_ADDITION_OVERFLOW",
      "outputs": [
        {
          "internalType": "string",
          "name": "",
          "type": "string"
        }
      ],
      "stateMutability": "view",
      "type": "function"
    },
    {
      "inputs": [],
      "name": "MATH_DIVISION_BY_ZERO",
      "outputs": [
        {
          "internalType": "string",
          "name": "",
          "type": "string"
        }
      ],
      "stateMutability": "view",
      "type": "function"
    },
    {
      "inputs": [],
      "name": "MATH_MULTIPLICATION_OVERFLOW",
      "outputs": [
        {
          "internalType": "string",
          "name": "",
          "type": "string"
        }
      ],
      "stateMutability": "view",
      "type": "function"
    },
    {
      "inputs": [],
      "name": "RC_INVALID_BORROW_CAP",
      "outputs": [
        {
          "internalType": "string",
          "name": "",
          "type": "string"
        }
      ],
      "stateMutability": "view",
      "type": "function"
    },
    {
      "inputs": [],
      "name": "RC_INVALID_DECIMALS",
      "outputs": [
        {
          "internalType": "string",
          "name": "",
          "type": "string"
        }
      ],
      "stateMutability": "view",
      "type": "function"
    },
    {
      "inputs": [],
      "name": "RC_INVALID_LIQ_BONUS",
      "outputs": [
        {
          "internalType": "string",
          "name": "",
          "type": "string"
        }
      ],
      "stateMutability": "view",
      "type": "function"
    },
    {
      "inputs": [],
      "name": "RC_INVALID_LIQ_THRESHOLD",
      "outputs": [
        {
          "internalType": "string",
          "name": "",
          "type": "string"
        }
      ],
      "stateMutability": "view",
      "type": "function"
    },
    {
      "inputs": [],
      "name": "RC_INVALID_LTV",
      "outputs": [
        {
          "internalType": "string",
          "name": "",
          "type": "string"
        }
      ],
      "stateMutability": "view",
      "type": "function"
    },
    {
      "inputs": [],
      "name": "RC_INVALID_RESERVE_FACTOR",
      "outputs": [
        {
          "internalType": "string",
          "name": "",
          "type": "string"
        }
      ],
      "stateMutability": "view",
      "type": "function"
    },
    {
      "inputs": [],
      "name": "RC_INVALID_SUPPLY_CAP",
      "outputs": [
        {
          "internalType": "string",
          "name": "",
          "type": "string"
        }
      ],
      "stateMutability": "view",
      "type": "function"
    },
    {
      "inputs": [],
      "name": "RL_ATOKEN_SUPPLY_NOT_ZERO",
      "outputs": [
        {
          "internalType": "string",
          "name": "",
          "type": "string"
        }
      ],
      "stateMutability": "view",
      "type": "function"
    },
    {
      "inputs": [],
      "name": "RL_LIQUIDITY_INDEX_OVERFLOW",
      "outputs": [
        {
          "internalType": "string",
          "name": "",
          "type": "string"
        }
      ],
      "stateMutability": "view",
      "type": "function"
    },
    {
      "inputs": [],
      "name": "RL_LIQUIDITY_RATE_OVERFLOW",
      "outputs": [
        {
          "internalType": "string",
          "name": "",
          "type": "string"
        }
      ],
      "stateMutability": "view",
      "type": "function"
    },
    {
      "inputs": [],
      "name": "RL_RESERVE_ALREADY_INITIALIZED",
      "outputs": [
        {
          "internalType": "string",
          "name": "",
          "type": "string"
        }
      ],
      "stateMutability": "view",
      "type": "function"
    },
    {
      "inputs": [],
      "name": "RL_STABLE_BORROW_RATE_OVERFLOW",
      "outputs": [
        {
          "internalType": "string",
          "name": "",
          "type": "string"
        }
      ],
      "stateMutability": "view",
      "type": "function"
    },
    {
      "inputs": [],
      "name": "RL_STABLE_DEBT_NOT_ZERO",
      "outputs": [
        {
          "internalType": "string",
          "name": "",
          "type": "string"
        }
      ],
      "stateMutability": "view",
      "type": "function"
    },
    {
      "inputs": [],
      "name": "RL_VARIABLE_BORROW_INDEX_OVERFLOW",
      "outputs": [
        {
          "internalType": "string",
          "name": "",
          "type": "string"
        }
      ],
      "stateMutability": "view",
      "type": "function"
    },
    {
      "inputs": [],
      "name": "RL_VARIABLE_BORROW_RATE_OVERFLOW",
      "outputs": [
        {
          "internalType": "string",
          "name": "",
          "type": "string"
        }
      ],
      "stateMutability": "view",
      "type": "function"
    },
    {
      "inputs": [],
      "name": "RL_VARIABLE_DEBT_SUPPLY_NOT_ZERO",
      "outputs": [
        {
          "internalType": "string",
          "name": "",
          "type": "string"
        }
      ],
      "stateMutability": "view",
      "type": "function"
    },
    {
      "inputs": [],
      "name": "SDT_BURN_EXCEEDS_BALANCE",
      "outputs": [
        {
          "internalType": "string",
          "name": "",
          "type": "string"
        }
      ],
      "stateMutability": "view",
      "type": "function"
    },
    {
      "inputs": [],
      "name": "SDT_STABLE_DEBT_OVERFLOW",
      "outputs": [
        {
          "internalType": "string",
          "name": "",
          "type": "string"
        }
      ],
      "stateMutability": "view",
      "type": "function"
    },
    {
      "inputs": [],
      "name": "UL_INVALID_INDEX",
      "outputs": [
        {
          "internalType": "string",
          "name": "",
          "type": "string"
        }
      ],
      "stateMutability": "view",
      "type": "function"
    },
    {
      "inputs": [],
      "name": "VL_AMOUNT_BIGGER_THAN_MAX_LOAN_SIZE_STABLE",
      "outputs": [
        {
          "internalType": "string",
          "name": "",
          "type": "string"
        }
      ],
      "stateMutability": "view",
      "type": "function"
    },
    {
      "inputs": [],
      "name": "VL_BORROWING_NOT_ENABLED",
      "outputs": [
        {
          "internalType": "string",
          "name": "",
          "type": "string"
        }
      ],
      "stateMutability": "view",
      "type": "function"
    },
    {
      "inputs": [],
      "name": "VL_BORROW_CAP_EXCEEDED",
      "outputs": [
        {
          "internalType": "string",
          "name": "",
          "type": "string"
        }
      ],
      "stateMutability": "view",
      "type": "function"
    },
    {
      "inputs": [],
      "name": "VL_COLLATERAL_BALANCE_IS_0",
      "outputs": [
        {
          "internalType": "string",
          "name": "",
          "type": "string"
        }
      ],
      "stateMutability": "view",
      "type": "function"
    },
    {
      "inputs": [],
      "name": "VL_COLLATERAL_CANNOT_COVER_NEW_BORROW",
      "outputs": [
        {
          "internalType": "string",
          "name": "",
          "type": "string"
        }
      ],
      "stateMutability": "view",
      "type": "function"
    },
    {
      "inputs": [],
      "name": "VL_COLLATERAL_SAME_AS_BORROWING_CURRENCY",
      "outputs": [
        {
          "internalType": "string",
          "name": "",
          "type": "string"
        }
      ],
      "stateMutability": "view",
      "type": "function"
    },
    {
      "inputs": [],
      "name": "VL_CURRENT_AVAILABLE_LIQUIDITY_NOT_ENOUGH",
      "outputs": [
        {
          "internalType": "string",
          "name": "",
          "type": "string"
        }
      ],
      "stateMutability": "view",
      "type": "function"
    },
    {
      "inputs": [],
      "name": "VL_DEPOSIT_ALREADY_IN_USE",
      "outputs": [
        {
          "internalType": "string",
          "name": "",
          "type": "string"
        }
      ],
      "stateMutability": "view",
      "type": "function"
    },
    {
      "inputs": [],
      "name": "VL_HEALTH_FACTOR_LOWER_THAN_LIQUIDATION_THRESHOLD",
      "outputs": [
        {
          "internalType": "string",
          "name": "",
          "type": "string"
        }
      ],
      "stateMutability": "view",
      "type": "function"
    },
    {
      "inputs": [],
      "name": "VL_INCONSISTENT_FLASHLOAN_PARAMS",
      "outputs": [
        {
          "internalType": "string",
          "name": "",
          "type": "string"
        }
      ],
      "stateMutability": "view",
      "type": "function"
    },
    {
      "inputs": [],
      "name": "VL_INVALID_AMOUNT",
      "outputs": [
        {
          "internalType": "string",
          "name": "",
          "type": "string"
        }
      ],
      "stateMutability": "view",
      "type": "function"
    },
    {
      "inputs": [],
      "name": "VL_INVALID_INTEREST_RATE_MODE_SELECTED",
      "outputs": [
        {
          "internalType": "string",
          "name": "",
          "type": "string"
        }
      ],
      "stateMutability": "view",
      "type": "function"
    },
    {
      "inputs": [],
      "name": "VL_LTV_VALIDATION_FAILED",
      "outputs": [
        {
          "internalType": "string",
          "name": "",
          "type": "string"
        }
      ],
      "stateMutability": "view",
      "type": "function"
    },
    {
      "inputs": [],
      "name": "VL_NOT_ENOUGH_AVAILABLE_USER_BALANCE",
      "outputs": [
        {
          "internalType": "string",
          "name": "",
          "type": "string"
        }
      ],
      "stateMutability": "view",
      "type": "function"
    },
    {
      "inputs": [],
      "name": "VL_NO_ACTIVE_RESERVE",
      "outputs": [
        {
          "internalType": "string",
          "name": "",
          "type": "string"
        }
      ],
      "stateMutability": "view",
      "type": "function"
    },
    {
      "inputs": [],
      "name": "VL_NO_DEBT_OF_SELECTED_TYPE",
      "outputs": [
        {
          "internalType": "string",
          "name": "",
          "type": "string"
        }
      ],
      "stateMutability": "view",
      "type": "function"
    },
    {
      "inputs": [],
      "name": "VL_NO_EXPLICIT_AMOUNT_TO_REPAY_ON_BEHALF",
      "outputs": [
        {
          "internalType": "string",
          "name": "",
          "type": "string"
        }
      ],
      "stateMutability": "view",
      "type": "function"
    },
    {
      "inputs": [],
      "name": "VL_NO_STABLE_RATE_LOAN_IN_RESERVE",
      "outputs": [
        {
          "internalType": "string",
          "name": "",
          "type": "string"
        }
      ],
      "stateMutability": "view",
      "type": "function"
    },
    {
      "inputs": [],
      "name": "VL_NO_VARIABLE_RATE_LOAN_IN_RESERVE",
      "outputs": [
        {
          "internalType": "string",
          "name": "",
          "type": "string"
        }
      ],
      "stateMutability": "view",
      "type": "function"
    },
    {
      "inputs": [],
      "name": "VL_RESERVE_FROZEN",
      "outputs": [
        {
          "internalType": "string",
          "name": "",
          "type": "string"
        }
      ],
      "stateMutability": "view",
      "type": "function"
    },
    {
      "inputs": [],
      "name": "VL_RESERVE_PAUSED",
      "outputs": [
        {
          "internalType": "string",
          "name": "",
          "type": "string"
        }
      ],
      "stateMutability": "view",
      "type": "function"
    },
    {
      "inputs": [],
      "name": "VL_SAME_BLOCK_BORROW_REPAY",
      "outputs": [
        {
          "internalType": "string",
          "name": "",
          "type": "string"
        }
      ],
      "stateMutability": "view",
      "type": "function"
    },
    {
      "inputs": [],
      "name": "VL_STABLE_BORROWING_NOT_ENABLED",
      "outputs": [
        {
          "internalType": "string",
          "name": "",
          "type": "string"
        }
      ],
      "stateMutability": "view",
      "type": "function"
    },
    {
      "inputs": [],
      "name": "VL_SUPPLY_CAP_EXCEEDED",
      "outputs": [
        {
          "internalType": "string",
          "name": "",
          "type": "string"
        }
      ],
      "stateMutability": "view",
      "type": "function"
    },
    {
      "inputs": [],
      "name": "VL_UNDERLYING_BALANCE_NOT_GREATER_THAN_0",
      "outputs": [
        {
          "internalType": "string",
          "name": "",
          "type": "string"
        }
      ],
      "stateMutability": "view",
      "type": "function"
    }
  ],
  "bytecode": "0x61138f610026600b82828239805160001a60731461001957fe5b30600052607381538281f3fe73000000000000000000000000000000000000000030146080604052600436106105195760003560e01c80636d422aa1116102ae578063cc5fc44c1161017c578063e2c16d69116100e3578063f11c67201161009c578063f11c67201461084b578063f902735d14610853578063fb681def1461085b578063fe75fd2614610863578063fea798dd1461086b578063ff152ca61461087357610519565b8063e2c16d691461081b578063e663274814610823578063e7bf91b31461082b578063e895c13e14610833578063eca85d3a1461083b578063f04732591461084357610519565b8063d7510e0c11610135578063d7510e0c146107eb578063d7b079aa146107f3578063d9224565146107fb578063daf2354714610803578063e0d7dfd71461080b578063e29425dc1461081357610519565b8063cc5fc44c146107bb578063cdad445a146107c3578063d3e370ee146107cb578063d44e8e88146107d3578063d57bb964146107db578063d6f681b6146107e357610519565b8063a11c6a8b11610220578063b72e40c7116101d9578063b72e40c71461078b578063b89652cd14610793578063ba573fea1461079b578063bd013f5b146107a3578063c09e2618146107ab578063c2d628df146107b357610519565b8063a11c6a8b1461075b578063a2fbc8ad14610763578063a39ed4ff1461076b578063a844024114610773578063ac7532361461077b578063b36a2cf31461078357610519565b8063858eee3b11610272578063858eee3b1461072b578063871938a8146107335780638a2344ae1461073b57806391a9fb18146107435780639be4f03a1461074b5780639c8010c81461075357610519565b80636d422aa114610703578063708b8dd31461070b57806371a629da1461071357806376f190301461071b5780637865a6271461072357610519565b8063390f34ba116103eb5780634a529f911161035d578063637a5a1211610316578063637a5a12146106d35780636422b257146106db57806365344799146106e3578063692286c7146106eb5780636ab5e615146106f35780636ba4271f146106fb57610519565b80634a529f91146106a35780634fe4f1ab146106ab57806355bab12c146106b35780635a9786d4146106bb5780635e869ff1146106c3578063614cf6a1146106cb57610519565b806341b40ba5116103af57806341b40ba5146106735780634349e3d81461067b578063449420041461068357806344dc4f701461068b57806347d25300146106935780634927c63a1461069b57610519565b8063390f34ba1461064b5780633aa786a8146106535780633b5d25aa1461065b5780633f5d6ec814610663578063407374a41461066b57610519565b8063209b1bd21161048f5780632b9c57f6116104485780632b9c57f61461061b5780632ea347b014610623578063333e8ea81461062b57806335a9d21d1461063357806336565ab11461063b5780633872b0ad1461064357610519565b8063209b1bd2146105eb5780632227cd8d146105f357806322a6f08e146105fb578063263a29ad146106035780632ace698a1461060b5780632b34c3491461061357610519565b806311ef5cc1116104e157806311ef5cc1146105bb5780631291a38b146105c3578063179476c5146105cb5780631befa78d146105d35780631ea7c604146105db5780631ec68b1d146105e357610519565b806302454ad31461051e578063029d23441461059b57806306f355ad146105a35780630b8fd588146105ab5780630f5ee482146105b3575b600080fd5b61052661087b565b6040805160208082528351818301528351919283929083019185019080838360005b83811015610560578181015183820152602001610548565b50505050905090810190601f16801561058d5780820380516001836020036101000a031916815260200191505b509250505060405180910390f35b610526610899565b6105266108b7565b6105266108d5565b6105266108f3565b610526610911565b61052661092f565b61052661094d565b61052661096a565b610526610988565b6105266109a6565b6105266109c4565b6105266109e2565b610526610a00565b610526610a1e565b610526610a3c565b610526610a5a565b610526610a78565b610526610a96565b610526610ab4565b610526610ad2565b610526610af0565b610526610b0d565b610526610b2b565b610526610b49565b610526610b67565b610526610b84565b610526610ba2565b610526610bc0565b610526610bde565b610526610bfc565b610526610c1a565b610526610c38565b610526610c56565b610526610c74565b610526610c92565b610526610cb0565b610526610cce565b610526610cec565b610526610d0a565b610526610d28565b610526610d46565b610526610d64565b610526610d82565b610526610da0565b610526610dbe565b610526610ddc565b610526610dfa565b610526610e17565b610526610e35565b610526610e53565b610526610e70565b610526610e8e565b610526610eab565b610526610ec9565b610526610ee7565b610526610f05565b610526610f23565b610526610f41565b610526610f5f565b610526610f7d565b610526610f9a565b610526610fb8565b610526610fd6565b610526610ff4565b610526611012565b610526611030565b61052661104e565b61052661106c565b61052661108a565b6105266110a8565b6105266110c6565b6105266110e4565b610526611102565b610526611120565b61052661113e565b61052661115b565b610526611179565b610526611197565b6105266111b5565b6105266111d3565b6105266111f1565b61052661120f565b61052661122d565b61052661124b565b610526611269565b610526611287565b6105266112a5565b6105266112c3565b6105266112e1565b6105266112ff565b61052661131d565b61052661133b565b60405180604001604052806002815260200161373760f01b81525081565b60405180604001604052806002815260200161068760f31b81525081565b60405180604001604052806002815260200161033360f41b81525081565b60405180604001604052806002815260200161191b60f11b81525081565b60405180604001604052806002815260200161343960f01b81525081565b60405180604001604052806002815260200161383960f01b81525081565b604051806040016040528060028152602001611a9b60f11b81525081565b604051806040016040528060018152602001600d60fa1b81525081565b60405180604001604052806002815260200161038360f41b81525081565b604051806040016040528060028152602001611a1b60f11b81525081565b60405180604001604052806002815260200161031360f41b81525081565b604051806040016040528060028152602001611c1b60f11b81525081565b60405180604001604052806002815260200161383360f01b81525081565b604051806040016040528060028152602001610c8d60f21b81525081565b60405180604001604052806002815260200161393360f01b81525081565b60405180604001604052806002815260200161313160f01b81525081565b60405180604001604052806002815260200161064760f31b81525081565b6040518060400160405280600281526020016106a760f31b81525081565b604051806040016040528060028152602001610d4d60f21b81525081565b604051806040016040528060028152602001611b9960f11b81525081565b60405180604001604052806002815260200161313960f01b81525081565b604051806040016040528060018152602001603760f81b81525081565b60405180604001604052806002815260200161333960f01b81525081565b60405180604001604052806002815260200161323560f01b81525081565b604051806040016040528060028152602001610c4d60f21b81525081565b604051806040016040528060018152602001600760fb1b81525081565b60405180604001604052806002815260200161037360f41b81525081565b60405180604001604052806002815260200161343360f01b81525081565b60405180604001604052806002815260200161066760f31b81525081565b60405180604001604052806002815260200161035360f41b81525081565b604051806040016040528060028152602001611a9960f11b81525081565b60405180604001604052806002815260200161323160f01b81525081565b60405180604001604052806002815260200161373560f01b81525081565b60405180604001604052806002815260200161189960f11b81525081565b60405180604001604052806002815260200161323360f01b81525081565b60405180604001604052806002815260200161353160f01b81525081565b60405180604001604052806002815260200161036360f41b81525081565b60405180604001604052806002815260200161034360f41b81525081565b60405180604001604052806002815260200161363960f01b81525081565b60405180604001604052806002815260200161363760f01b81525081565b6040518060400160405280600281526020016106e760f31b81525081565b60405180604001604052806002815260200161313760f01b81525081565b604051806040016040528060028152602001610ccd60f21b81525081565b60405180604001604052806002815260200161039360f41b81525081565b60405180604001604052806002815260200161062760f31b81525081565b60405180604001604052806002815260200161323960f01b81525081565b60405180604001604052806002815260200161353560f01b81525081565b604051806040016040528060018152602001603960f81b81525081565b604051806040016040528060028152602001610d0d60f21b81525081565b60405180604001604052806002815260200161363560f01b81525081565b604051806040016040528060018152602001601960f91b81525081565b604051806040016040528060028152602001611c9b60f11b81525081565b604051806040016040528060018152602001603160f81b81525081565b60405180604001604052806002815260200161393560f01b81525081565b60405180604001604052806002815260200161313560f01b81525081565b60405180604001604052806002815260200161373160f01b81525081565b60405180604001604052806002815260200161070760f31b81525081565b604051806040016040528060028152602001610e0d60f21b81525081565b60405180604001604052806002815260200161333160f01b81525081565b60405180604001604052806002815260200161313360f01b81525081565b604051806040016040528060018152602001603560f81b81525081565b60405180604001604052806002815260200161333360f01b81525081565b60405180604001604052806002815260200161323760f01b81525081565b604051806040016040528060028152602001610dcd60f21b81525081565b60405180604001604052806002815260200161191960f11b81525081565b60405180604001604052806002815260200161383560f01b81525081565b6040518060400160405280600281526020016106c760f31b81525081565b60405180604001604052806002815260200161333760f01b81525081565b60405180604001604052806002815260200161363160f01b81525081565b60405180604001604052806002815260200161343560f01b81525081565b60405180604001604052806002815260200161373960f01b81525081565b604051806040016040528060028152602001611b9b60f11b81525081565b604051806040016040528060028152602001611b1b60f11b81525081565b604051806040016040528060028152602001610d8d60f21b81525081565b60405180604001604052806002815260200161343160f01b81525081565b604051806040016040528060018152602001603360f81b81525081565b60405180604001604052806002815260200161373360f01b81525081565b604051806040016040528060028152602001611c1960f11b81525081565b60405180604001604052806002815260200161189b60f11b81525081565b60405180604001604052806002815260200161199b60f11b81525081565b60405180604001604052806002815260200161032360f41b81525081565b60405180604001604052806002815260200161353960f01b81525081565b60405180604001604052806002815260200161353760f01b81525081565b60405180604001604052806002815260200161343760f01b81525081565b60405180604001604052806002815260200161383160f01b81525081565b60405180604001604052806002815260200161363360f01b81525081565b60405180604001604052806002815260200161333560f01b81525081565b60405180604001604052806002815260200161353360f01b81525081565b604051806040016040528060028152602001611b1960f11b81525081565b604051806040016040528060028152602001611a1960f11b81525081565b60405180604001604052806002815260200161199960f11b81525081565b604051806040016040528060028152602001610e4d60f21b81525081565b60405180604001604052806002815260200161383760f01b8152508156fea2646970667358221220ffd8b11a7c652699dabed9537eca8abaa7879d79b94d0edd2696c8a28a47da9764736f6c634300060c0033",
  "linkReferences": {},
  "deployedLinkReferences": {}
}