{
  "_format": "hh-sol-artifact-1",
  "contractName": "WalletBalanceProvider",
  "sourceName": "contracts/misc/WalletBalanceProvider.sol",
  "abi": [
    {
      "inputs": [
        {
          "internalType": "address",
          "name": "user",
          "type": "address"
        },
        {
          "internalType": "address",
          "name": "token",
          "type": "address"
        }
      ],
      "name": "balanceOf",
      "outputs": [
        {
          "internalType": "uint256",
          "name": "",
          "type": "uint256"
        }
      ],
      "stateMutability": "view",
      "type": "function"
    },
    {
      "inputs": [
        {
          "internalType": "address[]",
          "name": "users",
          "type": "address[]"
        },
        {
          "internalType": "address[]",
          "name": "tokens",
          "type": "address[]"
        }
      ],
      "name": "batchBalanceOf",
      "outputs": [
        {
          "internalType": "uint256[]",
          "name": "",
          "type": "uint256[]"
        }
      ],
      "stateMutability": "view",
      "type": "function"
    },
    {
      "inputs": [
        {
          "internalType": "address",
          "name": "provider",
          "type": "address"
        },
        {
          "internalType": "address",
          "name": "user",
          "type": "address"
        }
      ],
      "name": "getUserWalletBalances",
      "outputs": [
        {
          "internalType": "address[]",
          "name": "",
          "type": "address[]"
        },
        {
          "internalType": "uint256[]",
          "name": "",
          "type": "uint256[]"
        }
      ],
      "stateMutability": "view",
      "type": "function"
    },
    {
      "stateMutability": "payable",
      "type": "receive"
    }
  ],
  "bytecode": "0x608060405234801561001057600080fd5b50610a70806100206000396000f3fe6080604052600436106100385760003560e01c80630240534314610072578063b59b28ef146100a9578063f7888aec146100d65761006d565b3661006d5761004633610103565b61006b5760405162461bcd60e51b8152600401610062906109d6565b60405180910390fd5b005b600080fd5b34801561007e57600080fd5b5061009261008d366004610765565b61013f565b6040516100a092919061093c565b60405180910390f35b3480156100b557600080fd5b506100c96100c436600461079d565b6104b2565b6040516100a0919061099c565b3480156100e257600080fd5b506100f66100f1366004610765565b61058e565b6040516100a091906109f2565b6000813f7fc5d2460186f7233c927e7db2dcc703c0e500b653ca82273b7bfad8045d85a47081811480159061013757508115155b949350505050565b6060806000846001600160a01b0316630261bf8b6040518163ffffffff1660e01b815260040160206040518083038186803b15801561017d57600080fd5b505afa158015610191573d6000803e3d6000fd5b505050506040513d601f19601f820116820180604052508101906101b59190610749565b90506060816001600160a01b031663d1946dbc6040518163ffffffff1660e01b815260040160006040518083038186803b1580156101f257600080fd5b505afa158015610206573d6000803e3d6000fd5b505050506040513d6000823e601f3d908101601f1916820160405261022e9190810190610806565b90506060815160010167ffffffffffffffff8111801561024d57600080fd5b50604051908082528060200260200182016040528015610277578160200160208202803683370190505b50905060005b82518110156102c65782818151811061029257fe5b60200260200101518282815181106102a657fe5b6001600160a01b039092166020928302919091019091015260010161027d565b5073eeeeeeeeeeeeeeeeeeeeeeeeeeeeeeeeeeeeeeee818351815181106102e957fe5b60200260200101906001600160a01b031690816001600160a01b0316815250506060815167ffffffffffffffff8111801561032357600080fd5b5060405190808252806020026020018201604052801561034d578160200160208202803683370190505b50905060005b835181101561046c576103646106c6565b856001600160a01b031663c44b11f785848151811061037f57fe5b60200260200101516040518263ffffffff1660e01b81526004016103a39190610928565b60206040518083038186803b1580156103bb57600080fd5b505afa1580156103cf573d6000803e3d6000fd5b505050506040513d601f19601f820116820180604052508101906103f391906108b1565b905060006104008261067e565b5050505090508061042c57600084848151811061041957fe5b6020026020010181815250505050610464565b6104498a86858151811061043c57fe5b602002602001015161058e565b84848151811061045557fe5b60200260200101818152505050505b600101610353565b5061048b8773eeeeeeeeeeeeeeeeeeeeeeeeeeeeeeeeeeeeeeee61058e565b8184518151811061049857fe5b6020908102919091010152909450925050505b9250929050565b60608084830267ffffffffffffffff811180156104ce57600080fd5b506040519080825280602002602001820160405280156104f8578160200160208202803683370190505b50905060005b858110156105845760005b8481101561057b5761055688888481811061052057fe5b90506020020160208101906105359190610726565b87878481811061054157fe5b90506020020160208101906100f19190610726565b83518490848802840190811061056857fe5b6020908102919091010152600101610509565b506001016104fe565b5095945050505050565b60006001600160a01b03821673eeeeeeeeeeeeeeeeeeeeeeeeeeeeeeeeeeeeeeee14156105c657506001600160a01b03821631610678565b6105d8826001600160a01b0316610103565b15610660576040516370a0823160e01b81526001600160a01b038316906370a0823190610609908690600401610928565b60206040518083038186803b15801561062157600080fd5b505afa158015610635573d6000803e3d6000fd5b505050506040513d601f19601f8201168201806040525081019061065991906108d6565b9050610678565b60405162461bcd60e51b8152600401610062906109af565b92915050565b51670100000000000000811615159167020000000000000082161515916704000000000000008116151591670800000000000000821615159167100000000000000016151590565b6040518060200160405280600081525090565b805161067881610a22565b60008083601f8401126106f5578182fd5b50813567ffffffffffffffff81111561070c578182fd5b60208301915083602080830285010111156104ab57600080fd5b600060208284031215610737578081fd5b813561074281610a22565b9392505050565b60006020828403121561075a578081fd5b815161074281610a22565b60008060408385031215610777578081fd5b823561078281610a22565b9150602083013561079281610a22565b809150509250929050565b600080600080604085870312156107b2578182fd5b843567ffffffffffffffff808211156107c9578384fd5b6107d5888389016106e4565b909650945060208701359150808211156107ed578384fd5b506107fa878288016106e4565b95989497509550505050565b60006020808385031215610818578182fd5b825167ffffffffffffffff8082111561082f578384fd5b818501915085601f830112610842578384fd5b815181811115610850578485fd5b83810291506108608483016109fb565b8181528481019084860184860187018a101561087a578788fd5b8795505b838610156108a4576108908a826106d9565b83526001959095019491860191860161087e565b5098975050505050505050565b6000602082840312156108c2578081fd5b6108cc60206109fb565b9151825250919050565b6000602082840312156108e7578081fd5b5051919050565b6000815180845260208085019450808401835b8381101561091d57815187529582019590820190600101610901565b509495945050505050565b6001600160a01b0391909116815260200190565b604080825283519082018190526000906020906060840190828701845b8281101561097e5781516001600160a01b031684529284019290840190600101610959565b5050508381038285015261099281866108ee565b9695505050505050565b60006020825261074260208301846108ee565b6020808252600d908201526c24a72b20a624a22faa27a5a2a760991b604082015260600190565b602080825260029082015261191960f11b604082015260600190565b90815260200190565b60405181810167ffffffffffffffff81118282101715610a1a57600080fd5b604052919050565b6001600160a01b0381168114610a3757600080fd5b5056fea2646970667358221220ee6d5285772b2324a960dd521018f4657608443e1f44eeac97ca4580c35b25da64736f6c634300060c0033",
  "linkReferences": {},
  "deployedLinkReferences": {}
}