{
  "_format": "hh-sol-artifact-1",
  "contractName": "ValidationLogic",
  "sourceName": "contracts/protocol/libraries/logic/ValidationLogic.sol",
  "abi": [
    {
      "inputs": [],
      "name": "REBALANCE_UP_LIQUIDITY_RATE_THRESHOLD",
      "outputs": [
        {
          "internalType": "uint256",
          "name": "",
          "type": "uint256"
        }
      ],
      "stateMutability": "view",
      "type": "function"
    },
    {
      "inputs": [],
      "name": "REBALANCE_UP_USAGE_RATIO_THRESHOLD",
      "outputs": [
        {
          "internalType": "uint256",
          "name": "",
          "type": "uint256"
        }
      ],
      "stateMutability": "view",
      "type": "function"
    },
    {
      "inputs": [
        {
          "internalType": "address",
          "name": "lastBorrower",
          "type": "address"
        },
        {
          "internalType": "uint40",
          "name": "lastBorrowTimestamp",
          "type": "uint40"
        },
        {
          "components": [
            {
              "internalType": "uint256",
              "name": "currScaledVariableDebt",
              "type": "uint256"
            },
            {
              "internalType": "uint256",
              "name": "nextScaledVariableDebt",
              "type": "uint256"
            },
            {
              "internalType": "uint256",
              "name": "currPrincipalStableDebt",
              "type": "uint256"
            },
            {
              "internalType": "uint256",
              "name": "currAvgStableBorrowRate",
              "type": "uint256"
            },
            {
              "internalType": "uint256",
              "name": "currTotalStableDebt",
              "type": "uint256"
            },
            {
              "internalType": "uint256",
              "name": "nextAvgStableBorrowRate",
              "type": "uint256"
            },
            {
              "internalType": "uint256",
              "name": "nextTotalStableDebt",
              "type": "uint256"
            },
            {
              "internalType": "uint256",
              "name": "currLiquidityIndex",
              "type": "uint256"
            },
            {
              "internalType": "uint256",
              "name": "nextLiquidityIndex",
              "type": "uint256"
            },
            {
              "internalType": "uint256",
              "name": "currVariableBorrowIndex",
              "type": "uint256"
            },
            {
              "internalType": "uint256",
              "name": "nextVariableBorrowIndex",
              "type": "uint256"
            },
            {
              "internalType": "uint256",
              "name": "currLiquidityRate",
              "type": "uint256"
            },
            {
              "internalType": "uint256",
              "name": "currVariableBorrowRate",
              "type": "uint256"
            },
            {
              "components": [
                {
                  "internalType": "uint256",
                  "name": "data",
                  "type": "uint256"
                }
              ],
              "internalType": "struct DataTypes.ReserveConfigurationMap",
              "name": "reserveConfiguration",
              "type": "tuple"
            },
            {
              "internalType": "address",
              "name": "aTokenAddress",
              "type": "address"
            },
            {
              "internalType": "address",
              "name": "stableDebtTokenAddress",
              "type": "address"
            },
            {
              "internalType": "address",
              "name": "variableDebtTokenAddress",
              "type": "address"
            },
            {
              "internalType": "uint40",
              "name": "reserveLastUpdateTimestamp",
              "type": "uint40"
            },
            {
              "internalType": "uint40",
              "name": "stableDebtLastUpdateTimestamp",
              "type": "uint40"
            }
          ],
          "internalType": "struct DataTypes.ReserveCache",
          "name": "reserveCache",
          "type": "tuple"
        },
        {
          "internalType": "uint256",
          "name": "amountSent",
          "type": "uint256"
        },
        {
          "internalType": "enum DataTypes.InterestRateMode",
          "name": "rateMode",
          "type": "DataTypes.InterestRateMode"
        },
        {
          "internalType": "address",
          "name": "onBehalfOf",
          "type": "address"
        },
        {
          "internalType": "uint256",
          "name": "stableDebt",
          "type": "uint256"
        },
        {
          "internalType": "uint256",
          "name": "variableDebt",
          "type": "uint256"
        }
      ],
      "name": "validateRepay",
      "outputs": [],
      "stateMutability": "view",
      "type": "function"
    },
    {
      "inputs": [
        {
          "components": [
            {
              "internalType": "uint256",
              "name": "currScaledVariableDebt",
              "type": "uint256"
            },
            {
              "internalType": "uint256",
              "name": "nextScaledVariableDebt",
              "type": "uint256"
            },
            {
              "internalType": "uint256",
              "name": "currPrincipalStableDebt",
              "type": "uint256"
            },
            {
              "internalType": "uint256",
              "name": "currAvgStableBorrowRate",
              "type": "uint256"
            },
            {
              "internalType": "uint256",
              "name": "currTotalStableDebt",
              "type": "uint256"
            },
            {
              "internalType": "uint256",
              "name": "nextAvgStableBorrowRate",
              "type": "uint256"
            },
            {
              "internalType": "uint256",
              "name": "nextTotalStableDebt",
              "type": "uint256"
            },
            {
              "internalType": "uint256",
              "name": "currLiquidityIndex",
              "type": "uint256"
            },
            {
              "internalType": "uint256",
              "name": "nextLiquidityIndex",
              "type": "uint256"
            },
            {
              "internalType": "uint256",
              "name": "currVariableBorrowIndex",
              "type": "uint256"
            },
            {
              "internalType": "uint256",
              "name": "nextVariableBorrowIndex",
              "type": "uint256"
            },
            {
              "internalType": "uint256",
              "name": "currLiquidityRate",
              "type": "uint256"
            },
            {
              "internalType": "uint256",
              "name": "currVariableBorrowRate",
              "type": "uint256"
            },
            {
              "components": [
                {
                  "internalType": "uint256",
                  "name": "data",
                  "type": "uint256"
                }
              ],
              "internalType": "struct DataTypes.ReserveConfigurationMap",
              "name": "reserveConfiguration",
              "type": "tuple"
            },
            {
              "internalType": "address",
              "name": "aTokenAddress",
              "type": "address"
            },
            {
              "internalType": "address",
              "name": "stableDebtTokenAddress",
              "type": "address"
            },
            {
              "internalType": "address",
              "name": "variableDebtTokenAddress",
              "type": "address"
            },
            {
              "internalType": "uint40",
              "name": "reserveLastUpdateTimestamp",
              "type": "uint40"
            },
            {
              "internalType": "uint40",
              "name": "stableDebtLastUpdateTimestamp",
              "type": "uint40"
            }
          ],
          "internalType": "struct DataTypes.ReserveCache",
          "name": "reserveCache",
          "type": "tuple"
        },
        {
          "internalType": "uint256",
          "name": "userBalance",
          "type": "uint256"
        }
      ],
      "name": "validateSetUseReserveAsCollateral",
      "outputs": [],
      "stateMutability": "pure",
      "type": "function"
    }
  ],
  "bytecode": "0x6128ac610026600b82828239805160001a60731461001957fe5b30600052607381538281f3fe730000000000000000000000000000000000000000301460806040526004361061009d5760003560e01c8063a034bbdc11610070578063a034bbdc146100fb578063abfcc86a1461010e578063c599627f14610116578063d551e75814610129578063e2fdc8401461013c5761009d565b8063329e05af146100a25780635494eb8a146100b75780637d885382146100d55780639e81a275146100e8575b600080fd5b6100b56100b0366004612699565b61014f565b005b6100bf610221565b6040516100cc919061282e565b60405180910390f35b6100b56100e336600461255e565b610231565b6100b56100f63660046126dd565b610431565b6100b5610109366004612759565b610762565b6100bf610a44565b6100b56101243660046124ed565b610a4a565b6100b56101373660046125ef565b610bf6565b6100b561014a3660046126c5565b61127d565b600080610160846101a001516114b7565b9450505050915081604051806040016040528060018152602001601960f91b815250906101a95760405162461bcd60e51b81526004016101a091906127db565b60405180910390fd5b506040805180820190915260028152611c1b60f11b602082015281156101e25760405162461bcd60e51b81526004016101a091906127db565b50604080518082019091526002815261313960f01b60208201528361021a5760405162461bcd60e51b81526004016101a091906127db565b5050505050565b6b0311d253316c79d37600000081565b600080610242886101a001516114b7565b9450505050915081604051806040016040528060018152602001601960f91b815250906102825760405162461bcd60e51b81526004016101a091906127db565b506040805180820190915260028152611c1b60f11b602082015281156102bb5760405162461bcd60e51b81526004016101a091906127db565b506040805180820190915260018152603160f81b6020820152876102f25760405162461bcd60e51b81526004016101a091906127db565b50846001600160a01b03168a6001600160a01b031614158061032257504264ffffffffff168964ffffffffff1614155b604051806040016040528060028152602001610e4d60f21b8152509061035b5760405162461bcd60e51b81526004016101a091906127db565b506000841180156103775750600186600281111561037557fe5b145b8061039857506000831180156103985750600286600281111561039657fe5b145b60405180604001604052806002815260200161313560f01b815250906103d15760405162461bcd60e51b81526004016101a091906127db565b50600019871415806103eb5750336001600160a01b038616145b60405180604001604052806002815260200161189b60f11b815250906104245760405162461bcd60e51b81526004016101a091906127db565b5050505050505050505050565b600080610442876101a001516114b7565b9450505050915081604051806040016040528060018152602001601960f91b815250906104825760405162461bcd60e51b81526004016101a091906127db565b506040805180820190915260028152611c1b60f11b602082015281156104bb5760405162461bcd60e51b81526004016101a091906127db565b5060006105b16105ac866001600160a01b03166318160ddd6040518163ffffffff1660e01b815260040160206040518083038186803b1580156104fd57600080fd5b505afa158015610511573d6000803e3d6000fd5b505050506040513d601f19601f8201168201806040525081019061053591906127af565b886001600160a01b03166318160ddd6040518163ffffffff1660e01b815260040160206040518083038186803b15801561056e57600080fd5b505afa158015610582573d6000803e3d6000fd5b505050506040513d601f19601f820116820180604052508101906105a691906127af565b906114ff565b611515565b90506000610634886001600160a01b03166370a08231876040518263ffffffff1660e01b81526004016105e491906127c7565b60206040518083038186803b1580156105fc57600080fd5b505afa158015610610573d6000803e3d6000fd5b505050506040513d601f19601f820116820180604052508101906105ac91906127af565b9050600082156106575761065261064b83856114ff565b8490611567565b61065a565b60005b905060008a6101600151905060008c60070160009054906101000a90046001600160a01b03166001600160a01b03166380031e376040518163ffffffff1660e01b815260040160206040518083038186803b1580156106b857600080fd5b505afa1580156106cc573d6000803e3d6000fd5b505050506040513d601f19601f820116820180604052508101906106f091906127af565b90506b0311d253316c79d3760000008310158015610719575061071581610fa0611612565b8211155b60405180604001604052806002815260200161191960f11b815250906107525760405162461bcd60e51b81526004016101a091906127db565b5050505050505050505050505050565b600080600080610776896101a001516114b7565b94509450509350935083604051806040016040528060018152602001601960f91b815250906107b85760405162461bcd60e51b81526004016101a091906127db565b506040805180820190915260028152611c1b60f11b602082015281156107f15760405162461bcd60e51b81526004016101a091906127db565b506040805180820190915260018152603360f81b602082015283156108295760405162461bcd60e51b81526004016101a091906127db565b50600185600281111561083857fe5b141561087b57604080518082019091526002815261313760f01b6020820152876108755760405162461bcd60e51b81526004016101a091906127db565b50610a38565b600285600281111561088957fe5b1415610a0957604080518082019091526002815261062760f31b6020820152866108c65760405162461bcd60e51b81526004016101a091906127db565b50604080518082019091526002815261189960f11b6020820152826108fe5760405162461bcd60e51b81526004016101a091906127db565b5060078a015460408051602081019091528954815261092691600160a01b900460ff16611691565b158061093d575061093b896101a001516116e9565b155b806109d05750886101c001516001600160a01b03166370a08231336040518263ffffffff1660e01b815260040161097491906127c7565b60206040518083038186803b15801561098c57600080fd5b505afa1580156109a0573d6000803e3d6000fd5b505050506040513d601f19601f820116820180604052508101906109c491906127af565b6109ce88886114ff565b115b60405180604001604052806002815260200161313360f01b815250906108755760405162461bcd60e51b81526004016101a091906127db565b60408051808201825260018152600760fb1b6020820152905162461bcd60e51b81526101a091906004016127db565b50505050505050505050565b610fa081565b610a526121a2565b610a5a6121d3565b506001600160a01b038881166000908152602088815260409182902082516101c08101845281546101a08201908152815260018201546001600160801b0380821683860152600160801b918290048116838701526002840154808216606085015282900481166080840152600384015490811660a08401520464ffffffffff1660c08201526004820154851660e082015260058201548516610100820152600682015485166101208201526007820154948516610140820152600160a01b90940460ff1661016085015260080154610180840152815190810190915286548152610b4a90899089908888886116f1565b15156080880152808752604080518082019091526002815261031360f41b60208201529450670de0b6b3a764000011159250610b9c9150505760405162461bcd60e51b81526004016101a091906127db565b508051610ba8906116e9565b602083018190521580610bbd57508160800151155b60405180604001604052806002815260200161393360f01b81525090610a385760405162461bcd60e51b81526004016101a091906127db565b610bfe612246565b610c0c8c6101a00151611c72565b506101208501525050506101a08c0151610c25906114b7565b15156101c0860152151561020085015215156101e084015215156101a0830152151561018082018190526040805180820190915260018152601960f91b602082015290610c855760405162461bcd60e51b81526004016101a091906127db565b50806101c0015115604051806040016040528060028152602001611c1b60f11b81525090610cc65760405162461bcd60e51b81526004016101a091906127db565b50806101a0015115604051806040016040528060018152602001603360f81b81525090610d065760405162461bcd60e51b81526004016101a091906127db565b506040805180820190915260018152603160f81b602082015289610d3d5760405162461bcd60e51b81526004016101a091906127db565b50806101e00151604051806040016040528060018152602001603760f81b81525090610d7c5760405162461bcd60e51b81526004016101a091906127db565b508760021480610d8c5750876001145b604051806040016040528060018152602001600760fb1b81525090610dc45760405162461bcd60e51b81526004016101a091906127db565b50610dd38c6101a00151611c9d565b610140820181905215610e6a576101408c01518c51610df191611cab565b610100820181905260808d0151610e0d918b916105a6916114ff565b60e082018190526101408201516101208301519091610e2e91600a0a611d2e565b1060405180604001604052806002815260200161383160f01b81525090610e685760405162461bcd60e51b81526004016101a091906127db565b505b604080516020810190915285548152610e89908b9088908787876116f1565b5060c08601526020808601919091529084526080840191909152606083018290526040805180820190915260018152603960f81b9181019190915290610ee25760405162461bcd60e51b81526004016101a091906127db565b50670de0b6b3a76400008160c001511160405180604001604052806002815260200161031360f41b81525090610f2b5760405162461bcd60e51b81526004016101a091906127db565b5060405163b3596f0760e01b81526001600160a01b0383169063b3596f0790610f58908e906004016127c7565b60206040518083038186803b158015610f7057600080fd5b505afa158015610f84573d6000803e3d6000fd5b505050506040513d601f19601f82011682018060405250810190610fa891906127af565b6101608201819052610120820151610fd191600a9190910a90610fcb908c611d39565b90611d2e565b610160820181905281516080830151610ff492610fee91906114ff565b90611d5d565b6040808301829052606083015181518083019092526002825261313160f01b6020830152909111156110395760405162461bcd60e51b81526004016101a091906127db565b50600188141561126f5780610200015160405180604001604052806002815260200161189960f11b815250906110825760405162461bcd60e51b81526004016101a091906127db565b506001600160a01b038b1660009081526020878152604091829020600701548251918201909252865481526110c091600160a01b900460ff16611691565b15806110d757506110d58c6101a001516116e9565b155b8061116157508b6101c001516001600160a01b03166370a082318b6040518263ffffffff1660e01b815260040161110e91906127c7565b60206040518083038186803b15801561112657600080fd5b505afa15801561113a573d6000803e3d6000fd5b505050506040513d601f19601f8201168201806040525081019061115e91906127af565b89115b60405180604001604052806002815260200161313360f01b8152509061119a5760405162461bcd60e51b81526004016101a091906127db565b506101c08c01516040516370a0823160e01b81526001600160a01b038d16916370a08231916111cc91906004016127c7565b60206040518083038186803b1580156111e457600080fd5b505afa1580156111f8573d6000803e3d6000fd5b505050506040513d601f19601f8201168201806040525081019061121c91906127af565b60a082018190526000906112309089611612565b9050808a1115604051806040016040528060028152602001610c4d60f21b815250906107525760405162461bcd60e51b81526004016101a091906127db565b505050505050505050505050565b8060050160009054906101000a90046001600160a01b03166001600160a01b03166318160ddd6040518163ffffffff1660e01b815260040160206040518083038186803b1580156112cd57600080fd5b505afa1580156112e1573d6000803e3d6000fd5b505050506040513d601f19601f8201168201806040525081019061130591906127af565b604080518082019091526002815261383960f01b6020820152901561133d5760405162461bcd60e51b81526004016101a091906127db565b508060060160009054906101000a90046001600160a01b03166001600160a01b03166318160ddd6040518163ffffffff1660e01b815260040160206040518083038186803b15801561138e57600080fd5b505afa1580156113a2573d6000803e3d6000fd5b505050506040513d601f19601f820116820180604052508101906113c691906127af565b604080518082019091526002815261039360f41b602082015290156113fe5760405162461bcd60e51b81526004016101a091906127db565b50600480820154604080516318160ddd60e01b815290516001600160a01b03909216926318160ddd928282019260209290829003018186803b15801561144357600080fd5b505afa158015611457573d6000803e3d6000fd5b505050506040513d601f19601f8201168201806040525081019061147b91906127af565b604080518082019091526002815261070760f31b602082015290156114b35760405162461bcd60e51b81526004016101a091906127db565b5050565b51670100000000000000811615159167020000000000000082161515916704000000000000008116151591670800000000000000821615159167100000000000000016151590565b8082018281101561150f57600080fd5b92915050565b6000633b9aca0082810290839082041460405180604001604052806002815260200161068760f31b8152509061155e5760405162461bcd60e51b81526004016101a091906127db565b5090505b919050565b604080518082019091526002815261035360f41b6020820152600090826115a15760405162461bcd60e51b81526004016101a091906127db565b5060408051808201909152600280825261068760f31b60208301528304906b033b2e3c9fd0803ce80000008219048511156115ef5760405162461bcd60e51b81526004016101a091906127db565b5082816b033b2e3c9fd0803ce80000008602018161160957fe5b04949350505050565b600082158061161f575081155b1561162c5750600061150f565b81611388198161163857fe5b0483111560405180604001604052806002815260200161068760f31b815250906116755760405162461bcd60e51b81526004016101a091906127db565b506127106002815b04838502018161168957fe5b049392505050565b60006080821060405180604001604052806002815260200161373760f01b815250906116d05760405162461bcd60e51b81526004016101a091906127db565b5050815160016002830281019190911c16151592915050565b5161ffff1690565b6000806000806000806117026122d4565b61170b8b611deb565b1561172d57600080600080600019600096509650965096509650965050611c63565b60006101408201525b888161014001511015611bba57610140810151611754908c90611df0565b61175d57611ba9565b610140810151600090815260208b905260409020546001600160a01b0316610240820181905261178c57611ba9565b6102408101516001600160a01b0316600090815260208d9052604090206117b281611e41565b5060e0860181905261012086019290925250610100840191909152600a0a602083015261024082015160405163b3596f0760e01b81526001600160a01b038b169163b3596f079161180691906004016127c7565b60206040518083038186803b15801561181e57600080fd5b505afa158015611832573d6000803e3d6000fd5b505050506040513d601f19601f8201168201806040525081019061185691906127af565b8252610120820151158015906118785750610140820151611878908d90611691565b156119e55761188681611e6c565b826102000181815250508060040160009054906101000a90046001600160a01b03166001600160a01b0316631da24f3e8f6040518263ffffffff1660e01b81526004016118d391906127c7565b60206040518083038186803b1580156118eb57600080fd5b505afa1580156118ff573d6000803e3d6000fd5b505050506040513d601f19601f8201168201806040525081019061192391906127af565b6040830181905261020083015161193a9190611cab565b604083018190526020830151835161195692610fcb9190611d39565b6060830181905261018083015161196c916114ff565b61018083015261010082015160608301516119979161198b9190611d39565b6101c0840151906114ff565b6101c0830152610260820151806119b15750610100820151155b151561026083015261012082015160608301516119de916119d29190611d39565b6101e0840151906114ff565b6101e08301525b6101408201516119f6908d90611ed9565b15611ba7578060050160009054906101000a90046001600160a01b03166001600160a01b03166370a082318f6040518263ffffffff1660e01b8152600401611a3e91906127c7565b60206040518083038186803b158015611a5657600080fd5b505afa158015611a6a573d6000803e3d6000fd5b505050506040513d601f19601f82011682018060405250810190611a8e91906127af565b8260a00181815250508060060160009054906101000a90046001600160a01b03166001600160a01b0316631da24f3e8f6040518263ffffffff1660e01b8152600401611ada91906127c7565b60206040518083038186803b158015611af257600080fd5b505afa158015611b06573d6000803e3d6000fd5b505050506040513d601f19601f82011682018060405250810190611b2a91906127af565b6080830181905215611b5b57611b3f81611f2a565b61022083018190526080830151611b5591611cab565b60808301525b60a08201516080830151611b6e916114ff565b6080830181905260208301518351611b8a92610fcb9190611d39565b60c083018190526101a0830151611ba0916114ff565b6101a08301525b505b610140810180516001019052611736565b600081610180015111611bce576000611be3565b6101808101516101c0820151611be391611d2e565b6101c0820152610180810151611bfa576000611c0f565b6101808101516101e0820151611c0f91611d2e565b6101e082018190526101808201516101a0830151611c2c92611f99565b61016082018190526101808201516101a08301516101c08401516101e085015161026090950151929a509098509650919450925090505b96509650965096509650969050565b5161ffff80821692601083901c821692602081901c831692603082901c60ff169260409290921c1690565b5160501c640fffffffff1690565b6000821580611cb8575081155b15611cc55750600061150f565b816b019d971e4fe8401e740000001981611cdb57fe5b0483111560405180604001604052806002815260200161068760f31b81525090611d185760405162461bcd60e51b81526004016101a091906127db565b506b033b2e3c9fd0803ce800000060028161167d565b600081838161168957fe5b6000821580611d5457505081810281838281611d5157fe5b04145b61150f57600080fd5b604080518082019091526002815261035360f41b602082015260009082611d975760405162461bcd60e51b81526004016101a091906127db565b5060408051808201909152600280825261068760f31b6020830152830490612710821904851115611ddb5760405162461bcd60e51b81526004016101a091906127db565b5082816127108602018161160957fe5b511590565b60006080821060405180604001604052806002815260200161373760f01b81525090611e2f5760405162461bcd60e51b81526004016101a091906127db565b50509051600360029092021c16151590565b5461ffff80821692601083901c821692602081901c831692603082901c60ff169260409290921c1690565b600381015460009064ffffffffff600160801b9091048116904216811415611ea357505060018101546001600160801b0316611562565b60018301546002840154600091611ed1916001600160801b0391821691611ecb911685611fc7565b90611cab565b949350505050565b60006080821060405180604001604052806002815260200161373760f01b81525090611f185760405162461bcd60e51b81526004016101a091906127db565b50509051600160029092021c16151590565b600381015460009064ffffffffff600160801b9091048116904216811415611f685750506001810154600160801b90046001600160801b0316611562565b60018301546002840154600091611ed1916001600160801b03600160801b92839004811692611ecb92041685612005565b600082611fa95750600019611fc0565b611fbd83611fb78685611612565b90612012565b90505b9392505050565b600080611fdb4264ffffffffff85166120ac565b9050611ed1611fe86120bc565b6301e13380611ff78785611d39565b81611ffe57fe5b04906114ff565b6000611fc08383426120cc565b604080518082019091526002815261035360f41b60208201526000908261204c5760405162461bcd60e51b81526004016101a091906127db565b5060408051808201909152600280825261068760f31b6020830152830490670de0b6b3a76400008219048511156120965760405162461bcd60e51b81526004016101a091906127db565b508281670de0b6b3a76400008602018161160957fe5b8082038281111561150f57600080fd5b6b033b2e3c9fd0803ce800000090565b6000806120e08364ffffffffff86166120ac565b9050806120f7576120ef6120bc565b915050611fc0565b600019810160006002831161210d576000612112565b600283035b90506301e13380870460006121278280611cab565b905060006121358284611cab565b90506000600261214f846121498a8a611d39565b90611d39565b8161215657fe5b0490506000600661216d8461214989818d8d611d39565b8161217457fe5b049050612192816105a6848161218a8a8e611d39565b6105a66120bc565b9c9b505050505050505050505050565b6040518060a00160405280600081526020016000815260200160008152602001600081526020016000151581525090565b604051806101a001604052806121e7612378565b815260006020820181905260408201819052606082018190526080820181905260a0820181905260c0820181905260e0820181905261010082018190526101208201819052610140820181905261016082018190526101809091015290565b6040518061022001604052806000815260200160008152602001600081526020016000815260200160008152602001600081526020016000815260200160008152602001600081526020016000815260200160008152602001600081526020016000151581526020016000151581526020016000151581526020016000151581526020016000151581525090565b60405180610280016040528060008152602001600081526020016000815260200160008152602001600081526020016000815260200160008152602001600081526020016000815260200160008152602001600081526020016000815260200160008152602001600081526020016000815260200160008152602001600081526020016000815260200160006001600160a01b031681526020016000151581525090565b6040518060200160405280600081525090565b803561150f8161285e565b60006102608083850312156123a9578182fd5b6123b281612837565b915050813581526020820135602082015260408201356040820152606082013560608201526080820135608082015260a082013560a082015260c082013560c082015260e082013560e08201526101008083013581830152506101208083013581830152506101408083013581830152506101608083013581830152506101808083013581830152506101a061244a848285016124b3565b908201526101c061245d8484830161238b565b908201526101e06124708484830161238b565b908201526102006124838484830161238b565b90820152610220612496848483016124d8565b908201526102406124a9848483016124d8565b9082015292915050565b6000602082840312156124c4578081fd5b6124ce6020612837565b9135825250919050565b803564ffffffffff8116811461150f57600080fd5b600080600080600080600060e0888a031215612507578283fd5b87356125128161285e565b965060208801356125228161285e565b955060408801359450606088013593506080880135925060a0880135915060c088013561254e8161285e565b8091505092959891949750929550565b600080600080600080600080610340898b03121561257a578081fd5b88356125858161285e565b97506125948a60208b016124d8565b96506125a38a60408b01612396565b95506102a089013594506102c0890135600381106125bf578182fd5b93506102e08901356125d08161285e565b979a969950949793969295929450505061030082013591610320013590565b60008060008060008060008060008060006103a08c8e031215612610578283fd5b61261a8d8d612396565b9a506102608c013561262b8161285e565b99506102808c013561263c8161285e565b98506102a08c013597506102c08c013596506102e08c013595506103008c013594506103208c013593506103408c013592506103608c013591506103808c01356126858161285e565b809150509295989b509295989b9093969950565b60008061028083850312156126ac578182fd5b6126b68484612396565b94610260939093013593505050565b6000602082840312156126d6578081fd5b5035919050565b60008060008060008061030087890312156126f6578384fd5b863595506127078860208901612396565b94506102808701356127188161285e565b93506102a08701356127298161285e565b92506102c087013561273a8161285e565b91506102e087013561274b8161285e565b809150509295509295509295565b6000806000806000806103008789031215612772578384fd5b863595506127838860208901612396565b945061028087013593506102a087013592506102c087013591506102e08701356003811061274b578182fd5b6000602082840312156127c0578081fd5b5051919050565b6001600160a01b0391909116815260200190565b6000602080835283518082850152825b81811015612807578581018301518582016040015282016127eb565b818111156128185783604083870101525b50601f01601f1916929092016040019392505050565b90815260200190565b60405181810167ffffffffffffffff8111828210171561285657600080fd5b604052919050565b6001600160a01b038116811461287357600080fd5b5056fea2646970667358221220dddfee143f77a5c367b9a1cb4002262fc3401510e36f7eacd8e9bcfa92183d0e64736f6c634300060c0033",
  "linkReferences": {},
  "deployedLinkReferences": {}
}