{
  "_format": "hh-sol-artifact-1",
  "contractName": "LendingPoolCollateralManager",
  "sourceName": "contracts/protocol/lendingpool/LendingPoolCollateralManager.sol",
  "abi": [
    {
      "anonymous": false,
      "inputs": [
        {
          "indexed": true,
          "internalType": "address",
          "name": "collateral",
          "type": "address"
        },
        {
          "indexed": true,
          "internalType": "address",
          "name": "principal",
          "type": "address"
        },
        {
          "indexed": true,
          "internalType": "address",
          "name": "user",
          "type": "address"
        },
        {
          "indexed": false,
          "internalType": "uint256",
          "name": "debtToCover",
          "type": "uint256"
        },
        {
          "indexed": false,
          "internalType": "uint256",
          "name": "liquidatedCollateralAmount",
          "type": "uint256"
        },
        {
          "indexed": false,
          "internalType": "address",
          "name": "liquidator",
          "type": "address"
        },
        {
          "indexed": false,
          "internalType": "bool",
          "name": "receiveAToken",
          "type": "bool"
        }
      ],
      "name": "LiquidationCall",
      "type": "event"
    },
    {
      "anonymous": false,
      "inputs": [
        {
          "indexed": true,
          "internalType": "address",
          "name": "reserve",
          "type": "address"
        },
        {
          "indexed": true,
          "internalType": "address",
          "name": "user",
          "type": "address"
        }
      ],
      "name": "ReserveUsedAsCollateralDisabled",
      "type": "event"
    },
    {
      "anonymous": false,
      "inputs": [
        {
          "indexed": true,
          "internalType": "address",
          "name": "reserve",
          "type": "address"
        },
        {
          "indexed": true,
          "internalType": "address",
          "name": "user",
          "type": "address"
        }
      ],
      "name": "ReserveUsedAsCollateralEnabled",
      "type": "event"
    },
    {
      "inputs": [
        {
          "internalType": "address",
          "name": "collateralAsset",
          "type": "address"
        },
        {
          "internalType": "address",
          "name": "debtAsset",
          "type": "address"
        },
        {
          "internalType": "address",
          "name": "user",
          "type": "address"
        },
        {
          "internalType": "uint256",
          "name": "debtToCover",
          "type": "uint256"
        },
        {
          "internalType": "bool",
          "name": "receiveAToken",
          "type": "bool"
        }
      ],
      "name": "liquidationCall",
      "outputs": [
        {
          "internalType": "uint256",
          "name": "",
          "type": "uint256"
        },
        {
          "internalType": "string",
          "name": "",
          "type": "string"
        }
      ],
      "stateMutability": "nonpayable",
      "type": "function"
    }
  ],
  "bytecode": "0x60806040526000805534801561001457600080fd5b50612b81806100246000396000f3fe608060405234801561001057600080fd5b506004361061002a5760003560e01c8062a718a91461002f575b600080fd5b61004261003d366004612796565b610059565b604051610050929190612a97565b60405180910390f35b6001600160a01b0380861660009081526035602052604080822092871682528120909160609161008761248d565b610090826108de565b6001600160a01b03891660009081526036602052604090209091506100b3612525565b6100bd8a85610ab2565b6040808401919091526020808401929092526034548151631f94a27560e31b815291516001600160a01b039091169263fca513a89260048082019391829003018186803b15801561010d57600080fd5b505afa158015610121573d6000803e3d6000fd5b505050506040513d601f19601f82011682018060405250810190610145919061277a565b6001600160a01b03166101a08201526040810151602082015161018491879186916101709190610bc6565b8d6035876037603854896101a00151610bdc565b6102208301526102008201819052600090600a8111156101a057fe5b600a8111156101ab57fe5b146101ca578061020001518161022001519650965050505050506108d4565b6004808601546001600160a01b031661018083018190526040516370a0823160e01b815290916370a0823191610202918e91016128ef565b60206040518083038186803b15801561021a57600080fd5b505afa15801561022e573d6000803e3d6000fd5b505050506040513d601f19601f820116820180604052508101906102529190612819565b815260408101516020820151610275916113889161026f91610bc6565b90610dc2565b606082018190528911610288578861028e565b80606001515b8160800181815250506102b385848e8e85608001518660000151876101a00151610e4a565b6101208301819052610100830191909152608082015111156102db5761012081015160808201525b876103a0576101808101516040516370a0823160e01b81526000916001600160a01b038f16916370a0823191610313916004016128ef565b60206040518083038186803b15801561032b57600080fd5b505afa15801561033f573d6000803e3d6000fd5b505050506040513d601f19601f820116820180604052508101906103639190612819565b905081610100015181101561039e57600560405180604001604052806002815260200161343560f01b815250975097505050505050506108d4565b505b6103aa8484611059565b806080015181604001511061045b576102008301516080820151610140850151604051637a94c56560e11b81526001600160a01b039093169263f5298aca926103f7928f926004016129ad565b600060405180830381600087803b15801561041157600080fd5b505af1158015610425573d6000803e3d6000fd5b50505060808201516104409150849060009081908190611071565b608081015161045690859085908e9060006111bf565b61059c565b6040810151156104d6578261020001516001600160a01b031663f5298aca8b83604001518661014001516040518463ffffffff1660e01b81526004016104a3939291906129ad565b600060405180830381600087803b1580156104bd57600080fd5b505af11580156104d1573d6000803e3d6000fd5b505050505b826101e001516001600160a01b0316639dc29fac8b6105068460400151856080015161142690919063ffffffff16565b6040518363ffffffff1660e01b8152600401610523929190612994565b600060405180830381600087803b15801561053d57600080fd5b505af1158015610551573d6000803e3d6000fd5b5050505061058660006105758360400151846080015161142690919063ffffffff16565b604084015186929190600090611071565b608081015161059c90859085908e9060006111bf565b871561070b578061018001516001600160a01b03166370a08231336040518263ffffffff1660e01b81526004016105d391906128ef565b60206040518083038186803b1580156105eb57600080fd5b505afa1580156105ff573d6000803e3d6000fd5b505050506040513d601f19601f820116820180604052508101906106239190612819565b61016082015261018081015161010082015160405163f866c31960e01b81526001600160a01b039092169163f866c31991610664918e913391600401612903565b600060405180830381600087803b15801561067e57600080fd5b505af1158015610692573d6000803e3d6000fd5b50505050806101600151600014156107065733600090815260366020526040902060078601546106cf908290600160a01b900460ff166001611436565b60405133906001600160a01b038f16907e058a56ea94653cdf4f152d227ace22d4c00ad99e2a43f58cb7d9e3feb295f290600090a3505b6107bc565b61071361248d565b61071c866108de565b90506107288682611059565b610747818e60008561010001518a6111bf90949392919063ffffffff16565b8161018001516001600160a01b031663d7020d0a8c338561010001518561010001516040518563ffffffff1660e01b81526004016107889493929190612927565b600060405180830381600087803b1580156107a257600080fd5b505af11580156107b6573d6000803e3d6000fd5b50505050505b805161010082015114156108275760078501546107e6908390600160a01b900460ff166000611436565b896001600160a01b03168c6001600160a01b03167f44c58d81365b66dd4b1a7f36c25aa97b8c71c361ee4937adc1a00000227db5dd60405160405180910390a35b6101c08301516080820151610849916001600160a01b038e16913391906114ac565b896001600160a01b03168b6001600160a01b03168d6001600160a01b03167fe413a321e8681d831f4dbccbca790d2952b56f977908e45be37335533e0052868460800151856101000151338e6040516108a59493929190612ab0565b60405180910390a46000604051806040016040528060028152602001611a1b60f11b8152509650965050505050505b9550959350505050565b6108e661248d565b6108ee61248d565b6040805160208082018352855482526101a084019190915260018501546001600160801b0380821660e0860152600160801b9182900481166101208601526002870154808216610160870152829004166101808501526004808701546001600160a01b039081166101c0870152600588015481166101e0870152600688015416610200860181905260038801549290920464ffffffffff16610220860152835163b1bf962d60e01b81529351919363b1bf962d938183019390929091829003018186803b1580156109be57600080fd5b505afa1580156109d2573d6000803e3d6000fd5b505050506040513d601f19601f820116820180604052508101906109f69190612819565b8160200181815250816000018181525050806101e001516001600160a01b031663797743386040518163ffffffff1660e01b815260040160806040518083038186803b158015610a4557600080fd5b505afa158015610a59573d6000803e3d6000fd5b505050506040513d601f19601f82011682018060405250810190610a7d919061285e565b64ffffffffff166102408501526060840181905260808401829052604084019290925260c083015260a082015290505b919050565b60058101546040516370a0823160e01b815260009182916001600160a01b03909116906370a0823190610ae99087906004016128ef565b60206040518083038186803b158015610b0157600080fd5b505afa158015610b15573d6000803e3d6000fd5b505050506040513d601f19601f82011682018060405250810190610b399190612819565b60068401546040516370a0823160e01b81526001600160a01b03909116906370a0823190610b6b9088906004016128ef565b60206040518083038186803b158015610b8357600080fd5b505afa158015610b97573d6000803e3d6000fd5b505050506040513d601f19601f82011682018060405250810190610bbb9190612819565b915091509250929050565b80820182811015610bd657600080fd5b92915050565b60006060610be86125cf565b60408051602081019091528c548152610c009061150a565b15156040860152505050151560208201526101a08b0151610c209061150a565b151560808601525050501515606082015260208101511580610c4457508060600151155b15610c6c5750506040805180820190915260018152601960f91b602082015260069150610db4565b806040015180610c7d575080608001515b15610ca65750506040805180820190915260028152611c1b60f11b6020820152600a9150610db4565b604080516020810190915287548152610cc5908a908a90898989611552565b50808652670de0b6b3a7640000119350610d01925050505750506040805180820190915260028152611a1960f11b602082015260049150610db4565b6000610d0c8d611ad3565b118015610d3b575060078c0154604080516020810190915288548152610d3b91600160a01b900460ff16611ade565b151560a08201819052610d6b57505060408051808201909152600280825261343360f01b60208301529150610db4565b89610d945750506040805180820190915260028152610d0d60f21b602082015260039150610db4565b50506040805180820190915260028152611a1b60f11b6020820152600091505b995099975050505050505050565b6000821580610dcf575081155b15610ddc57506000610bd6565b816113881981610de857fe5b0483111560405180604001604052806002815260200161068760f31b81525090610e2e5760405162461bcd60e51b8152600401610e2591906129ce565b60405180910390fd5b506127106002815b048385020181610e4257fe5b049392505050565b600080600080610e58612604565b60405163b3596f0760e01b81526001600160a01b0387169063b3596f0790610e84908d906004016128ef565b60206040518083038186803b158015610e9c57600080fd5b505afa158015610eb0573d6000803e3d6000fd5b505050506040513d601f19601f82011682018060405250810190610ed49190612819565b6040808301919091525163b3596f0760e01b81526001600160a01b0387169063b3596f0790610f07908c906004016128ef565b60206040518083038186803b158015610f1f57600080fd5b505afa158015610f33573d6000803e3d6000fd5b505050506040513d601f19601f82011682018060405250810190610f579190612819565b6060820152610f658c611b36565b5060c0850152602084015250506101a08b0151610f8190611b61565b60a082018190526040820151610fd491610f9e9190600a0a611b6b565b610fce836020015161026f8560c00151600a0a610fc88e8860600151611b6b90919063ffffffff16565b90611b6b565b90611b8f565b6080820181905287101561103d57869250611036816020015161103061100e8460c00151600a0a8560600151611b6b90919063ffffffff16565b610fce8560a00151600a0a610fc8898860400151611b6b90919063ffffffff16565b90611b9a565b9150611048565b806080015192508791505b50909a909950975050505050505050565b6110638282611c31565b61106d8282611dc1565b5050565b8315158061107e57508215155b1561115357608085015183906110949086610bc6565b1115611144576110bb836110b5868860800151610bc690919063ffffffff16565b90611426565b8560c0018181525050846101e001516001600160a01b03166390f6fcf26040518163ffffffff1660e01b815260040160206040518083038186803b15801561110257600080fd5b505afa158015611116573d6000803e3d6000fd5b505050506040513d601f19601f8201168201806040525081019061113a9190612819565b60a0860152611153565b600060a0860181905260c08601525b8115158061116057508015155b156111b857600061117f86610140015184611ec790919063ffffffff16565b9050600061119b87610140015184611ec790919063ffffffff16565b87519091506111b09082906110b59085610bc6565b602088015250505b5050505050565b6111c7612641565b61014085015160208601516111db91611f69565b6080820181905260078701546101c087015160c088015160a08901516101a08a01516001600160a01b03909416946329db497d948a94938a938a93919261122190611fec565b6040518963ffffffff1660e01b8152600401611244989796959493929190612950565b60606040518083038186803b15801561125c57600080fd5b505afa158015611270573d6000803e3d6000fd5b505050506040513d601f19601f820116820180604052508101906112949190612831565b60408085019190915260208085019290925282845280518082019091526002815261353360f01b91810191909152906001600160801b0310156112ea5760405162461bcd60e51b8152600401610e2591906129ce565b506001600160801b0380168160200151111560405180604001604052806002815260200161353560f01b815250906113355760405162461bcd60e51b8152600401610e2591906129ce565b50604080820151815180830190925260028252610d4d60f21b60208301526001600160801b03101561137a5760405162461bcd60e51b8152600401610e2591906129ce565b508051600287018054602084015160038a0180546001600160801b038381166001600160801b031992831617909255604080880151808416600160801b028489169390961692909217909216939093179093556101008901516101408a015193516001600160a01b038a16957f804c9b842b2748a22bb64b345453a3de7ca54a6ca45ce00d415894979e22897a95611416959194939192612ad6565b60405180910390a2505050505050565b80820382811115610bd657600080fd5b604080518082019091526002815261373760f01b6020820152608083106114705760405162461bcd60e51b8152600401610e2591906129ce565b508160020260010181611484576000611487565b60015b60ff16901b826002026001016001901b19846000015416178360000181905550505050565b611504846323b872dd60e01b8585856040516024016114cd93929190612903565b60408051601f198184030181529190526020810180516001600160e01b03166001600160e01b031990931692909217909152611ff7565b50505050565b51670100000000000000811615159167020000000000000082161515916704000000000000008116151591670800000000000000821615159167100000000000000016151590565b600080600080600080611563612670565b61156c8b6120dc565b1561158e57600080600080600019600096509650965096509650965050611ac4565b60006101408201525b888161014001511015611a1b576101408101516115b5908c906120e1565b6115be57611a0a565b610140810151600090815260208b905260409020546001600160a01b031661024082018190526115ed57611a0a565b6102408101516001600160a01b0316600090815260208d90526040902061161381611b36565b5060e0860181905261012086019290925250610100840191909152600a0a602083015261024082015160405163b3596f0760e01b81526001600160a01b038b169163b3596f079161166791906004016128ef565b60206040518083038186803b15801561167f57600080fd5b505afa158015611693573d6000803e3d6000fd5b505050506040513d601f19601f820116820180604052508101906116b79190612819565b8252610120820151158015906116d957506101408201516116d9908d90611ade565b15611846576116e781612132565b826102000181815250508060040160009054906101000a90046001600160a01b03166001600160a01b0316631da24f3e8f6040518263ffffffff1660e01b815260040161173491906128ef565b60206040518083038186803b15801561174c57600080fd5b505afa158015611760573d6000803e3d6000fd5b505050506040513d601f19601f820116820180604052508101906117849190612819565b6040830181905261020083015161179b9190611f69565b60408301819052602083015183516117b792610fce9190611b6b565b606083018190526101808301516117cd91610bc6565b61018083015261010082015160608301516117f8916117ec9190611b6b565b6101c084015190610bc6565b6101c0830152610260820151806118125750610100820151155b1515610260830152610120820151606083015161183f916118339190611b6b565b6101e084015190610bc6565b6101e08301525b610140820151611857908d9061219f565b15611a08578060050160009054906101000a90046001600160a01b03166001600160a01b03166370a082318f6040518263ffffffff1660e01b815260040161189f91906128ef565b60206040518083038186803b1580156118b757600080fd5b505afa1580156118cb573d6000803e3d6000fd5b505050506040513d601f19601f820116820180604052508101906118ef9190612819565b8260a00181815250508060060160009054906101000a90046001600160a01b03166001600160a01b0316631da24f3e8f6040518263ffffffff1660e01b815260040161193b91906128ef565b60206040518083038186803b15801561195357600080fd5b505afa158015611967573d6000803e3d6000fd5b505050506040513d601f19601f8201168201806040525081019061198b9190612819565b60808301819052156119bc576119a0816121f0565b610220830181905260808301516119b691611f69565b60808301525b60a082015160808301516119cf91610bc6565b60808301819052602083015183516119eb92610fce9190611b6b565b60c083018190526101a0830151611a0191610bc6565b6101a08301525b505b610140810180516001019052611597565b600081610180015111611a2f576000611a44565b6101808101516101c0820151611a4491611b8f565b6101c0820152610180810151611a5b576000611a70565b6101808101516101e0820151611a7091611b8f565b6101e082018190526101808201516101a0830151611a8d9261225f565b61016082018190526101808201516101a08301516101c08401516101e085015161026090950151929a509098509650919450925090505b96509650965096509650969050565b5460101c61ffff1690565b60006080821060405180604001604052806002815260200161373760f01b81525090611b1d5760405162461bcd60e51b8152600401610e2591906129ce565b5050815160016002830281019190911c16151592915050565b5461ffff80821692601083901c821692602081901c831692603082901c60ff169260409290921c1690565b5160301c60ff1690565b6000821580611b8657505081810281838281611b8357fe5b04145b610bd657600080fd5b6000818381610e4257fe5b604080518082019091526002815261035360f41b602082015260009082611bd45760405162461bcd60e51b8152600401610e2591906129ce565b5060408051808201909152600280825261068760f31b6020830152830490612710821904851115611c185760405162461bcd60e51b8152600401610e2591906129ce565b50828161271086020181611c2857fe5b04949350505050565b60e081015161010082015261012081015161014082015261016081015115611d9d576000611c6982610160015183610220015161228d565b9050611c828260e0015182611f6990919063ffffffff16565b6101008301819052604080518082019091526002815261353160f01b6020820152906001600160801b031015611ccb5760405162461bcd60e51b8152600401610e2591906129ce565b506101008201516001840180546001600160801b0319166001600160801b03909216919091179055815115611d9b576000611d108361018001518461022001516122cb565b9050611d2a83610120015182611f6990919063ffffffff16565b61014084018190526040805180820190915260028152611a9960f11b6020820152906001600160801b031015611d735760405162461bcd60e51b8152600401610e2591906129ce565b50506101408201516001840180546001600160801b03928316600160801b0292169190911790555b505b50600301805464ffffffffff60801b1916600160801b4264ffffffffff1602179055565b611dc9612714565b611dd7826101a00151611fec565b60e08201819052611de8575061106d565b6101208201518251611df991611f69565b60208201526101408201518251611e0f91611f69565b60408201526060820151610240830151610220840151611e3792919064ffffffffff166122d4565b608082018190526040830151611e4c91611f69565b808252602082015160808401516040840151611e7093926110b59290918391610bc6565b60a0820181905260e0820151611e869190610dc2565b60c0820181905215611ec257611ebc611eb18361010001518360c00151611ec790919063ffffffff16565b600885015490610bc6565b60088401555b505050565b604080518082019091526002815261035360f41b602082015260009082611f015760405162461bcd60e51b8152600401610e2591906129ce565b5060408051808201909152600280825261068760f31b60208301528304906b033b2e3c9fd0803ce8000000821904851115611f4f5760405162461bcd60e51b8152600401610e2591906129ce565b5082816b033b2e3c9fd0803ce800000086020181611c2857fe5b6000821580611f76575081155b15611f8357506000610bd6565b816b019d971e4fe8401e740000001981611f9957fe5b0483111560405180604001604052806002815260200161068760f31b81525090611fd65760405162461bcd60e51b8152600401610e2591906129ce565b506b033b2e3c9fd0803ce8000000600281610e36565b5160401c61ffff1690565b612009826001600160a01b03166123aa565b6120255760405162461bcd60e51b8152600401610e2590612a60565b60006060836001600160a01b03168360405161204191906128d3565b6000604051808303816000865af19150503d806000811461207e576040519150601f19603f3d011682016040523d82523d6000602084013e612083565b606091505b5091509150816120a55760405162461bcd60e51b8152600401610e25906129e1565b80511561150457808060200190518101906120c091906127fd565b6115045760405162461bcd60e51b8152600401610e2590612a16565b511590565b60006080821060405180604001604052806002815260200161373760f01b815250906121205760405162461bcd60e51b8152600401610e2591906129ce565b50509051600360029092021c16151590565b600381015460009064ffffffffff600160801b909104811690421681141561216957505060018101546001600160801b0316610aad565b60018301546002840154600091612197916001600160801b039182169161219191168561228d565b90611f69565b949350505050565b60006080821060405180604001604052806002815260200161373760f01b815250906121de5760405162461bcd60e51b8152600401610e2591906129ce565b50509051600160029092021c16151590565b600381015460009064ffffffffff600160801b909104811690421681141561222e5750506001810154600160801b90046001600160801b0316610aad565b60018301546002840154600091612197916001600160801b03600160801b92839004811692612191920416856122cb565b60008261226f5750600019612286565b6122838361227d8685610dc2565b906123e3565b90505b9392505050565b6000806122a14264ffffffffff8516611426565b90506121976122ae61247d565b6301e133806122bd8785611b6b565b816122c457fe5b0490610bc6565b60006122868383425b6000806122e88364ffffffffff8616611426565b9050806122ff576122f761247d565b915050612286565b600019810160006002831161231557600061231a565b600283035b90506301e133808704600061232f8280611f69565b9050600061233d8284611f69565b90506000600261235184610fc88a8a611b6b565b8161235857fe5b0490506000600661236f84610fc889818d8d611b6b565b8161237657fe5b04905061239a81612394848161238c8a8e611b6b565b61239461247d565b90610bc6565b9c9b505050505050505050505050565b6000813f7fc5d2460186f7233c927e7db2dcc703c0e500b653ca82273b7bfad8045d85a470818114801590612197575050151592915050565b604080518082019091526002815261035360f41b60208201526000908261241d5760405162461bcd60e51b8152600401610e2591906129ce565b5060408051808201909152600280825261068760f31b6020830152830490670de0b6b3a76400008219048511156124675760405162461bcd60e51b8152600401610e2591906129ce565b508281670de0b6b3a764000086020181611c2857fe5b6b033b2e3c9fd0803ce800000090565b604051806102600160405280600081526020016000815260200160008152602001600081526020016000815260200160008152602001600081526020016000815260200160008152602001600081526020016000815260200160008152602001600081526020016124fc612767565b815260006020820181905260408201819052606082018190526080820181905260a09091015290565b60405180610240016040528060008152602001600081526020016000815260200160008152602001600081526020016000815260200160008152602001600081526020016000815260200160008152602001600081526020016000815260200160006001600160a01b0316815260200160006001600160a01b03168152602001600015158152602001600060028111156125bb57fe5b815260200160008152602001606081525090565b6040805160c081018252600080825260208201819052918101829052606081018290526080810182905260a081019190915290565b6040518060e00160405280600081526020016000815260200160008152602001600081526020016000815260200160008152602001600081525090565b6040518060a0016040528060008152602001600081526020016000815260200160008152602001600081525090565b60405180610280016040528060008152602001600081526020016000815260200160008152602001600081526020016000815260200160008152602001600081526020016000815260200160008152602001600081526020016000815260200160008152602001600081526020016000815260200160008152602001600081526020016000815260200160006001600160a01b031681526020016000151581525090565b6040518061012001604052806000815260200160008152602001600081526020016000815260200160008152602001600081526020016000815260200160008152602001600064ffffffffff1681525090565b6040518060200160405280600081525090565b60006020828403121561278b578081fd5b815161228681612b25565b600080600080600060a086880312156127ad578081fd5b85356127b881612b25565b945060208601356127c881612b25565b935060408601356127d881612b25565b92506060860135915060808601356127ef81612b3d565b809150509295509295909350565b60006020828403121561280e578081fd5b815161228681612b3d565b60006020828403121561282a578081fd5b5051919050565b600080600060608486031215612845578283fd5b8351925060208401519150604084015190509250925092565b60008060008060808587031215612873578384fd5b845193506020850151925060408501519150606085015164ffffffffff8116811461289c578182fd5b939692955090935050565b600081518084526128bf816020860160208601612af9565b601f01601f19169290920160200192915050565b600082516128e5818460208701612af9565b9190910192915050565b6001600160a01b0391909116815260200190565b6001600160a01b039384168152919092166020820152604081019190915260600190565b6001600160a01b0394851681529290931660208301526040820152606081019190915260800190565b6001600160a01b03988916815296909716602087015260408601949094526060850192909252608084015260a083015260c082015260e08101919091526101000190565b6001600160a01b03929092168252602082015260400190565b6001600160a01b039390931683526020830191909152604082015260600190565b60006020825261228660208301846128a7565b6020808252818101527f5361666545524332303a206c6f772d6c6576656c2063616c6c206661696c6564604082015260600190565b6020808252602a908201527f5361666545524332303a204552433230206f7065726174696f6e20646964206e6040820152691bdd081cdd58d8d9595960b21b606082015260800190565b6020808252601f908201527f5361666545524332303a2063616c6c20746f206e6f6e2d636f6e747261637400604082015260600190565b60008382526040602083015261228360408301846128a7565b93845260208401929092526001600160a01b031660408301521515606082015260800190565b948552602085019390935260408401919091526060830152608082015260a00190565b60005b83811015612b14578181015183820152602001612afc565b838111156115045750506000910152565b6001600160a01b0381168114612b3a57600080fd5b50565b8015158114612b3a57600080fdfea2646970667358221220faa059887eec89defaf0ac8ca8da74fbc592fb1878af273209af196d4b13ab5764736f6c634300060c0033",
  "linkReferences": {},
  "deployedLinkReferences": {}
}